{
  "_format": "hh-sol-artifact-1",
  "contractName": "MockLZEndpoint",
  "sourceName": "contracts/test/MockLZEndpoint.sol",
  "abi": [
    {
      "inputs": [
        {
          "internalType": "uint32",
          "name": "_eid",
          "type": "uint32"
        }
      ],
      "stateMutability": "nonpayable",
      "type": "constructor"
    },
    {
      "anonymous": false,
      "inputs": [
        {
          "indexed": false,
          "internalType": "bytes",
          "name": "payload",
          "type": "bytes"
        }
      ],
      "name": "PacketSent",
      "type": "event"
    },
    {
      "inputs": [],
      "name": "eid",
      "outputs": [
        {
          "internalType": "uint32",
          "name": "",
          "type": "uint32"
        }
      ],
      "stateMutability": "view",
      "type": "function"
    },
    {
      "inputs": [
        {
          "internalType": "address",
          "name": "_oapp",
          "type": "address"
        },
        {
          "internalType": "uint32",
          "name": "_srcEid",
          "type": "uint32"
        },
        {
          "internalType": "bytes32",
          "name": "_guid",
          "type": "bytes32"
        },
        {
          "internalType": "bytes",
          "name": "_message",
          "type": "bytes"
        }
      ],
      "name": "mockReceive",
      "outputs": [],
      "stateMutability": "payable",
      "type": "function"
    },
    {
      "inputs": [
        {
          "internalType": "address",
          "name": "",
          "type": "address"
        },
        {
          "internalType": "uint32",
          "name": "",
          "type": "uint32"
        },
        {
          "internalType": "bytes",
          "name": "",
          "type": "bytes"
        },
        {
          "internalType": "bytes",
          "name": "",
          "type": "bytes"
        },
        {
          "internalType": "bool",
          "name": "",
          "type": "bool"
        }
      ],
      "name": "quote",
      "outputs": [
        {
          "components": [
            {
              "internalType": "uint256",
              "name": "nativeFee",
              "type": "uint256"
            },
            {
              "internalType": "uint256",
              "name": "lzTokenFee",
              "type": "uint256"
            }
          ],
          "internalType": "struct MessagingFee",
          "name": "fee",
          "type": "tuple"
        }
      ],
      "stateMutability": "pure",
      "type": "function"
    },
    {
      "inputs": [
        {
          "internalType": "address",
          "name": "",
          "type": "address"
        },
        {
          "internalType": "uint32",
          "name": "",
          "type": "uint32"
        },
        {
          "internalType": "bytes",
          "name": "_message",
          "type": "bytes"
        },
        {
          "internalType": "bytes",
          "name": "",
          "type": "bytes"
        },
        {
          "internalType": "address",
          "name": "",
          "type": "address"
        },
        {
          "internalType": "address",
          "name": "",
          "type": "address"
        },
        {
          "internalType": "bytes",
          "name": "",
          "type": "bytes"
        }
      ],
      "name": "send",
      "outputs": [
        {
          "components": [
            {
              "internalType": "uint256",
              "name": "nativeFee",
              "type": "uint256"
            },
            {
              "internalType": "uint256",
              "name": "lzTokenFee",
              "type": "uint256"
            }
          ],
          "internalType": "struct MessagingFee",
          "name": "fee",
          "type": "tuple"
        }
      ],
      "stateMutability": "payable",
      "type": "function"
    }
  ],
  "bytecode": "0x60803461006a57601f6104d538819003918201601f19168301916001600160401b0383118484101761006f5780849260209460405283398101031261006a575163ffffffff811680910361006a5763ffffffff19600054161760005560405161044f90816100868239f35b600080fd5b634e487b7160e01b600052604160045260246000fdfe60806040908082526004918236101561001757600080fd5b600091823560e01c908163416ecebf1461034f57508063465ce3bc146102bc578063ac485c1a1461017f5763e84a4f151461005157600080fd5b60e036600319011261017b5761006561036f565b5061006e610385565b5067ffffffffffffffff92604435848111610177576100909036908301610398565b919094606435818111610173576100aa9036908401610398565b506001600160a01b0390506084358181160361016e5760a4359081160361016e5760c43590811161016a579161010861016696927f4cd1f79eb551dd9f49759ed1e187e8fdf4beee52dbc7a294f95aabd1a049c1fc94369101610398565b5050600060208551610119816103c6565b828152015261013484519283926020845260208401916103f8565b0390a1805191610143836103c6565b808352602083015251918291829190916020806040830194805184520151910152565b0390f35b8480fd5b600080fd5b8580fd5b8380fd5b5080fd5b5060031990836080368401126101775761019761036f565b61019f610385565b67ffffffffffffffff916064358381116102a5576101c09036908601610398565b91909686519160608301838110878211176102a957885263ffffffff94851683523360208401908152600189850190815290998b96956001600160a01b03909316949392853b156102a5578888938c519d8e998a986313137d6560e01b8a5251168d8901525160248801525116604486015260443560648601526084850160e0905260e4850190610250926103f8565b8160a485015283810392830160c4850152526020019134905af1801561029b57610278578480f35b8311610288575052818080808480f35b634e487b7160e01b845260419052602483fd5b83513d87823e3d90fd5b8780fd5b634e487b7160e01b8b526041885260248bfd5b50823461034b5760a036600319011261034b576102d761036f565b506102e0610385565b5067ffffffffffffffff9060443582811161016a576103029036908301610398565b50506064359182116101775761031a91369101610398565b50506084358015150361017b579081816020610166945161033a816103c6565b8281520152805191610143836103c6565b8280fd5b83903461017b578160031936011261017b5763ffffffff60209254168152f35b600435906001600160a01b038216820361016e57565b6024359063ffffffff8216820361016e57565b9181601f8401121561016e5782359167ffffffffffffffff831161016e576020838186019501011161016e57565b6040810190811067ffffffffffffffff8211176103e257604052565b634e487b7160e01b600052604160045260246000fd5b908060209392818452848401376000828201840152601f01601f191601019056fea264697066735822122005498dc030a19347a1cf8af12a3c37f3a5e85e00f04a66c776817c1733dac19e64736f6c63430008140033",
  "linkReferences": {},
  "deployedLinkReferences": {}
}