{
  "_format": "hh-sol-artifact-1",
  "contractName": "MockAavePool",
  "sourceName": "contracts/test/MockAavePool.sol",
  "abi": [
    {
      "inputs": [
        {
          "internalType": "address",
          "name": "_usdt",
          "type": "address"
        },
        {
          "internalType": "address",
          "name": "_ausdt",
          "type": "address"
        }
      ],
      "stateMutability": "nonpayable",
      "type": "constructor"
    },
    {
      "inputs": [
        {
          "internalType": "address",
          "name": "token",
          "type": "address"
        }
      ],
      "name": "SafeERC20FailedOperation",
      "type": "error"
    },
    {
      "inputs": [],
      "name": "USDT",
      "outputs": [
        {
          "internalType": "contract IERC20",
          "name": "",
          "type": "address"
        }
      ],
      "stateMutability": "view",
      "type": "function"
    },
    {
      "inputs": [],
      "name": "aUSDT",
      "outputs": [
        {
          "internalType": "contract IERC20",
          "name": "",
          "type": "address"
        }
      ],
      "stateMutability": "view",
      "type": "function"
    },
    {
      "inputs": [
        {
          "internalType": "address",
          "name": "asset",
          "type": "address"
        },
        {
          "internalType": "uint256",
          "name": "amount",
          "type": "uint256"
        },
        {
          "internalType": "address",
          "name": "onBehalfOf",
          "type": "address"
        },
        {
          "internalType": "uint16",
          "name": "referralCode",
          "type": "uint16"
        }
      ],
      "name": "supply",
      "outputs": [],
      "stateMutability": "nonpayable",
      "type": "function"
    },
    {
      "inputs": [
        {
          "internalType": "address",
          "name": "asset",
          "type": "address"
        },
        {
          "internalType": "uint256",
          "name": "amount",
          "type": "uint256"
        },
        {
          "internalType": "address",
          "name": "to",
          "type": "address"
        }
      ],
      "name": "withdraw",
      "outputs": [
        {
          "internalType": "uint256",
          "name": "",
          "type": "uint256"
        }
      ],
      "stateMutability": "nonpayable",
      "type": "function"
    }
  ],
  "bytecode": "0x60c03461009f57601f6104b438819003918201601f19168301916001600160401b038311848410176100a457808492604094855283398101031261009f57610052602061004b836100ba565b92016100ba565b6001600160a01b039182166080521660a0526040516103e590816100cf823960805181818160a60152818161010401526101b3015260a051818181605e0152818161014301526101f00152f35b600080fd5b634e487b7160e01b600052604160045260246000fd5b51906001600160a01b038216820361009f5756fe6080604052600436101561001257600080fd5b6000803560e01c8063617ba0371461017457806369328dec146100d5578063c54e44eb146100905763e2dbcb151461004957600080fd5b3461008d578060031936011261008d576040517f00000000000000000000000000000000000000000000000000000000000000006001600160a01b03168152602090f35b80fd5b503461008d578060031936011261008d576040517f00000000000000000000000000000000000000000000000000000000000000006001600160a01b03168152602090f35b503461008d57606036600319011261008d5760206100f161021b565b61016c6024358092610101610236565b907f00000000000000000000000000000000000000000000000000000000000000009061013b906001600160a01b0380841691161461024c565b6101678330337f00000000000000000000000000000000000000000000000000000000000000006102f2565b61028a565b604051908152f35b503461008d57608036600319011261008d5761018e61021b565b602435610199610236565b60643561ffff811603610217576101ee82610214946101e57f00000000000000000000000000000000000000000000000000000000000000009160018060a01b0380841691161461024c565b309033906102f2565b7f000000000000000000000000000000000000000000000000000000000000000061028a565b80f35b8380fd5b600435906001600160a01b038216820361023157565b600080fd5b604435906001600160a01b038216820361023157565b1561025357565b60405162461bcd60e51b815260206004820152600f60248201526e135bd8dace8813db9b1e481554d115608a1b6044820152606490fd5b60405163a9059cbb60e01b60208201526001600160a01b039092166024830152604480830193909352918152608081019167ffffffffffffffff8311828410176102dc576102da92604052610347565b565b634e487b7160e01b600052604160045260246000fd5b6040516323b872dd60e01b60208201526001600160a01b03928316602482015292909116604483015260648083019390935291815260a081019181831067ffffffffffffffff8411176102dc576102da926040525b906000602091828151910182855af1156103a3576000513d61039a57506001600160a01b0381163b155b6103785750565b604051635274afe760e01b81526001600160a01b039091166004820152602490fd5b60011415610371565b6040513d6000823e3d90fdfea26469706673582212206348b44debba477088542efd7b0a401815a88f6256e0f43211d6e29a03cb835764736f6c63430008140033",
  "linkReferences": {},
  "deployedLinkReferences": {}
}