{
  "_format": "hh-sol-artifact-1",
  "contractName": "OneInchAdapter",
  "sourceName": "contracts/adapters/OneInchAdapter.sol",
  "abi": [
    {
      "inputs": [
        {
          "internalType": "address",
          "name": "_router",
          "type": "address"
        },
        {
          "internalType": "address",
          "name": "_usdc",
          "type": "address"
        },
        {
          "internalType": "address",
          "name": "_weth",
          "type": "address"
        },
        {
          "internalType": "address",
          "name": "_owner",
          "type": "address"
        }
      ],
      "stateMutability": "nonpayable",
      "type": "constructor"
    },
    {
      "inputs": [
        {
          "internalType": "address",
          "name": "owner",
          "type": "address"
        }
      ],
      "name": "OwnableInvalidOwner",
      "type": "error"
    },
    {
      "inputs": [
        {
          "internalType": "address",
          "name": "account",
          "type": "address"
        }
      ],
      "name": "OwnableUnauthorizedAccount",
      "type": "error"
    },
    {
      "inputs": [
        {
          "internalType": "address",
          "name": "token",
          "type": "address"
        }
      ],
      "name": "SafeERC20FailedOperation",
      "type": "error"
    },
    {
      "anonymous": false,
      "inputs": [
        {
          "indexed": true,
          "internalType": "address",
          "name": "previousOwner",
          "type": "address"
        },
        {
          "indexed": true,
          "internalType": "address",
          "name": "newOwner",
          "type": "address"
        }
      ],
      "name": "OwnershipTransferred",
      "type": "event"
    },
    {
      "inputs": [],
      "name": "ONE_INCH_ROUTER",
      "outputs": [
        {
          "internalType": "address",
          "name": "",
          "type": "address"
        }
      ],
      "stateMutability": "view",
      "type": "function"
    },
    {
      "inputs": [],
      "name": "USDC",
      "outputs": [
        {
          "internalType": "address",
          "name": "",
          "type": "address"
        }
      ],
      "stateMutability": "view",
      "type": "function"
    },
    {
      "inputs": [],
      "name": "WETH",
      "outputs": [
        {
          "internalType": "address",
          "name": "",
          "type": "address"
        }
      ],
      "stateMutability": "view",
      "type": "function"
    },
    {
      "inputs": [],
      "name": "nextExecutor",
      "outputs": [
        {
          "internalType": "address",
          "name": "",
          "type": "address"
        }
      ],
      "stateMutability": "view",
      "type": "function"
    },
    {
      "inputs": [],
      "name": "nextSwapData",
      "outputs": [
        {
          "internalType": "bytes",
          "name": "",
          "type": "bytes"
        }
      ],
      "stateMutability": "view",
      "type": "function"
    },
    {
      "inputs": [],
      "name": "owner",
      "outputs": [
        {
          "internalType": "address",
          "name": "",
          "type": "address"
        }
      ],
      "stateMutability": "view",
      "type": "function"
    },
    {
      "inputs": [],
      "name": "renounceOwnership",
      "outputs": [],
      "stateMutability": "nonpayable",
      "type": "function"
    },
    {
      "inputs": [
        {
          "internalType": "address",
          "name": "_executor",
          "type": "address"
        },
        {
          "internalType": "bytes",
          "name": "_data",
          "type": "bytes"
        }
      ],
      "name": "setSwapData",
      "outputs": [],
      "stateMutability": "nonpayable",
      "type": "function"
    },
    {
      "inputs": [],
      "name": "swapNativeToUSDT",
      "outputs": [
        {
          "internalType": "uint256",
          "name": "amountOut",
          "type": "uint256"
        }
      ],
      "stateMutability": "payable",
      "type": "function"
    },
    {
      "inputs": [
        {
          "internalType": "address",
          "name": "tokenIn",
          "type": "address"
        },
        {
          "internalType": "uint256",
          "name": "amountIn",
          "type": "uint256"
        }
      ],
      "name": "swapToUSDT",
      "outputs": [
        {
          "internalType": "uint256",
          "name": "amountOut",
          "type": "uint256"
        }
      ],
      "stateMutability": "nonpayable",
      "type": "function"
    },
    {
      "inputs": [
        {
          "internalType": "address",
          "name": "newOwner",
          "type": "address"
        }
      ],
      "name": "transferOwnership",
      "outputs": [],
      "stateMutability": "nonpayable",
      "type": "function"
    }
  ],
  "bytecode": "0x60e03461012357601f610cde38819003918201601f19168301916001600160401b0383118484101761012857808492608094604052833981010312610123578061004a60609261013e565b6100566020830161013e565b906100636040840161013e565b6001600160a01b03949093859161007a910161013e565b16801561010a57600080546001600160a01b03198116831782556040519616907f8be0079c531659141344cd1fd0a4f28419497f9722a3daafe3b4186f6b6457e09080a360805260a05260c052610b8b90816101538239608051818181610136015281816106c3015281816108150152610a0b015260a0518181816103b70152610627015260c051816101bd0152f35b604051631e4fbdf760e01b815260006004820152602490fd5b600080fd5b634e487b7160e01b600052604160045260246000fd5b51906001600160a01b03821682036101235756fe60806040818152600436101561001457600080fd5b600091823560e01c9081628b908f1461053f575080635ea1bef514610440578063715018a6146103e657806389a30271146103a35780638da5cb5b1461037c5780638e3eb2ae146101ec578063ad5c4648146101a9578063b72df9661461017a578063c91a216914610165578063dd3fd925146101225763f2fde38b1461009a57600080fd5b3461011e57602036600319011261011e576100b36105d6565b6100bb6105f1565b6001600160a01b03908116918215610107575082546001600160a01b0319811683178455167f8be0079c531659141344cd1fd0a4f28419497f9722a3daafe3b4186f6b6457e08380a380f35b51631e4fbdf760e01b815260048101849052602490fd5b5080fd5b503461011e578160031936011261011e57517f00000000000000000000000000000000000000000000000000000000000000006001600160a01b03168152602090f35b508160031936011261011e5751908152602090f35b503461011e578060031936011261011e576020906101a26101996105d6565b6024359061061d565b9051908152f35b503461011e578160031936011261011e57517f00000000000000000000000000000000000000000000000000000000000000006001600160a01b03168152602090f35b503461011e57366003190112610379576102046105d6565b9060249182359067ffffffffffffffff9081831161037557366023840112156103755782600401359182116103755736858385010111610375576102466105f1565b60018060a01b03166bffffffffffffffffffffffff60a01b60025416176002556001916102738354610564565b601f8111610325575b508390601f83116001146102bb5790849591839495936102ae575b505050600019600383901b1c191690821b17905580f35b0101359050388080610297565b601f19831695600080516020610b3683398151915292865b88811061030d575084869798106102f1575b50505050811b01905580f35b60001960f88660031b161c1992010135169055388080806102e5565b838201830135855593860193602091820191016102d3565b600080516020610b36833981519152601f840160051c8101916020851061036b575b601f0160051c019084905b82811061036057505061027c565b868155018490610352565b9091508190610347565b8380fd5b80fd5b503461011e578160031936011261011e57905490516001600160a01b039091168152602090f35b503461011e578160031936011261011e57517f00000000000000000000000000000000000000000000000000000000000000006001600160a01b03168152602090f35b82346103795780600319360112610379576103ff6105f1565b80546001600160a01b03198116825581906001600160a01b03167f8be0079c531659141344cd1fd0a4f28419497f9722a3daafe3b4186f6b6457e08280a380f35b503461011e578160031936011261011e578051828160019182549261046484610564565b8084529381811690811561051d57506001146104d3575b5061048b9250949294038461059e565b815192839160208084528251928382860152825b8481106104bd57505050828201840152601f01601f19168101030190f35b818101830151888201880152879550820161049f565b808752869150600080516020610b368339815191525b848310610502575061048b93505081016020013861047b565b819350908160209254838589010152019101909184926104e9565b90506020925061048b94915060ff191682840152151560051b8201013861047b565b83903461011e578160031936011261011e576002546001600160a01b03168152602090f35b90600182811c92168015610594575b602083101461057e57565b634e487b7160e01b600052602260045260246000fd5b91607f1691610573565b90601f8019910116810190811067ffffffffffffffff8211176105c057604052565b634e487b7160e01b600052604160045260246000fd5b600435906001600160a01b03821682036105ec57565b600080fd5b6000546001600160a01b0316330361060557565b60405163118cdaa760e01b8152336004820152602490fd5b6001600160a01b037f000000000000000000000000000000000000000000000000000000000000000081169116808214610ac85761065c600154610564565b15610a83576040928351916323b872dd60e01b60208401523360248401523060448401528160648401526064835260a0830167ffffffffffffffff93808210858311176105c0576106af91875282610acd565b845163095ea7b360e01b60208083018281527f00000000000000000000000000000000000000000000000000000000000000006001600160a01b031660248501526044808501879052845291929160009061070b60648561059e565b83519082875af16000513d82610a67575b5050156109fa575b505084519260e08401908111848210176105c0578552825260208201838152308386018181526060850191825260808501938452600160a08601818152600060c088018181526002548b516312aa3caf60e01b81526001600160a01b0391821660048201529951811660248b01529651871660448a015293518616606489015293519094166084870152935160a4860152915160c4850152905160e484015261014061010484015261014483018190526101606101248401529054849183916107ec81610564565b9081610164850152836001821691826000146109db57505060011461098f575b508190038160007f00000000000000000000000000000000000000000000000000000000000000006001600160a01b03165af160009181610960575b5061088557825162461bcd60e51b81526020600482015260116024820152700c5a5b98da0814ddd85c0811985a5b1959607a1b6044820152606490fd5b91610891600154610564565b806108dd575b50600280546001600160a01b03191690555163a9059cbb60e01b6020820152336024820152604480820184905281526108da916108d560648361059e565b610acd565b90565b601f81116001146108fb5750906108da9160006001555b9091610897565b601f600080516020610b36833981519152910160051c81017fb10e2d527612073b26eecdfd717e6a320cf44b4afac2b0732d9fcbe2b7fa0cf75b8181106109545750509060006108da93926001825281600155556108f4565b60008155600101610935565b9091508381813d8311610988575b610978818361059e565b810103126105ec57519038610848565b503d61096e565b600160009081529150600080516020610b368339815191525b8183106109bd5750508101610184018161080c565b805461018484880101528794508593506020909201916001016109a8565b92915092506101849160ff191682840152151560051b8201019061080c565b865191602083015260018060a01b037f0000000000000000000000000000000000000000000000000000000000000000166024830152600060448301526044825260808201828110868211176105c057610a6092610a5a91895284610acd565b82610acd565b3880610724565b909150610a7b5750823b15155b388061071c565b600114610a74565b60405162461bcd60e51b815260206004820152601760248201527f31696e63683a204e6f20737761702064617461207365740000000000000000006044820152606490fd5b505090565b906000602091828151910182855af115610b29576000513d610b2057506001600160a01b0381163b155b610afe5750565b604051635274afe760e01b81526001600160a01b039091166004820152602490fd5b60011415610af7565b6040513d6000823e3d90fdfeb10e2d527612073b26eecdfd717e6a320cf44b4afac2b0732d9fcbe2b7fa0cf6a264697066735822122050063f19457d4843f499feccb6c08ba39dcd93d4562100084c85fdab126b8a4464736f6c63430008140033",
  "linkReferences": {},
  "deployedLinkReferences": {}
}