{
  "_format": "hh-sol-artifact-1",
  "contractName": "Fundraiser",
  "sourceName": "contracts/Fundraiser.sol",
  "abi": [
    {
      "inputs": [],
      "stateMutability": "nonpayable",
      "type": "constructor"
    },
    {
      "inputs": [],
      "name": "EnforcedPause",
      "type": "error"
    },
    {
      "inputs": [],
      "name": "ExpectedPause",
      "type": "error"
    },
    {
      "inputs": [],
      "name": "InvalidInitialization",
      "type": "error"
    },
    {
      "inputs": [],
      "name": "NotInitializing",
      "type": "error"
    },
    {
      "inputs": [
        {
          "internalType": "address",
          "name": "owner",
          "type": "address"
        }
      ],
      "name": "OwnableInvalidOwner",
      "type": "error"
    },
    {
      "inputs": [
        {
          "internalType": "address",
          "name": "account",
          "type": "address"
        }
      ],
      "name": "OwnableUnauthorizedAccount",
      "type": "error"
    },
    {
      "inputs": [],
      "name": "ReentrancyGuardReentrantCall",
      "type": "error"
    },
    {
      "inputs": [
        {
          "internalType": "address",
          "name": "token",
          "type": "address"
        }
      ],
      "name": "SafeERC20FailedOperation",
      "type": "error"
    },
    {
      "anonymous": false,
      "inputs": [
        {
          "indexed": true,
          "internalType": "address",
          "name": "donor",
          "type": "address"
        },
        {
          "indexed": false,
          "internalType": "uint256",
          "name": "amount",
          "type": "uint256"
        },
        {
          "indexed": false,
          "internalType": "string",
          "name": "sourceChain",
          "type": "string"
        }
      ],
      "name": "DonationCredited",
      "type": "event"
    },
    {
      "anonymous": false,
      "inputs": [
        {
          "indexed": false,
          "internalType": "uint64",
          "name": "version",
          "type": "uint64"
        }
      ],
      "name": "Initialized",
      "type": "event"
    },
    {
      "anonymous": false,
      "inputs": [
        {
          "indexed": false,
          "internalType": "uint256",
          "name": "id",
          "type": "uint256"
        },
        {
          "indexed": false,
          "internalType": "string",
          "name": "title",
          "type": "string"
        },
        {
          "indexed": false,
          "internalType": "string",
          "name": "url",
          "type": "string"
        },
        {
          "indexed": false,
          "internalType": "bool",
          "name": "verified",
          "type": "bool"
        }
      ],
      "name": "MediaArchiveCreated",
      "type": "event"
    },
    {
      "anonymous": false,
      "inputs": [
        {
          "indexed": true,
          "internalType": "address",
          "name": "previousOwner",
          "type": "address"
        },
        {
          "indexed": true,
          "internalType": "address",
          "name": "newOwner",
          "type": "address"
        }
      ],
      "name": "OwnershipTransferred",
      "type": "event"
    },
    {
      "anonymous": false,
      "inputs": [
        {
          "indexed": false,
          "internalType": "address",
          "name": "account",
          "type": "address"
        }
      ],
      "name": "Paused",
      "type": "event"
    },
    {
      "anonymous": false,
      "inputs": [
        {
          "indexed": false,
          "internalType": "uint256",
          "name": "id",
          "type": "uint256"
        },
        {
          "indexed": false,
          "internalType": "string",
          "name": "title",
          "type": "string"
        },
        {
          "indexed": false,
          "internalType": "uint256",
          "name": "requiredVotes",
          "type": "uint256"
        }
      ],
      "name": "ProposalCreated",
      "type": "event"
    },
    {
      "anonymous": false,
      "inputs": [
        {
          "indexed": false,
          "internalType": "uint256",
          "name": "id",
          "type": "uint256"
        }
      ],
      "name": "ProposalExecuted",
      "type": "event"
    },
    {
      "anonymous": false,
      "inputs": [
        {
          "indexed": false,
          "internalType": "address",
          "name": "account",
          "type": "address"
        }
      ],
      "name": "Unpaused",
      "type": "event"
    },
    {
      "anonymous": false,
      "inputs": [
        {
          "indexed": false,
          "internalType": "uint256",
          "name": "id",
          "type": "uint256"
        },
        {
          "indexed": true,
          "internalType": "address",
          "name": "voter",
          "type": "address"
        },
        {
          "indexed": false,
          "internalType": "bool",
          "name": "upvote",
          "type": "bool"
        }
      ],
      "name": "Voted",
      "type": "event"
    },
    {
      "anonymous": false,
      "inputs": [
        {
          "indexed": false,
          "internalType": "uint256",
          "name": "amount",
          "type": "uint256"
        },
        {
          "indexed": false,
          "internalType": "address",
          "name": "token",
          "type": "address"
        }
      ],
      "name": "Withdraw",
      "type": "event"
    },
    {
      "inputs": [
        {
          "internalType": "address",
          "name": "",
          "type": "address"
        }
      ],
      "name": "_donors",
      "outputs": [
        {
          "internalType": "bool",
          "name": "",
          "type": "bool"
        }
      ],
      "stateMutability": "view",
      "type": "function"
    },
    {
      "inputs": [],
      "name": "allDonations",
      "outputs": [
        {
          "internalType": "address[]",
          "name": "donors",
          "type": "address[]"
        },
        {
          "internalType": "uint256[]",
          "name": "values",
          "type": "uint256[]"
        },
        {
          "internalType": "uint256[]",
          "name": "dates",
          "type": "uint256[]"
        },
        {
          "internalType": "address[]",
          "name": "tokens",
          "type": "address[]"
        }
      ],
      "stateMutability": "view",
      "type": "function"
    },
    {
      "inputs": [],
      "name": "allDonationsCount",
      "outputs": [
        {
          "internalType": "uint256",
          "name": "",
          "type": "uint256"
        }
      ],
      "stateMutability": "view",
      "type": "function"
    },
    {
      "inputs": [],
      "name": "beneficiary",
      "outputs": [
        {
          "internalType": "address payable",
          "name": "",
          "type": "address"
        }
      ],
      "stateMutability": "view",
      "type": "function"
    },
    {
      "inputs": [
        {
          "internalType": "uint256",
          "name": "",
          "type": "uint256"
        }
      ],
      "name": "categories",
      "outputs": [
        {
          "internalType": "string",
          "name": "",
          "type": "string"
        }
      ],
      "stateMutability": "view",
      "type": "function"
    },
    {
      "inputs": [
        {
          "internalType": "string",
          "name": "_title",
          "type": "string"
        },
        {
          "internalType": "string",
          "name": "_description",
          "type": "string"
        },
        {
          "internalType": "string",
          "name": "_url",
          "type": "string"
        },
        {
          "internalType": "string",
          "name": "_verificationType",
          "type": "string"
        },
        {
          "internalType": "bool",
          "name": "_verified",
          "type": "bool"
        }
      ],
      "name": "createMediaArchive",
      "outputs": [],
      "stateMutability": "nonpayable",
      "type": "function"
    },
    {
      "inputs": [
        {
          "internalType": "string",
          "name": "_title",
          "type": "string"
        },
        {
          "internalType": "string",
          "name": "_description",
          "type": "string"
        },
        {
          "internalType": "uint256",
          "name": "_requiredVotes",
          "type": "uint256"
        }
      ],
      "name": "createProposal",
      "outputs": [],
      "stateMutability": "nonpayable",
      "type": "function"
    },
    {
      "inputs": [
        {
          "internalType": "address",
          "name": "donor",
          "type": "address"
        },
        {
          "internalType": "uint256",
          "name": "amount",
          "type": "uint256"
        },
        {
          "internalType": "string",
          "name": "sourceChain",
          "type": "string"
        }
      ],
      "name": "creditDonation",
      "outputs": [],
      "stateMutability": "nonpayable",
      "type": "function"
    },
    {
      "inputs": [],
      "name": "deadline",
      "outputs": [
        {
          "internalType": "uint256",
          "name": "",
          "type": "uint256"
        }
      ],
      "stateMutability": "view",
      "type": "function"
    },
    {
      "inputs": [],
      "name": "description",
      "outputs": [
        {
          "internalType": "string",
          "name": "",
          "type": "string"
        }
      ],
      "stateMutability": "view",
      "type": "function"
    },
    {
      "inputs": [],
      "name": "donationsCount",
      "outputs": [
        {
          "internalType": "uint256",
          "name": "",
          "type": "uint256"
        }
      ],
      "stateMutability": "view",
      "type": "function"
    },
    {
      "inputs": [
        {
          "internalType": "address",
          "name": "",
          "type": "address"
        }
      ],
      "name": "donorVotingPower",
      "outputs": [
        {
          "internalType": "uint256",
          "name": "",
          "type": "uint256"
        }
      ],
      "stateMutability": "view",
      "type": "function"
    },
    {
      "inputs": [
        {
          "internalType": "uint256",
          "name": "_id",
          "type": "uint256"
        }
      ],
      "name": "executeProposal",
      "outputs": [],
      "stateMutability": "nonpayable",
      "type": "function"
    },
    {
      "inputs": [
        {
          "internalType": "uint256",
          "name": "newDeadline",
          "type": "uint256"
        }
      ],
      "name": "extendDeadline",
      "outputs": [],
      "stateMutability": "nonpayable",
      "type": "function"
    },
    {
      "inputs": [],
      "name": "factoryAddress",
      "outputs": [
        {
          "internalType": "address",
          "name": "",
          "type": "address"
        }
      ],
      "stateMutability": "view",
      "type": "function"
    },
    {
      "inputs": [],
      "name": "getCategories",
      "outputs": [
        {
          "internalType": "string[]",
          "name": "",
          "type": "string[]"
        }
      ],
      "stateMutability": "view",
      "type": "function"
    },
    {
      "inputs": [],
      "name": "getFundraiserStats",
      "outputs": [
        {
          "internalType": "uint256",
          "name": "_totalDonations",
          "type": "uint256"
        },
        {
          "internalType": "uint256",
          "name": "_totalDonationsCount",
          "type": "uint256"
        },
        {
          "internalType": "uint256",
          "name": "_goal",
          "type": "uint256"
        },
        {
          "internalType": "uint256",
          "name": "_deadline",
          "type": "uint256"
        },
        {
          "internalType": "bool",
          "name": "_isActive",
          "type": "bool"
        }
      ],
      "stateMutability": "view",
      "type": "function"
    },
    {
      "inputs": [],
      "name": "getImageUrls",
      "outputs": [
        {
          "internalType": "string[]",
          "name": "",
          "type": "string[]"
        }
      ],
      "stateMutability": "view",
      "type": "function"
    },
    {
      "inputs": [],
      "name": "getMediaArchive",
      "outputs": [
        {
          "components": [
            {
              "internalType": "uint256",
              "name": "id",
              "type": "uint256"
            },
            {
              "internalType": "string",
              "name": "title",
              "type": "string"
            },
            {
              "internalType": "string",
              "name": "description",
              "type": "string"
            },
            {
              "internalType": "string",
              "name": "url",
              "type": "string"
            },
            {
              "internalType": "string",
              "name": "verificationType",
              "type": "string"
            },
            {
              "internalType": "uint256",
              "name": "date",
              "type": "uint256"
            },
            {
              "internalType": "bool",
              "name": "verified",
              "type": "bool"
            }
          ],
          "internalType": "struct Fundraiser.MediaArchive[]",
          "name": "",
          "type": "tuple[]"
        }
      ],
      "stateMutability": "view",
      "type": "function"
    },
    {
      "inputs": [],
      "name": "getProposals",
      "outputs": [
        {
          "components": [
            {
              "internalType": "uint256",
              "name": "id",
              "type": "uint256"
            },
            {
              "internalType": "string",
              "name": "title",
              "type": "string"
            },
            {
              "internalType": "string",
              "name": "description",
              "type": "string"
            },
            {
              "internalType": "uint256",
              "name": "date",
              "type": "uint256"
            },
            {
              "internalType": "uint256",
              "name": "upvotes",
              "type": "uint256"
            },
            {
              "internalType": "uint256",
              "name": "downvotes",
              "type": "uint256"
            },
            {
              "internalType": "uint256",
              "name": "requiredVotes",
              "type": "uint256"
            },
            {
              "internalType": "bool",
              "name": "executed",
              "type": "bool"
            },
            {
              "internalType": "bool",
              "name": "exists",
              "type": "bool"
            }
          ],
          "internalType": "struct Fundraiser.Proposal[]",
          "name": "",
          "type": "tuple[]"
        }
      ],
      "stateMutability": "view",
      "type": "function"
    },
    {
      "inputs": [],
      "name": "goal",
      "outputs": [
        {
          "internalType": "uint256",
          "name": "",
          "type": "uint256"
        }
      ],
      "stateMutability": "view",
      "type": "function"
    },
    {
      "inputs": [
        {
          "internalType": "address",
          "name": "",
          "type": "address"
        },
        {
          "internalType": "uint256",
          "name": "",
          "type": "uint256"
        }
      ],
      "name": "hasVoted",
      "outputs": [
        {
          "internalType": "bool",
          "name": "",
          "type": "bool"
        }
      ],
      "stateMutability": "view",
      "type": "function"
    },
    {
      "inputs": [],
      "name": "id",
      "outputs": [
        {
          "internalType": "uint256",
          "name": "",
          "type": "uint256"
        }
      ],
      "stateMutability": "view",
      "type": "function"
    },
    {
      "inputs": [
        {
          "internalType": "uint256",
          "name": "",
          "type": "uint256"
        }
      ],
      "name": "images",
      "outputs": [
        {
          "internalType": "string",
          "name": "",
          "type": "string"
        }
      ],
      "stateMutability": "view",
      "type": "function"
    },
    {
      "inputs": [
        {
          "internalType": "uint256",
          "name": "_id",
          "type": "uint256"
        },
        {
          "internalType": "string",
          "name": "_name",
          "type": "string"
        },
        {
          "internalType": "string[]",
          "name": "_images",
          "type": "string[]"
        },
        {
          "internalType": "string[]",
          "name": "_categories",
          "type": "string[]"
        },
        {
          "internalType": "string",
          "name": "_description",
          "type": "string"
        },
        {
          "internalType": "string",
          "name": "_region",
          "type": "string"
        },
        {
          "internalType": "address payable",
          "name": "_beneficiary",
          "type": "address"
        },
        {
          "internalType": "address",
          "name": "_creator",
          "type": "address"
        },
        {
          "internalType": "uint256",
          "name": "_goal",
          "type": "uint256"
        },
        {
          "internalType": "uint256",
          "name": "_deadline",
          "type": "uint256"
        },
        {
          "internalType": "address",
          "name": "_usdc",
          "type": "address"
        },
        {
          "internalType": "address",
          "name": "_platformFeeRecipient",
          "type": "address"
        },
        {
          "internalType": "address",
          "name": "_factoryAddress",
          "type": "address"
        }
      ],
      "name": "initialize",
      "outputs": [],
      "stateMutability": "nonpayable",
      "type": "function"
    },
    {
      "inputs": [],
      "name": "mediaArchiveCount",
      "outputs": [
        {
          "internalType": "uint256",
          "name": "",
          "type": "uint256"
        }
      ],
      "stateMutability": "view",
      "type": "function"
    },
    {
      "inputs": [
        {
          "internalType": "uint256",
          "name": "",
          "type": "uint256"
        }
      ],
      "name": "mediaArchives",
      "outputs": [
        {
          "internalType": "uint256",
          "name": "id",
          "type": "uint256"
        },
        {
          "internalType": "string",
          "name": "title",
          "type": "string"
        },
        {
          "internalType": "string",
          "name": "description",
          "type": "string"
        },
        {
          "internalType": "string",
          "name": "url",
          "type": "string"
        },
        {
          "internalType": "string",
          "name": "verificationType",
          "type": "string"
        },
        {
          "internalType": "uint256",
          "name": "date",
          "type": "uint256"
        },
        {
          "internalType": "bool",
          "name": "verified",
          "type": "bool"
        }
      ],
      "stateMutability": "view",
      "type": "function"
    },
    {
      "inputs": [],
      "name": "myDonations",
      "outputs": [
        {
          "internalType": "uint256[]",
          "name": "values",
          "type": "uint256[]"
        },
        {
          "internalType": "uint256[]",
          "name": "dates",
          "type": "uint256[]"
        },
        {
          "internalType": "address[]",
          "name": "tokens",
          "type": "address[]"
        },
        {
          "internalType": "string[]",
          "name": "sourceChains",
          "type": "string[]"
        }
      ],
      "stateMutability": "view",
      "type": "function"
    },
    {
      "inputs": [],
      "name": "myDonationsCount",
      "outputs": [
        {
          "internalType": "uint256",
          "name": "",
          "type": "uint256"
        }
      ],
      "stateMutability": "view",
      "type": "function"
    },
    {
      "inputs": [],
      "name": "name",
      "outputs": [
        {
          "internalType": "string",
          "name": "",
          "type": "string"
        }
      ],
      "stateMutability": "view",
      "type": "function"
    },
    {
      "inputs": [],
      "name": "owner",
      "outputs": [
        {
          "internalType": "address",
          "name": "",
          "type": "address"
        }
      ],
      "stateMutability": "view",
      "type": "function"
    },
    {
      "inputs": [],
      "name": "pause",
      "outputs": [],
      "stateMutability": "nonpayable",
      "type": "function"
    },
    {
      "inputs": [],
      "name": "paused",
      "outputs": [
        {
          "internalType": "bool",
          "name": "",
          "type": "bool"
        }
      ],
      "stateMutability": "view",
      "type": "function"
    },
    {
      "inputs": [],
      "name": "platformFeeRecipient",
      "outputs": [
        {
          "internalType": "address",
          "name": "",
          "type": "address"
        }
      ],
      "stateMutability": "view",
      "type": "function"
    },
    {
      "inputs": [],
      "name": "proposalCount",
      "outputs": [
        {
          "internalType": "uint256",
          "name": "",
          "type": "uint256"
        }
      ],
      "stateMutability": "view",
      "type": "function"
    },
    {
      "inputs": [
        {
          "internalType": "uint256",
          "name": "",
          "type": "uint256"
        }
      ],
      "name": "proposals",
      "outputs": [
        {
          "internalType": "uint256",
          "name": "id",
          "type": "uint256"
        },
        {
          "internalType": "string",
          "name": "title",
          "type": "string"
        },
        {
          "internalType": "string",
          "name": "description",
          "type": "string"
        },
        {
          "internalType": "uint256",
          "name": "date",
          "type": "uint256"
        },
        {
          "internalType": "uint256",
          "name": "upvotes",
          "type": "uint256"
        },
        {
          "internalType": "uint256",
          "name": "downvotes",
          "type": "uint256"
        },
        {
          "internalType": "uint256",
          "name": "requiredVotes",
          "type": "uint256"
        },
        {
          "internalType": "bool",
          "name": "executed",
          "type": "bool"
        },
        {
          "internalType": "bool",
          "name": "exists",
          "type": "bool"
        }
      ],
      "stateMutability": "view",
      "type": "function"
    },
    {
      "inputs": [],
      "name": "region",
      "outputs": [
        {
          "internalType": "string",
          "name": "",
          "type": "string"
        }
      ],
      "stateMutability": "view",
      "type": "function"
    },
    {
      "inputs": [],
      "name": "renounceOwnership",
      "outputs": [],
      "stateMutability": "nonpayable",
      "type": "function"
    },
    {
      "inputs": [
        {
          "internalType": "address payable",
          "name": "_beneficiary",
          "type": "address"
        }
      ],
      "name": "setBeneficiary",
      "outputs": [],
      "stateMutability": "nonpayable",
      "type": "function"
    },
    {
      "inputs": [],
      "name": "totalDonations",
      "outputs": [
        {
          "internalType": "uint256",
          "name": "",
          "type": "uint256"
        }
      ],
      "stateMutability": "view",
      "type": "function"
    },
    {
      "inputs": [],
      "name": "totalDonationsCount",
      "outputs": [
        {
          "internalType": "uint256",
          "name": "",
          "type": "uint256"
        }
      ],
      "stateMutability": "view",
      "type": "function"
    },
    {
      "inputs": [
        {
          "internalType": "address",
          "name": "newOwner",
          "type": "address"
        }
      ],
      "name": "transferOwnership",
      "outputs": [],
      "stateMutability": "nonpayable",
      "type": "function"
    },
    {
      "inputs": [],
      "name": "unpause",
      "outputs": [],
      "stateMutability": "nonpayable",
      "type": "function"
    },
    {
      "inputs": [],
      "name": "usdc",
      "outputs": [
        {
          "internalType": "contract IERC20",
          "name": "",
          "type": "address"
        }
      ],
      "stateMutability": "view",
      "type": "function"
    },
    {
      "inputs": [],
      "name": "version",
      "outputs": [
        {
          "internalType": "string",
          "name": "",
          "type": "string"
        }
      ],
      "stateMutability": "pure",
      "type": "function"
    },
    {
      "inputs": [
        {
          "internalType": "uint256",
          "name": "_id",
          "type": "uint256"
        },
        {
          "internalType": "bool",
          "name": "_upvote",
          "type": "bool"
        }
      ],
      "name": "vote",
      "outputs": [],
      "stateMutability": "nonpayable",
      "type": "function"
    },
    {
      "inputs": [],
      "name": "withdrawUSDT",
      "outputs": [],
      "stateMutability": "nonpayable",
      "type": "function"
    }
  ],
  "bytecode": "0x60808060405234620000bd577ff0c57e16840df040f15088dc2f81fe391c3923bec73e23a9662efc9c229c6a009081549060ff8260401c16620000ae57506001600160401b036002600160401b03198282160162000068575b6040516138939081620000c38239f35b6001600160401b031990911681179091556040519081527fc7f505b2f371ae2175ee4913f4499e1f2633a7b5936321eed1cdaeb6115181d290602090a138808062000058565b63f92ee8a960e01b8152600490fd5b600080fdfe6080604052600436101561001257600080fd5b60e0600035811c908163013cf08b146131525781630180b97c1461312857816306fdde03146130825781630ce0ebf414612ccd5781630d61b51914612bce5781630fd63e8e14612bb0578163146feaa2146129a25781631868611b1461291d5781631a57f7b4146127d75781631c31f710146127535781631f5225951461273557816329dcb0cf14612717578163362e496b14612572578163389b75331461250257816338af3eed146124d95781633e413bee146124b05781633f4ba83a146124395781633fa095da1461240d57816340193883146123ef57816342545825146123a25781634db0412c1461231d5781634f67b66f146122de5781635062d68d1461223857816354fd4d50146121e0578163557cb58d14611bfc5781635c975abb14611bcc57816362564c4814611983578163715018a6146119195781637284e4161461184b5781638456cb59146117e457816384856482146117a55781638da5cb5b1461176f57816391faf1b414610d3f578163966dae0e14610d16578163af640d0f14610cf8578163c6cdbe5e14610ca5578163c9d27afe14610a8b578163d2a6751514610a4c578163d4971f6114610a12578163d70d9214146104af578163da35c66414610491578163de2ed89314610473578163dfe0039b1461035b578163e7ae1d1d1461029b57508063eb13554f14610272578063eea2a953146102545763f2fde38b1461022457600080fd5b3461024f57602036600319011261024f5761024d6102406134a6565b610248613553565b61358c565b005b600080fd5b3461024f57600036600319011261024f576020601454604051908152f35b3461024f57600036600319011261024f576009546040516001600160a01b039091168152602090f35b3461024f57602036600319011261024f57600435600052600360205260406000208054906102cb6001820161329d565b61034a6102da6002840161329d565b61033c6102e96003860161329d565b61032e6102f86004880161329d565b9361032060ff600660058b01549a015416976040519b8c9b8c528060208d01528b0190613343565b9089820360408b0152613343565b908782036060890152613343565b908582036080870152613343565b9160a0840152151560c08301520390f35b3461024f57600036600319011261024f57600a54806000526001906020908282526040600020549161038c8361376b565b926103968161376b565b906103a08161376b565b956103aa8261376b565b9460005b838110610407576103da88610403896103f58d6103e78c8c60405198899860808a5260808a0190613469565b9188830390890152613435565b908582036040870152613435565b908382036060850152613469565b0390f35b61046e90826000528387526104208160406000206136d3565b5080546001600160a01b0391600391831661043b858e613757565b528681015461044a858b613757565b52600281015461045a858f613757565b52015416610468828a613757565b526136fc565b6103ae565b3461024f57600036600319011261024f576020601154604051908152f35b3461024f57600036600319011261024f576020601354604051908152f35b3461024f57606036600319011261024f576104c86134a6565b6044356001600160401b03811161024f576104e7903690600401613383565b6104ef613671565b6104f7613646565b6008546001600160a01b031633036109bf5760018060a01b036007541691604051608081018181106001600160401b038211176108e4576040526024358152426020820152836040820152826060820152604051938460a08101106001600160401b0360a0870111176108e45760a0850160405260018060a01b03831685526024356020860152426040860152606085015282608085015260018060a01b038216600052600060205260406000208054600160401b8110156108e4576105c2916001820181556136a1565b9190916108fa57805182556020810151600183015560408101516002830180546001600160a01b0319166001600160a01b0392909216919091179055606001518051906001600160401b0382116108e457610620600384015461320b565b601f811161098a575b50602090601f831160011461091b576003929160009183610910575b50508160011b9160001990841b1c1916179101555b600a54600052600160205260406000208054600160401b8110156108e457610687916001820181556136d3565b6108fa57835181546001600160a01b039182166001600160a01b03199182161783556020860151600184015560408601516002840155606086015160038401805491909316911617905560809093015180519093600401906001600160401b0381116108e4576106f7825461320b565b601f81116108a7575b506020601f82116001146108195790806107e79493927f0a88b4bb7d40be29840ac23eec9498c8cebefa83aa6fa8ba2ef20e5007de686d969760009261080e575b50508160011b916000199060031b1c19161790555b6107646024356011546136ef565b6011556107726015546136fc565b6015556107806012546136fc565b6012556001600160a01b0381166000908152600460205260409020805460ff8116156107fe575b5050600660205260406000206107c060243582546136ef565b905560405191829160243583526040602084015260018060a01b0316946040830190613343565b0390a2600160008051602061381e83398151915255005b60ff1916600117905584806107a7565b015190508780610741565b601f198216958360005260206000209660005b81811061088f57509660019284926107e79796957f0a88b4bb7d40be29840ac23eec9498c8cebefa83aa6fa8ba2ef20e5007de686d999a10610876575b505050811b019055610756565b015160001960f88460031b161c19169055878080610869565b8383015189556001909801976020938401930161082c565b6108d490836000526020600020601f840160051c810191602085106108da575b601f0160051c0190613600565b85610700565b90915081906108c7565b634e487b7160e01b600052604160045260246000fd5b634e487b7160e01b600052600060045260246000fd5b015190508780610645565b906003840160005260206000209160005b601f19851681106109725750918391600193600395601f1981161061095a575b505050811b0191015561065a565b015160001983861b60f8161c1916905587808061094c565b9192602060018192868501518155019401920161092c565b6109b990600385016000526020600020601f850160051c810191602086106108da57601f0160051c0190613600565b86610629565b60405162461bcd60e51b815260206004820152602560248201527f46756e647261697365723a2043616c6c6572206973206e6f742074686520666160448201526463746f727960d81b6064820152608490fd5b3461024f57602036600319011261024f576001600160a01b03610a336134a6565b1660005260066020526020604060002054604051908152f35b3461024f57602036600319011261024f576001600160a01b03610a6d6134a6565b166000526004602052602060ff604060002054166040519015158152f35b3461024f57604036600319011261024f576004356024358015159081810361024f57336000526020906004825260ff6040600020541615610c54578360005260028252604060002060ff6007820154610ae8828260081c1661370b565b16610c0f573360005260058352604060002085600052835260ff60406000205416610bda573360005260068352604060002054918215610ba35715610b8d576004610b3691019182546136ef565b90555b336000526005815260406000208360005281526040600020600160ff198254161790556040519283528201527ff2913dbe661ee2acc4a046d8fbcdc792373bda34c41c6086484b5345e5785e5f60403392a2005b6005610b9c91019182546136ef565b9055610b39565b60405162461bcd60e51b815260048101859052600f60248201526e2737903b37ba34b733903837bbb2b960891b6044820152606490fd5b60405162461bcd60e51b815260048101849052600d60248201526c105b1c9958591e481d9bdd1959609a1b6044820152606490fd5b60405162461bcd60e51b815260048101849052601960248201527f50726f706f73616c20616c7265616479206578656375746564000000000000006044820152606490fd5b60405162461bcd60e51b815260048101839052602360248201527f4f6e6c7920646f6e6f72732063616e20706572666f726d20746869732061637460448201526234b7b760e91b6064820152608490fd5b3461024f57602036600319011261024f57600435600d5481101561024f57610ce461040391600d6000526000805160206137de8339815191520161329d565b604051918291602083526020830190613343565b3461024f57600036600319011261024f576020600a54604051908152f35b3461024f57600036600319011261024f576008546040516001600160a01b039091168152602090f35b3461024f576101a036600319011261024f576024356001600160401b03811161024f57610d70903690600401613383565b6044356001600160401b03811161024f57610d8f9036906004016134d3565b906064356001600160401b03811161024f57610daf9036906004016134d3565b6084356001600160401b03811161024f57610dce903690600401613383565b60a4356001600160401b03811161024f57610ded903690600401613383565b9360c435926001600160a01b0392838516850361024f578360e4351660e4350361024f576101443590848216820361024f576101643592858416840361024f576101843594868616860361024f5760008051602061383e83398151915254986001600160401b038a161580611761575b60016001600160401b038c16149081611757575b15908161174e575b5061173c5760016001600160401b03198b161760008051602061383e8339815191525560ff8a60401c161561170f575b610eb1613617565b610eb9613617565b610ec460e43561358c565b610ecc613617565b610ed4613617565b600160008051602061381e83398151915255610eee613617565b600435600a558051906001600160401b0382116108e4578190610f12600b5461320b565b601f81116116c0575b50602090601f83116001146116365760009261162b575b50508160011b916000199060031b1c191617600b555b805190600160401b82116108e457600c5482600c558083106115ab575b5060200190600c60005260008051602061379e833981519152916000905b8282106114975750505050805190600160401b82116108e457600d5482600d55808310611417575b5060200190600d6000526000805160206137de833981519152916000905b8282106112f857505050508051906001600160401b0382116108e4578190610ff2600e5461320b565b601f81116112a9575b50602090601f831160011461121f57600092611214575b50508160011b916000199060031b1c191617600e555b86516001600160401b0381116108e457611043600f5461320b565b601f81116111c5575b506020601f821160011461113a57918186949392859360ff9b60009261112f575b50508160011b916000199060031b1c191617600f555b816bffffffffffffffffffffffff60a01b9716876010541617601055610104356016556101243560175516856007541617600755168360095416176009551690600854161760085560401c16156110d657005b68ff00000000000000001960008051602061383e833981519152541660008051602061383e833981519152557fc7f505b2f371ae2175ee4913f4499e1f2633a7b5936321eed1cdaeb6115181d2602060405160018152a1005b015190508b8061106d565b601f19821698600f6000527f8d1108e10bcb7c27dddfc02ed9d693a074039d026cf4ea4240b40f7d581ac8029960005b8181106111ad57509260ff9a8896959360019383899710611194575b505050811b01600f55611083565b015160001960f88460031b161c191690558b8080611186565b838301518c556001909b019a6020938401930161116a565b61120e90600f6000527f8d1108e10bcb7c27dddfc02ed9d693a074039d026cf4ea4240b40f7d581ac802601f840160051c810191602085106108da57601f0160051c0190613600565b8861104c565b015190508980611012565b9250600e6000527fbb7b4a454dc3493923482f07822329ed19e8244eff582cc204f8554c3620c3fd906000935b601f198416851061128e576001945083601f19811610611275575b505050811b01600e55611028565b015160001960f88460031b161c19169055898080611267565b8181015183556020948501946001909301929091019061124c565b6112f290600e6000527fbb7b4a454dc3493923482f07822329ed19e8244eff582cc204f8554c3620c3fd601f850160051c810191602086106108da57601f0160051c0190613600565b8a610ffb565b80518051906001600160401b0382116108e457611315865461320b565b601f81116113da575b50602090601f831160011461136b579282600194936020938695600092611360575b5050600019600383901b1c191690841b1787555b01940191019092610fc9565b015190503880611340565b9086600052806000209160005b601f19851681106113c2575083602093600196938796938794601f198116106113a9575b505050811b018755611354565b015160001960f88460031b161c1916905538808061139c565b91926020600181928685015181550194019201611378565b611407908760005260206000206005601f8601811c8201926020871061140d575b601f01901c0190613600565b8e61131e565b91925082916113fb565b600d6000526000805160206137de833981519152908382015b8183018110611440575050610fab565b8061144d6001925461320b565b8061145a575b5001611430565b601f811183146114705750600081555b8e611453565b60009082825261148e601f60208420920160051c8201858301613600565b8183555561146a565b80518051906001600160401b0382116108e4576114b4865461320b565b601f8111611579575b50602090601f831160011461150a5792826001949360209386956000926114ff575b5050600019600383901b1c191690841b1787555b01940191019092610f83565b0151905038806114df565b9086600052806000209160005b601f1985168110611561575083602093600196938796938794601f19811610611548575b505050811b0187556114f3565b015160001960f88460031b161c1916905538808061153b565b91926020600181928685015181550194019201611517565b6115a5908760005260206000206005601f8601811c8201926020871061140d57601f01901c0190613600565b8f6114bd565b600c60005260008051602061379e833981519152908382015b81830181106115d4575050610f65565b806115e16001925461320b565b806115ee575b50016115c4565b601f811183146116045750600081555b8f6115e7565b600090828252611622601f60208420920160051c8201858301613600565b818355556115fe565b015190508c80610f32565b9250600b6000527f0175b7a638427703f0dbe7bb9bbf987a2551717b34e79f33b5b1008d1fa01db9906000935b601f19841685106116a5576001945083601f1981161061168c575b505050811b01600b55610f48565b015160001960f88460031b161c191690558c808061167e565b81810151835560209485019460019093019290910190611663565b61170990600b6000527f0175b7a638427703f0dbe7bb9bbf987a2551717b34e79f33b5b1008d1fa01db9601f850160051c810191602086106108da57601f0160051c0190613600565b8d610f1b565b68ffffffffffffffffff198a16680100000000000000011760008051602061383e83398151915255610ea9565b60405163f92ee8a960e01b8152600490fd5b9050158c610e79565b303b159150610e71565b5060ff8a60401c1615610e5d565b3461024f57600036600319011261024f576000805160206137be833981519152546040516001600160a01b039091168152602090f35b3461024f57602036600319011261024f57600435600c5481101561024f57610ce461040391600c60005260008051602061379e8339815191520161329d565b3461024f57600036600319011261024f576117fd613553565b611805613646565b6000805160206137fe833981519152600160ff198254161790557f62e78cea01bee320cd4e420270b5ea74000d11b0c9f74754ebdbfc544b05a2586020604051338152a1005b3461024f57600036600319011261024f576040516000600e5461186d8161320b565b808452906001908181169081156118f25750600114611897575b61040384610ce48186038261327c565b600e600090815292507fbb7b4a454dc3493923482f07822329ed19e8244eff582cc204f8554c3620c3fd5b8284106118da575050508101602001610ce482611887565b805460208587018101919091529093019281016118c2565b60ff191660208087019190915292151560051b85019092019250610ce49150839050611887565b3461024f57600036600319011261024f57611932613553565b6000805160206137be83398151915280546001600160a01b031981169091556000906001600160a01b03167f8be0079c531659141344cd1fd0a4f28419497f9722a3daafe3b4186f6b6457e08280a3005b3461024f57600036600319011261024f576013546119a0816134bc565b906119ae604051928361327c565b808252601f196119bd826134bc565b0160005b818110611b77575050600190815b81811115611aab57505090604051928392602080850190808652845180925260408601938160408460051b8901019601946000915b848310611a115788880389f35b9193959750919384808298603f198c82030186528a519081518152611a58611a46848401516101208087860152840190613343565b60408401518382036040850152613343565b91606080820151908301526080808201519083015260a0808201519083015260c0808201519083015286810151151587830152610100809101511515910152990193019301909288979694929593611a04565b806000526002906020828152604060002090600019830190838211611b61576007611b5693611afe611b5c9760405194611ae486613245565b83548652611af38c850161329d565b90860152820161329d565b60408401526003810154606084015260048101546080840152600581015460a0840152600681015460c0840152015460ff9081811615158b84015260081c161515610100820152611b4f8289613757565b5286613757565b506136fc565b6119cf565b634e487b7160e01b600052601160045260246000fd5b602090604051611b8681613245565b60008152606060008491808385015280604085015283015260006080830152600060a0830152600060c083015260008883015260006101008301528287010152016119c1565b3461024f57600036600319011261024f57602060ff6000805160206137fe83398151915254166040519015158152f35b3461024f5760a036600319011261024f576004356001600160401b03811161024f57611c2c903690600401613383565b6024356001600160401b03811161024f57611c4b903690600401613383565b906044356001600160401b03811161024f57611c6b903690600401613383565b6064356001600160401b03811161024f57611c8a903690600401613383565b9260843590811515820361024f57611ca0613553565b611cab6014546136fc565b8060145560405195611cbc87613261565b8187526020870192868452604088015284606088015260808701524260a087015282151560c0870152600052600360205260406000209085518255518051906001600160401b0382116108e4578190611d18600185015461320b565b601f81116121ab575b50602090601f83116001146121395760009261212e575b50508160011b916000199060031b1c19161760018201555b60408501518051906001600160401b0382116108e4578190611d75600285015461320b565b601f81116120f9575b50602090601f83116001146120875760009261207c575b50508160011b916000199060031b1c19161760028201555b60608501518051906001600160401b0382116108e4578190611dd2600385015461320b565b601f8111612047575b50602090601f8311600114611fd557600092611fca575b50508160011b916000199060031b1c19161760038201555b60808501519485516001600160401b0381116108e457611e2d600484015461320b565b601f8111611f95575b506020601f8211600114611efc57611eb393928260069360c0937f9717528dfbb6d18807789c321345d01b92542e05f09ba778920f6cd65249706c9b600092611ef1575b50508160011b916000199060031b1c19161760048501555b60a081015160058501550151151591019060ff801983541691151516179055565b611ee460145492611ed66040519586958652608060208701526080860190613343565b908482036040860152613343565b90151560608301520390a1005b015190508b80611e7a565b6004840160005260206000209760005b601f1984168110611f7d5750926001837f9717528dfbb6d18807789c321345d01b92542e05f09ba778920f6cd65249706c9a60c094611eb39897600697601f19811610611f64575b505050811b016004850155611e92565b015160001960f88460031b161c191690558b8080611f54565b828201518a5560019099019860209283019201611f0c565b611fc490600485016000526020600020601f840160051c810191602085106108da57601f0160051c0190613600565b87611e36565b015190508780611df2565b9250600384016000526020600020906000935b601f198416851061202c576001945083601f19811610612013575b505050811b016003820155611e0a565b015160001960f88460031b161c19169055878080612003565b81810151835560209485019460019093019290910190611fe8565b61207690600386016000526020600020601f850160051c810191602086106108da57601f0160051c0190613600565b88611ddb565b015190508780611d95565b9250600284016000526020600020906000935b601f19841685106120de576001945083601f198116106120c5575b505050811b016002820155611dad565b015160001960f88460031b161c191690558780806120b5565b8181015183556020948501946001909301929091019061209a565b61212890600286016000526020600020601f850160051c810191602086106108da57601f0160051c0190613600565b88611d7e565b015190508780611d38565b9250600184016000526020600020906000935b601f1984168510612190576001945083601f19811610612177575b505050811b016001820155611d50565b015160001960f88460031b161c19169055878080612167565b8181015183556020948501946001909301929091019061214c565b6121da90600186016000526020600020601f850160051c810191602086106108da57601f0160051c0190613600565b88611d21565b3461024f57600036600319011261024f5760405160408101908082106001600160401b038311176108e4576104039160405260058152640312e302e360dc1b6020820152604051918291602083526020830190613343565b3461024f57600036600319011261024f576040516000600f5461225a8161320b565b808452906001908181169081156118f257506001146122835761040384610ce48186038261327c565b600f600090815292507f8d1108e10bcb7c27dddfc02ed9d693a074039d026cf4ea4240b40f7d581ac8025b8284106122c6575050508101602001610ce482611887565b805460208587018101919091529093019281016122ae565b3461024f57600036600319011261024f5760a0601154601254601654601754916040519384526020840152604083015280606083015242106080820152f35b3461024f57600036600319011261024f57600d5461233a816134bc565b90612348604051928361327c565b808252602090818301600d6000526000805160206137de833981519152836000925b84841061238457604051828152806104038185018a6133d9565b60019182916123928561329d565b815201920192019190849061236a565b3461024f57604036600319011261024f576001600160a01b036123c36134a6565b1660005260056020526040600020602435600052602052602060ff604060002054166040519015158152f35b3461024f57600036600319011261024f576020601654604051908152f35b3461024f57600036600319011261024f57600a5460005260016020526020604060002054604051908152f35b3461024f57600036600319011261024f57612452613553565b6000805160206137fe833981519152805460ff81161561249e5760ff191690557f5db9ee0a495bf2e6ff9c91a7834c1ba4fdd244a5e8aa4e537bd38aeae4b073aa6020604051338152a1005b604051638dfc202b60e01b8152600490fd5b3461024f57600036600319011261024f576007546040516001600160a01b039091168152602090f35b3461024f57600036600319011261024f576010546040516001600160a01b039091168152602090f35b3461024f57602036600319011261024f5760043561251e613553565b60175481111561252d57601755005b60405162461bcd60e51b815260206004820152601a60248201527f4e657720646561646c696e65206d757374206265206c617465720000000000006044820152606490fd5b3461024f57600036600319011261024f5761258b613553565b612593613671565b6007546040516370a0823160e01b8152306004820152906020906001600160a01b039081168284602481845afa9384156126a0576000946126e8575b5083156126ac578160105416604051908482019063a9059cbb60e01b825260248301528560448301526044825260808201908282106001600160401b038311176108e4578592600092604052519082855af1156126a0576000513d6126975750803b155b61267f577f8353ffcac0876ad14e226d9783c04540bfebf13871e868157d2a391cad98e918604085858560075416908351928352820152a1600160008051602061381e83398151915255005b60249060405190635274afe760e01b82526004820152fd5b60011415612633565b6040513d6000823e3d90fd5b60405162461bcd60e51b81526004810184905260146024820152734e6f2066756e647320746f20776974686472617760601b6044820152606490fd5b9093508281813d8311612710575b612700818361327c565b8101031261024f575192846125cf565b503d6126f6565b3461024f57600036600319011261024f576020601754604051908152f35b3461024f57600036600319011261024f576020601554604051908152f35b3461024f57602036600319011261024f5761276c6134a6565b612774613553565b6001600160a01b031680156127a0576bffffffffffffffffffffffff60a01b6010541617601055600080f35b60405162461bcd60e51b815260206004820152600f60248201526e496e76616c6964206164647265737360881b6044820152606490fd5b3461024f57600036600319011261024f5733600052602060008152604060002054906128028261376b565b9061280c8361376b565b906128168461376b565b91612820856134bc565b9461282e604051968761327c565b808652601f1961283d826134bc565b018360005b82811061290d5750505060005b818110612897576103da86610403896128898961287b8a8a60405198899860808a5260808a0190613435565b908582036040870152613469565b9083820360608501526133d9565b6129089033600052600085526128f360036128b68360406000206136a1565b5080546128c3858c613757565b5260018101546128d38589613757565b5260028101546001600160a01b03166128ec858b613757565b520161329d565b6128fd828a613757565b52611b568189613757565b61284f565b606082828b010152018490612842565b3461024f57600036600319011261024f57600c5461293a816134bc565b90612948604051928361327c565b808252602090818301600c60005260008051602061379e833981519152836000925b84841061298457604051828152806104038185018a6133d9565b60019182916129928561329d565b815201920192019190849061296a565b3461024f57600036600319011261024f576014546129bf816134bc565b906129cd604051928361327c565b808252601f196129dc826134bc565b0160005b818110612b6b575050600190815b81811115612acb57505090604051928392602080850190808652845180925260408601938160408460051b8901019601946000915b848310612a305788880389f35b9193959750919384808298603f198c82030186528a519081518152612aa1612a8e612a7b612a69868601518a888701528a860190613343565b60408601518582036040870152613343565b6060808601519085830390860152613343565b6080808501519084830390850152613343565b9160a0808201519083015260c0809101511515910152990193019301909288979694929593612a23565b80600052600390602091808352604060002092600019830190838211611b615760ff6006612b6696612b32611b569660405195612b0787613261565b83548752612b168d850161329d565b90870152612b266002840161329d565b6040870152820161329d565b6060850152612b436004820161329d565b6080850152600581015460a0850152015416151560c0820152611b4f8289613757565b6129ee565b602090604051612b7a81613261565b6000815260608390808284015280604084015280808401526080830152600060a0830152600060c08301528287010152016129e0565b3461024f57600036600319011261024f576020601254604051908152f35b3461024f57602036600319011261024f57600435612bea613553565b80600052600260205260406000206007810191825491612c0f60ff8460081c1661370b565b60ff8316612c95576006600482015491015411612c5d577f712ae1383f79ac853f8d882153778e0260ef8f03b504e2866e0593e04d2b291f92600160209360ff1916179055604051908152a1005b60405162461bcd60e51b815260206004820152601060248201526f4e6f7420656e6f75676820766f74657360801b6044820152606490fd5b60405162461bcd60e51b815260206004820152601060248201526f105b1c9958591e48195e1958dd5d195960821b6044820152606490fd5b3461024f57606036600319011261024f576004356001600160401b03811161024f57612cfd903690600401613383565b6024356001600160401b03811161024f57612d1c903690600401613383565b91612d25613553565b612d306013546136fc565b928360135560405193612d4285613245565b8085526020850191848352604086015242606086015260006080860152600060a086015260443560c08601526000838601526001610100860152600052600260205260406000209084518255518051906001600160401b0382116108e4578190612daf600185015461320b565b601f811161304d575b50602090601f8311600114612fdb57600092612fd0575b50508160011b916000199060031b1c19161760018201555b60408401518051906001600160401b0382116108e457612e0a600284015461320b565b601f8111612f9b575b50602090601f8311600114612f005761010093837ff5dc0da9afa6d080780a49fd8c680f03d2ddf3c067cd6d0c85360c096644d2d39894612eb294600794600092612ef5575b50508160011b916000199060031b1c19161760028201555b606084015160038201556080840151600482015560a0840151600582015560c0840151600682015501938201511515849060ff801983541691151516179055565b0151151561ff0082549160081b169061ff001916179055601354612ee86040519283928352606060208401526060830190613343565b60443560408301520390a1005b015190508a80612e59565b906002840160005260206000209160005b601f1985168110612f83575093600184612eb294600794610100987ff5dc0da9afa6d080780a49fd8c680f03d2ddf3c067cd6d0c85360c096644d2d39c98601f19811610612f6a575b505050811b016002820155612e71565b015160001960f88460031b161c191690558a8080612f5a565b91926020600181928685015181550194019201612f11565b612fca90600285016000526020600020601f850160051c810191602086106108da57601f0160051c0190613600565b86612e13565b015190508680612dcf565b9250600184016000526020600020906000935b601f1984168510613032576001945083601f19811610613019575b505050811b016001820155612de7565b015160001960f88460031b161c19169055868080613009565b81810151835560209485019460019093019290910190612fee565b61307c90600186016000526020600020601f850160051c810191602086106108da57601f0160051c0190613600565b87612db8565b3461024f57600036600319011261024f576040516000600b546130a48161320b565b808452906001908181169081156118f257506001146130cd5761040384610ce48186038261327c565b600b600090815292507f0175b7a638427703f0dbe7bb9bbf987a2551717b34e79f33b5b1008d1fa01db95b828410613110575050508101602001610ce482611887565b805460208587018101919091529093019281016130f8565b3461024f57600036600319011261024f573360005260006020526020604060002054604051908152f35b3461024f57602036600319011261024f576004356000526002602052604060002080549060ff6131846001830161329d565b936131916002840161329d565b9060038401549360048101546005820154906131dd60076006850154940154956131cf6040519b8c9b8c5260208c61012091829101528c0190613343565b908a820360408c0152613343565b966060890152608088015260a087015260c086015282821615159085015260081c1615156101008301520390f35b90600182811c9216801561323b575b602083101461322557565b634e487b7160e01b600052602260045260246000fd5b91607f169161321a565b61012081019081106001600160401b038211176108e457604052565b60e081019081106001600160401b038211176108e457604052565b90601f801991011681019081106001600160401b038211176108e457604052565b90604051918260008254926132b18461320b565b90818452600194858116908160001461332057506001146132dd575b50506132db9250038361327c565b565b9093915060005260209081600020936000915b8183106133085750506132db935082010138806132cd565b855488840185015294850194879450918301916132f0565b9150506132db94506020925060ff191682840152151560051b82010138806132cd565b919082519283825260005b84811061336f575050826000602080949584010152601f8019910116010190565b60208183018101518483018201520161334e565b81601f8201121561024f578035906001600160401b0382116108e457604051926133b7601f8401601f19166020018561327c565b8284526020838301011161024f57816000926020809301838601378301015290565b908082519081815260208091019281808460051b8301019501936000915b8483106134075750505050505090565b9091929394958480613425600193601f198682030187528a51613343565b98019301930191949392906133f7565b90815180825260208080930193019160005b828110613455575050505090565b835185529381019392810192600101613447565b90815180825260208080930193019160005b828110613489575050505090565b83516001600160a01b03168552938101939281019260010161347b565b600435906001600160a01b038216820361024f57565b6001600160401b0381116108e45760051b60200190565b9080601f8301121561024f578135906134eb826134bc565b926134f9604051948561327c565b828452602092838086019160051b8301019280841161024f57848301915b8483106135275750505050505090565b82356001600160401b03811161024f57869161354884848094890101613383565b815201920191613517565b6000805160206137be833981519152546001600160a01b0316330361357457565b60405163118cdaa760e01b8152336004820152602490fd5b6001600160a01b039081169081156135e7576000805160206137be83398151915280546001600160a01b031981168417909155167f8be0079c531659141344cd1fd0a4f28419497f9722a3daafe3b4186f6b6457e0600080a3565b604051631e4fbdf760e01b815260006004820152602490fd5b81811061360b575050565b60008155600101613600565b60ff60008051602061383e8339815191525460401c161561363457565b604051631afcd79f60e31b8152600490fd5b60ff6000805160206137fe833981519152541661365f57565b60405163d93c066560e01b8152600490fd5b60008051602061381e833981519152600281541461368f5760029055565b604051633ee5aeb560e01b8152600490fd5b80548210156136bd5760005260206000209060021b0190600090565b634e487b7160e01b600052603260045260246000fd5b80548210156136bd576000526005602060002091020190600090565b91908201809211611b6157565b6000198114611b615760010190565b1561371257565b60405162461bcd60e51b815260206004820152601760248201527f50726f706f73616c20646f6573206e6f742065786973740000000000000000006044820152606490fd5b80518210156136bd5760209160051b010190565b90613775826134bc565b613782604051918261327c565b8281528092613793601f19916134bc565b019060203691013756fedf6966c971051c3d54ec59162606531493a51404a002842f56009d7e5cf4a8c79016d09d72d40fdae2fd8ceac6b6234c7706214fd39c1cd1e609a0528c199300d7b6990105719101dabeb77144f2a3385c8033acd3af97e9423a695e81ad1eb5cd5ed15c6e187e77e9aee88184c21f4f2182ab5827cb3b7e07fbedcd63f033009b779b17422d0df92223018b32b4d1fa46e071723d6817e2486d003becc55f00f0c57e16840df040f15088dc2f81fe391c3923bec73e23a9662efc9c229c6a00a26469706673582212207ab9c458ef7177de85c237b5e967569a2a2ce0a9e709c980a5578a8e716c753864736f6c63430008140033",
  "linkReferences": {},
  "deployedLinkReferences": {}
}