{
  "_format": "hh-sol-artifact-1",
  "contractName": "FundBraveBridge",
  "sourceName": "contracts/FundBraveBridge.sol",
  "abi": [
    {
      "inputs": [
        {
          "internalType": "address",
          "name": "_endpoint",
          "type": "address"
        },
        {
          "internalType": "address",
          "name": "_swapAdapter",
          "type": "address"
        },
        {
          "internalType": "address",
          "name": "_usdcToken",
          "type": "address"
        },
        {
          "internalType": "address",
          "name": "_localFundraiserFactory",
          "type": "address"
        },
        {
          "internalType": "address",
          "name": "_owner",
          "type": "address"
        }
      ],
      "stateMutability": "nonpayable",
      "type": "constructor"
    },
    {
      "inputs": [],
      "name": "InvalidDelegate",
      "type": "error"
    },
    {
      "inputs": [],
      "name": "InvalidEndpointCall",
      "type": "error"
    },
    {
      "inputs": [
        {
          "internalType": "uint16",
          "name": "optionType",
          "type": "uint16"
        }
      ],
      "name": "InvalidOptionType",
      "type": "error"
    },
    {
      "inputs": [],
      "name": "LzTokenUnavailable",
      "type": "error"
    },
    {
      "inputs": [
        {
          "internalType": "uint32",
          "name": "eid",
          "type": "uint32"
        }
      ],
      "name": "NoPeer",
      "type": "error"
    },
    {
      "inputs": [
        {
          "internalType": "uint256",
          "name": "msgValue",
          "type": "uint256"
        }
      ],
      "name": "NotEnoughNative",
      "type": "error"
    },
    {
      "inputs": [
        {
          "internalType": "address",
          "name": "addr",
          "type": "address"
        }
      ],
      "name": "OnlyEndpoint",
      "type": "error"
    },
    {
      "inputs": [
        {
          "internalType": "uint32",
          "name": "eid",
          "type": "uint32"
        },
        {
          "internalType": "bytes32",
          "name": "sender",
          "type": "bytes32"
        }
      ],
      "name": "OnlyPeer",
      "type": "error"
    },
    {
      "inputs": [
        {
          "internalType": "address",
          "name": "owner",
          "type": "address"
        }
      ],
      "name": "OwnableInvalidOwner",
      "type": "error"
    },
    {
      "inputs": [
        {
          "internalType": "address",
          "name": "account",
          "type": "address"
        }
      ],
      "name": "OwnableUnauthorizedAccount",
      "type": "error"
    },
    {
      "inputs": [],
      "name": "ReentrancyGuardReentrantCall",
      "type": "error"
    },
    {
      "inputs": [
        {
          "internalType": "uint8",
          "name": "bits",
          "type": "uint8"
        },
        {
          "internalType": "uint256",
          "name": "value",
          "type": "uint256"
        }
      ],
      "name": "SafeCastOverflowedUintDowncast",
      "type": "error"
    },
    {
      "inputs": [
        {
          "internalType": "address",
          "name": "token",
          "type": "address"
        }
      ],
      "name": "SafeERC20FailedOperation",
      "type": "error"
    },
    {
      "anonymous": false,
      "inputs": [
        {
          "indexed": true,
          "internalType": "uint32",
          "name": "srcEid",
          "type": "uint32"
        },
        {
          "indexed": true,
          "internalType": "address",
          "name": "donor",
          "type": "address"
        },
        {
          "indexed": false,
          "internalType": "uint256",
          "name": "amount",
          "type": "uint256"
        }
      ],
      "name": "CrossChainActionReceived",
      "type": "event"
    },
    {
      "anonymous": false,
      "inputs": [
        {
          "indexed": true,
          "internalType": "uint32",
          "name": "dstEid",
          "type": "uint32"
        },
        {
          "indexed": false,
          "internalType": "bytes32",
          "name": "guid",
          "type": "bytes32"
        },
        {
          "indexed": false,
          "internalType": "uint256",
          "name": "amountUSDC",
          "type": "uint256"
        },
        {
          "indexed": false,
          "internalType": "uint8",
          "name": "action",
          "type": "uint8"
        }
      ],
      "name": "CrossChainActionSent",
      "type": "event"
    },
    {
      "anonymous": false,
      "inputs": [
        {
          "indexed": true,
          "internalType": "address",
          "name": "token",
          "type": "address"
        },
        {
          "indexed": false,
          "internalType": "uint256",
          "name": "amount",
          "type": "uint256"
        },
        {
          "indexed": true,
          "internalType": "address",
          "name": "to",
          "type": "address"
        }
      ],
      "name": "EmergencyWithdraw",
      "type": "event"
    },
    {
      "anonymous": false,
      "inputs": [
        {
          "indexed": true,
          "internalType": "address",
          "name": "previousOwner",
          "type": "address"
        },
        {
          "indexed": true,
          "internalType": "address",
          "name": "newOwner",
          "type": "address"
        }
      ],
      "name": "OwnershipTransferred",
      "type": "event"
    },
    {
      "anonymous": false,
      "inputs": [
        {
          "indexed": true,
          "internalType": "uint32",
          "name": "eid",
          "type": "uint32"
        },
        {
          "indexed": false,
          "internalType": "address",
          "name": "factory",
          "type": "address"
        }
      ],
      "name": "PeerFactorySet",
      "type": "event"
    },
    {
      "anonymous": false,
      "inputs": [
        {
          "indexed": false,
          "internalType": "uint32",
          "name": "eid",
          "type": "uint32"
        },
        {
          "indexed": false,
          "internalType": "bytes32",
          "name": "peer",
          "type": "bytes32"
        }
      ],
      "name": "PeerSet",
      "type": "event"
    },
    {
      "inputs": [
        {
          "components": [
            {
              "internalType": "uint32",
              "name": "srcEid",
              "type": "uint32"
            },
            {
              "internalType": "bytes32",
              "name": "sender",
              "type": "bytes32"
            },
            {
              "internalType": "uint64",
              "name": "nonce",
              "type": "uint64"
            }
          ],
          "internalType": "struct Origin",
          "name": "origin",
          "type": "tuple"
        }
      ],
      "name": "allowInitializePath",
      "outputs": [
        {
          "internalType": "bool",
          "name": "",
          "type": "bool"
        }
      ],
      "stateMutability": "view",
      "type": "function"
    },
    {
      "inputs": [
        {
          "internalType": "address",
          "name": "_token",
          "type": "address"
        }
      ],
      "name": "emergencyWithdraw",
      "outputs": [],
      "stateMutability": "nonpayable",
      "type": "function"
    },
    {
      "inputs": [],
      "name": "endpoint",
      "outputs": [
        {
          "internalType": "contract ILayerZeroEndpointV2",
          "name": "",
          "type": "address"
        }
      ],
      "stateMutability": "view",
      "type": "function"
    },
    {
      "inputs": [
        {
          "components": [
            {
              "internalType": "uint32",
              "name": "srcEid",
              "type": "uint32"
            },
            {
              "internalType": "bytes32",
              "name": "sender",
              "type": "bytes32"
            },
            {
              "internalType": "uint64",
              "name": "nonce",
              "type": "uint64"
            }
          ],
          "internalType": "struct Origin",
          "name": "",
          "type": "tuple"
        },
        {
          "internalType": "bytes",
          "name": "",
          "type": "bytes"
        },
        {
          "internalType": "address",
          "name": "_sender",
          "type": "address"
        }
      ],
      "name": "isComposeMsgSender",
      "outputs": [
        {
          "internalType": "bool",
          "name": "",
          "type": "bool"
        }
      ],
      "stateMutability": "view",
      "type": "function"
    },
    {
      "inputs": [],
      "name": "localFundraiserFactory",
      "outputs": [
        {
          "internalType": "address",
          "name": "",
          "type": "address"
        }
      ],
      "stateMutability": "view",
      "type": "function"
    },
    {
      "inputs": [
        {
          "components": [
            {
              "internalType": "uint32",
              "name": "srcEid",
              "type": "uint32"
            },
            {
              "internalType": "bytes32",
              "name": "sender",
              "type": "bytes32"
            },
            {
              "internalType": "uint64",
              "name": "nonce",
              "type": "uint64"
            }
          ],
          "internalType": "struct Origin",
          "name": "_origin",
          "type": "tuple"
        },
        {
          "internalType": "bytes32",
          "name": "_guid",
          "type": "bytes32"
        },
        {
          "internalType": "bytes",
          "name": "_message",
          "type": "bytes"
        },
        {
          "internalType": "address",
          "name": "_executor",
          "type": "address"
        },
        {
          "internalType": "bytes",
          "name": "_extraData",
          "type": "bytes"
        }
      ],
      "name": "lzReceive",
      "outputs": [],
      "stateMutability": "payable",
      "type": "function"
    },
    {
      "inputs": [
        {
          "internalType": "uint32",
          "name": "",
          "type": "uint32"
        },
        {
          "internalType": "bytes32",
          "name": "",
          "type": "bytes32"
        }
      ],
      "name": "nextNonce",
      "outputs": [
        {
          "internalType": "uint64",
          "name": "nonce",
          "type": "uint64"
        }
      ],
      "stateMutability": "view",
      "type": "function"
    },
    {
      "inputs": [],
      "name": "oAppVersion",
      "outputs": [
        {
          "internalType": "uint64",
          "name": "senderVersion",
          "type": "uint64"
        },
        {
          "internalType": "uint64",
          "name": "receiverVersion",
          "type": "uint64"
        }
      ],
      "stateMutability": "pure",
      "type": "function"
    },
    {
      "inputs": [],
      "name": "owner",
      "outputs": [
        {
          "internalType": "address",
          "name": "",
          "type": "address"
        }
      ],
      "stateMutability": "view",
      "type": "function"
    },
    {
      "inputs": [
        {
          "internalType": "uint32",
          "name": "",
          "type": "uint32"
        }
      ],
      "name": "peerFactories",
      "outputs": [
        {
          "internalType": "address",
          "name": "",
          "type": "address"
        }
      ],
      "stateMutability": "view",
      "type": "function"
    },
    {
      "inputs": [
        {
          "internalType": "uint32",
          "name": "eid",
          "type": "uint32"
        }
      ],
      "name": "peers",
      "outputs": [
        {
          "internalType": "bytes32",
          "name": "peer",
          "type": "bytes32"
        }
      ],
      "stateMutability": "view",
      "type": "function"
    },
    {
      "inputs": [
        {
          "internalType": "uint32",
          "name": "_dstEid",
          "type": "uint32"
        },
        {
          "internalType": "uint256",
          "name": "_fundraiserId",
          "type": "uint256"
        },
        {
          "internalType": "uint8",
          "name": "_action",
          "type": "uint8"
        },
        {
          "internalType": "uint256",
          "name": "_usdcAmount",
          "type": "uint256"
        }
      ],
      "name": "quoteCrossChainAction",
      "outputs": [
        {
          "internalType": "uint256",
          "name": "nativeFee",
          "type": "uint256"
        },
        {
          "internalType": "uint256",
          "name": "lzTokenFee",
          "type": "uint256"
        }
      ],
      "stateMutability": "view",
      "type": "function"
    },
    {
      "inputs": [],
      "name": "renounceOwnership",
      "outputs": [],
      "stateMutability": "nonpayable",
      "type": "function"
    },
    {
      "inputs": [
        {
          "internalType": "uint32",
          "name": "_dstEid",
          "type": "uint32"
        },
        {
          "internalType": "uint256",
          "name": "_fundraiserId",
          "type": "uint256"
        },
        {
          "internalType": "uint8",
          "name": "_action",
          "type": "uint8"
        },
        {
          "internalType": "address",
          "name": "_tokenIn",
          "type": "address"
        },
        {
          "internalType": "uint256",
          "name": "_amountIn",
          "type": "uint256"
        }
      ],
      "name": "sendCrossChainAction",
      "outputs": [],
      "stateMutability": "payable",
      "type": "function"
    },
    {
      "inputs": [
        {
          "internalType": "address",
          "name": "_delegate",
          "type": "address"
        }
      ],
      "name": "setDelegate",
      "outputs": [],
      "stateMutability": "nonpayable",
      "type": "function"
    },
    {
      "inputs": [
        {
          "internalType": "uint32",
          "name": "_eid",
          "type": "uint32"
        },
        {
          "internalType": "bytes32",
          "name": "_peer",
          "type": "bytes32"
        }
      ],
      "name": "setPeer",
      "outputs": [],
      "stateMutability": "nonpayable",
      "type": "function"
    },
    {
      "inputs": [
        {
          "internalType": "uint32",
          "name": "_eid",
          "type": "uint32"
        },
        {
          "internalType": "address",
          "name": "_factory",
          "type": "address"
        }
      ],
      "name": "setPeerFactory",
      "outputs": [],
      "stateMutability": "nonpayable",
      "type": "function"
    },
    {
      "inputs": [],
      "name": "swapAdapter",
      "outputs": [
        {
          "internalType": "contract ISwapAdapter",
          "name": "",
          "type": "address"
        }
      ],
      "stateMutability": "view",
      "type": "function"
    },
    {
      "inputs": [],
      "name": "totalCrossChainTx",
      "outputs": [
        {
          "internalType": "uint256",
          "name": "",
          "type": "uint256"
        }
      ],
      "stateMutability": "view",
      "type": "function"
    },
    {
      "inputs": [],
      "name": "totalCrossChainVolumeUSDC",
      "outputs": [
        {
          "internalType": "uint256",
          "name": "",
          "type": "uint256"
        }
      ],
      "stateMutability": "view",
      "type": "function"
    },
    {
      "inputs": [
        {
          "internalType": "address",
          "name": "newOwner",
          "type": "address"
        }
      ],
      "name": "transferOwnership",
      "outputs": [],
      "stateMutability": "nonpayable",
      "type": "function"
    },
    {
      "inputs": [],
      "name": "usdcToken",
      "outputs": [
        {
          "internalType": "contract IERC20",
          "name": "",
          "type": "address"
        }
      ],
      "stateMutability": "view",
      "type": "function"
    },
    {
      "stateMutability": "payable",
      "type": "receive"
    }
  ],
  "bytecode": "0x610100346200026457601f62001c4b38819003918201601f1916830192916001600160401b03918285118486101762000269578160a09285926040978852833981010312620002645760809062000056836200027f565b9062000065602085016200027f565b90620000738686016200027f565b9262000082606087016200027f565b956001600160a01b039586916200009a91016200027f565b169081156200024c57600080546001600160a01b031981168417825590918791849083167f8be0079c531659141344cd1fd0a4f28419497f9722a3daafe3b4186f6b6457e08580a3169283608052833b15620002485788519263ca5eb5e160e01b84526004840152818360248183885af180156200023e5762000217575b505050600160025515620001e05782168015620001aa5760a0521660c05260e052516119b69081620002958239608051818181610274015281816103e0015281816107c8015281816110d80152818161123601526112e2015260a05181818161061d0152610aa7015260c05181818161019101528181610967015261175e015260e051818181610b8f01526117e40152f35b845162461bcd60e51b815260206004820152600f60248201526e24b73b30b634b21020b230b83a32b960891b6044820152606490fd5b845162461bcd60e51b815260206004820152601060248201526f125b9d985b1a5908115b991c1bda5b9d60821b6044820152606490fd5b82116200022a5750865238808062000118565b634e487b7160e01b81526041600452602490fd5b89513d84823e3d90fd5b5080fd5b8751631e4fbdf760e01b815260006004820152602490fd5b600080fd5b634e487b7160e01b600052604160045260246000fd5b51906001600160a01b0382168203620002645756fe6080604052600436101561001b575b361561001957600080fd5b005b60003560e01c806311eac8551461017b57806313137d651461017657806317442b70146101715780633400288b1461016c5780635e280f11146101675780636ff1c9bc14610162578063715018a61461015d57806377bb1eb9146101585780637d25a05e1461015357806382413eac1461014e5780638da5cb5b146101495780638f6afeeb14610144578063bb0b6a531461013f578063c834268a1461013a578063ca5eb5e114610135578063ca6f7b7114610130578063e8eebfce1461012b578063efa13af814610126578063efc65fed14610121578063f2fde38b1461011c578063f65dff3a146101175763ff7bd03d0361000e57610cd8565b610c4a565b610bbe565b610b79565b6108ff565b6108e1565b61084e565b610797565b610779565b61073e565b6106fb565b6106d2565b610673565b61064c565b610607565b6105a9565b61040f565b6103ca565b610343565b610313565b610215565b346101c05760003660031901126101c0576040517f00000000000000000000000000000000000000000000000000000000000000006001600160a01b03168152602090f35b600080fd5b60609060031901126101c057600490565b9181601f840112156101c05782359167ffffffffffffffff83116101c057602083818601950101116101c057565b6001600160a01b038116036101c057565b60e03660031901126101c05761022a366101c5565b67ffffffffffffffff6084358181116101c05761024b9036906004016101d6565b9161025760a435610204565b60c4359081116101c05761026f9036906004016101d6565b5050337f00000000000000000000000000000000000000000000000000000000000000006001600160a01b0316036102fb576102b26102ad84610db6565b610dc3565b9260208101358094036102c957610019935061172d565b6102d38491610db6565b60405163309afaf360e21b815263ffffffff9190911660048201526024810191909152604490fd5b6040516391ac5e4f60e01b8152336004820152602490fd5b346101c05760003660031901126101c057604080516001815260026020820152f35b63ffffffff8116036101c057565b346101c05760403660031901126101c0577f238399d427b947898edb290f5ff0f9109849b1c3ba196a42e35f00c50a54b98b60043561038181610335565b6024359061038d610dfb565b63ffffffff81166000526001602052816040600020556103c5604051928392836020909392919363ffffffff60408201951681520152565b0390a1005b346101c05760003660031901126101c0576040517f00000000000000000000000000000000000000000000000000000000000000006001600160a01b03168152602090f35b346101c05760203660031901126101c05760043561042c81610204565b610434610dfb565b6001600160a01b03908116806104d7575060008080808061046d610461610461835460018060a01b031690565b6001600160a01b031690565b47908282156104ce575bf1156104c957805447927faaeda929aa102e867049528ec7cd2499e3a2f8846e736ae7935f234dfbf500d9916104c491906001600160a01b03165b60405195865216939081906020820190565b0390a3005b610daa565b506108fc610477565b6040516370a0823160e01b815230600482015291602083602481855afa9283156104c957600093610553575b506000547faaeda929aa102e867049528ec7cd2499e3a2f8846e736ae7935f234dfbf500d9916104c4916105429086906001600160a01b0316866118f8565b6000546001600160a01b03166104b2565b7faaeda929aa102e867049528ec7cd2499e3a2f8846e736ae7935f234dfbf500d991935061059a6104c49160203d81116105a2575b6105928183610d88565b810190610e68565b939150610503565b503d610588565b346101c057600080600319360112610604576105c3610dfb565b80546001600160a01b03198116825581906001600160a01b03167f8be0079c531659141344cd1fd0a4f28419497f9722a3daafe3b4186f6b6457e08280a380f35b80fd5b346101c05760003660031901126101c0576040517f00000000000000000000000000000000000000000000000000000000000000006001600160a01b03168152602090f35b346101c05760403660031901126101c057610668600435610335565b602060405160008152f35b346101c05760a03660031901126101c05761068d366101c5565b5060643567ffffffffffffffff81116101c0576106ae9036906004016101d6565b505060206084356106be81610204565b6040516001600160a01b0390911630148152f35b346101c05760003660031901126101c0576000546040516001600160a01b039091168152602090f35b346101c05760203660031901126101c05763ffffffff60043561071d81610335565b166000526003602052602060018060a01b0360406000205416604051908152f35b346101c05760203660031901126101c05763ffffffff60043561076081610335565b1660005260016020526020604060002054604051908152f35b346101c05760003660031901126101c0576020600454604051908152f35b346101c05760006020366003190112610604576004356107b681610204565b6107be610dfb565b6001600160a01b037f0000000000000000000000000000000000000000000000000000000000000000811691839190833b1561083a5760249083604051958694859363ca5eb5e160e01b85521660048401525af180156104c957610820575080f35b67ffffffffffffffff81116108355760405280f35b610d1e565b8280fd5b6044359060ff821682036101c057565b346101c05760803660031901126101c05760406108ce60043561087081610335565b6108aa6108b861087e61083e565b8551336020820152602435604082015260ff9091166060820152606435608082015291829060a0820190565b03601f198101835282610d88565b6108c86108c361137d565b611397565b9161106d565b6020815191015182519182526020820152f35b346101c05760003660031901126101c0576020600554604051908152f35b60a03660031901126101c05760043561091781610335565b61091f61083e565b906064359061092d82610204565b608435916002805414610b675760028055610949831515610e27565b6001600160a01b039080821690610962853033856114a8565b6000927f000000000000000000000000000000000000000000000000000000000000000081168303610a96575050505063ffffffff90610a897f5f1f8e15e0c01574e723f7e26342c616128869a19d40cf4bbd6040a1d7dc494893945b6109ca861515610e77565b604080513360208201526024359181019190915260ff8216606082015260808101879052610a3c906109ff8160a081016108aa565b610a0a6108c361137d565b610a21610a1882848961106d565b51341015610ec3565b610a29610f0f565b90348252600060208301523392876111ad565b610a4f610a4a600454610f41565b600455565b610a63610a5e88600554610f55565b600555565b519560405194859416968491604091949360ff9160608501968552602085015216910152565b0390a26100196001600255565b918591610ace610b059695976020957f00000000000000000000000000000000000000000000000000000000000000001680946114ef565b604051635b96fcb360e11b81526001600160a01b039091166004820152602481019290925290938491908290879082906044820190565b03925af19283156104c9577f5f1f8e15e0c01574e723f7e26342c616128869a19d40cf4bbd6040a1d7dc49489363ffffffff93610a899291610b49575b50946109bf565b610b61915060203d81116105a2576105928183610d88565b38610b42565b604051633ee5aeb560e01b8152600490fd5b346101c05760003660031901126101c0576040517f00000000000000000000000000000000000000000000000000000000000000006001600160a01b03168152602090f35b346101c05760203660031901126101c057600435610bdb81610204565b610be3610dfb565b6001600160a01b039081168015610c3157600080546001600160a01b03198116831782559092167f8be0079c531659141344cd1fd0a4f28419497f9722a3daafe3b4186f6b6457e08380a380f35b604051631e4fbdf760e01b815260006004820152602490fd5b346101c05760403660031901126101c057600435610c6781610335565b7fc58f6dcac4d50d03e5d12790f8e646567c78b44d0159921a79997fef613a470e602063ffffffff60243593610c9c85610204565b610ca4610dfb565b1660008181526003835260409081902080546001600160a01b0319166001600160a01b0390961695861790555193845292a2005b346101c05760603660031901126101c0576020610cf4366101c5565b63ffffffff8135610d0481610335565b166000526001825260406000205482604051920135148152f35b634e487b7160e01b600052604160045260246000fd5b6040810190811067ffffffffffffffff82111761083557604052565b6060810190811067ffffffffffffffff82111761083557604052565b60a0810190811067ffffffffffffffff82111761083557604052565b90601f8019910116810190811067ffffffffffffffff82111761083557604052565b6040513d6000823e3d90fd5b35610dc081610335565b90565b63ffffffff16806000526001602052604060002054908115610de3575090565b6024906040519063f6ff4fb760e01b82526004820152fd5b6000546001600160a01b03163303610e0f57565b60405163118cdaa760e01b8152336004820152602490fd5b15610e2e57565b60405162461bcd60e51b81526020600482015260126024820152710416d6f756e74206d757374206265203e20360741b6044820152606490fd5b908160209103126101c0575190565b15610e7e57565b60405162461bcd60e51b815260206004820152601760248201527f5377617020726573756c74656420696e203020555344430000000000000000006044820152606490fd5b15610eca57565b60405162461bcd60e51b815260206004820152601e60248201527f496e73756666696369656e742067617320666f72204c617965725a65726f00006044820152606490fd5b60405190610f1c82610d34565b565b60405190610f1c82610d6c565b634e487b7160e01b600052601160045260246000fd5b6000198114610f505760010190565b610f2b565b91908201809211610f5057565b60405190610f6f82610d34565b60006020838281520152565b91908260409103126101c057604051610f9381610d34565b6020808294805184520151910152565b906040828203126101c057610dc091610f7b565b60005b838110610fca5750506000910152565b8181015183820152602001610fba565b90602091610ff381518092818552858086019101610fb7565b601f01601f1916010190565b906020909392936040835263ffffffff8151166040840152818101516060840152608061105361103d604084015160a08488015260e0870190610fda565b6060840151868203603f190160a0880152610fda565b910151151560c08401526001600160a01b03909416910152565b916110d4919261107b610f62565b5061108581610dc3565b9160409485936110a485519461109a86610d6c565b63ffffffff168552565b602084015283830152606082015260006080820152815180938192631bb8518b60e31b8352309060048401610fff565b03817f00000000000000000000000000000000000000000000000000000000000000006001600160a01b03165afa9182156104c95760009261111557505090565b610dc09250803d10611134575b61112c8183610d88565b810190610fa3565b503d611122565b6040519061114882610d50565b816000815260006020820152604061115e610f62565b910152565b6080818303126101c0576040519161117a83610d50565b81518352602082015167ffffffffffffffff811681036101c05760208401526111a591604001610f7b565b604082015290565b6112166080949261123296946111c161113b565b5060206111ce86516112a9565b95019182518061129a575b506111e385610dc3565b92511515926111ff6111f3610f1e565b63ffffffff9097168752565b602086015260408501526060840152151585830152565b6040518095819482936302637a4560e41b845260048401610fff565b03917f00000000000000000000000000000000000000000000000000000000000000006001600160a01b03165af19081156104c957600091611272575090565b610dc0915060803d8111611293575b61128b8183610d88565b810190611163565b503d611281565b6112a3906112cb565b386111d9565b8034036112b35790565b6040516304fb820960e51b8152346004820152602490fd5b60405163393f876560e21b81526001600160a01b037f000000000000000000000000000000000000000000000000000000000000000081169291602081600481875afa9081156104c957600091611343575b501691821561133157610f1c9233906114a8565b6040516329b99a9560e11b8152600490fd5b906020823d8211611375575b8161135c60209383610d88565b8101031261060457505161136f81610204565b3861131d565b3d915061134f565b604051600360f01b602082015260028152610dc081610d34565b61ffff906003826113a783611934565b160361144757604051610c3560861b602082015260108152906113c982610d34565b6003836113d583611934565b1603611425578151838111611406578316600101928311610f50576108aa610dc09260405194859360208501611453565b604490604051906306dfcc6560e41b8252601060048301526024820152fd5b82611431602492611934565b604051633a51740d60e01b815291166004820152fd5b90611431602492611934565b60209061146a600495949382815194859201610fb7565b600160f81b910181815260f09290921b6001600160f01b031916600183015260038201528151916114a390839085840190602001610fb7565b010190565b6040516323b872dd60e01b60208201526001600160a01b039283166024820152929091166044830152606480830193909352918152610f1c916114ea82610d6c565b6115c4565b60405163095ea7b360e01b60208083018281526001600160a01b038616602485015260448085019790975295835290949193601f1992909190600090611536606488610d88565b86519082875af16000513d8261159f575b505015611556575b5050505050565b60405160208101959095526001600160a01b031660248501526000604485015260649081018452611595936114ea9161158f9082610d88565b826115c4565b388080808061154f565b9091506115bc57506001600160a01b0383163b15155b3880611547565b6001146115b5565b906000602091828151910182855af115610daa576000513d61161757506001600160a01b0381163b155b6115f55750565b604051635274afe760e01b81526001600160a01b039091166004820152602490fd5b600114156115ee565b91908260809103126101c057813561163781610204565b91602081013591604082013560ff811681036101c057916060013590565b1561165c57565b60405162461bcd60e51b815260206004820152601d60248201527f42726964676520496e73756666696369656e74204c69717569646974790000006044820152606490fd5b3d156116dc573d9067ffffffffffffffff821161083557604051916116d0601f8201601f191660200184610d88565b82523d6000602084013e565b606090565b156116e857565b60405162461bcd60e51b815260206004820152601860248201527f466163746f727920657865637574696f6e206661696c656400000000000000006044820152606490fd5b919061173b91810190611620565b6040516370a0823160e01b81523060048201526001600160a01b039485169591947f0000000000000000000000000000000000000000000000000000000000000000949192906020908490602490829089165afa9384156104c9577fc102742d0f2d6bb25d4a16c0c73dcc17aed10839b60b706fc6925ee408d35b9c9588886118749561186f946117de8361188e9b61187d9b6000916118da575b501015611655565b61180a837f000000000000000000000000000000000000000000000000000000000000000080976114ef565b60009060ff16611893575060405163752f001b60e11b602082019081526001600160a01b0390941660248201526044810191909152606481019190915260009283929091839061185d81608481016108aa565b51925af16118696116a1565b506116e1565b610db6565b63ffffffff1690565b604051938452929081906020820190565b0390a3565b604051638f6a639160e01b602082019081526001600160a01b03909516602482015260448101929092526064820192909252909283929091839061185d81608481016108aa565b6118f2915060203d81116105a2576105928183610d88565b386117d6565b60405163a9059cbb60e01b60208201526001600160a01b03929092166024830152604480830193909352918152610f1c916114ea606483610d88565b6002815110611944576002015190565b60405162461bcd60e51b8152602060048201526014602482015273746f55696e7431365f6f75744f66426f756e647360601b6044820152606490fdfea264697066735822122064875ee7bc3c0c07592f1a7961fc82806d26b6a2213c7a63be3accc9e5eadc8364736f6c63430008140033",
  "linkReferences": {},
  "deployedLinkReferences": {}
}