{
  "_format": "hh-sol-artifact-1",
  "contractName": "FundraiserFactory",
  "sourceName": "contracts/FundraiserFactory.sol",
  "abi": [
    {
      "inputs": [
        {
          "internalType": "address",
          "name": "_fundraiserImplementation",
          "type": "address"
        },
        {
          "internalType": "address",
          "name": "_swapAdapter",
          "type": "address"
        },
        {
          "internalType": "address",
          "name": "_usdc",
          "type": "address"
        },
        {
          "internalType": "address",
          "name": "_weth",
          "type": "address"
        },
        {
          "internalType": "address",
          "name": "_platformFeeRecipient",
          "type": "address"
        },
        {
          "internalType": "address",
          "name": "_aavePool",
          "type": "address"
        },
        {
          "internalType": "address",
          "name": "_aUsdc",
          "type": "address"
        },
        {
          "internalType": "address",
          "name": "_morphoVault",
          "type": "address"
        },
        {
          "internalType": "uint8",
          "name": "_stakingPoolType",
          "type": "uint8"
        },
        {
          "internalType": "address",
          "name": "_worldId",
          "type": "address"
        },
        {
          "internalType": "string",
          "name": "_appId",
          "type": "string"
        },
        {
          "internalType": "string",
          "name": "_actionId",
          "type": "string"
        }
      ],
      "stateMutability": "nonpayable",
      "type": "constructor"
    },
    {
      "inputs": [],
      "name": "AccessControlBadConfirmation",
      "type": "error"
    },
    {
      "inputs": [
        {
          "internalType": "address",
          "name": "account",
          "type": "address"
        },
        {
          "internalType": "bytes32",
          "name": "neededRole",
          "type": "bytes32"
        }
      ],
      "name": "AccessControlUnauthorizedAccount",
      "type": "error"
    },
    {
      "inputs": [],
      "name": "EnforcedPause",
      "type": "error"
    },
    {
      "inputs": [],
      "name": "ExpectedPause",
      "type": "error"
    },
    {
      "inputs": [],
      "name": "FailedDeployment",
      "type": "error"
    },
    {
      "inputs": [
        {
          "internalType": "uint256",
          "name": "balance",
          "type": "uint256"
        },
        {
          "internalType": "uint256",
          "name": "needed",
          "type": "uint256"
        }
      ],
      "name": "InsufficientBalance",
      "type": "error"
    },
    {
      "inputs": [],
      "name": "ReentrancyGuardReentrantCall",
      "type": "error"
    },
    {
      "inputs": [
        {
          "internalType": "address",
          "name": "token",
          "type": "address"
        }
      ],
      "name": "SafeERC20FailedOperation",
      "type": "error"
    },
    {
      "anonymous": false,
      "inputs": [
        {
          "indexed": true,
          "internalType": "address",
          "name": "newBridge",
          "type": "address"
        }
      ],
      "name": "BridgeUpdated",
      "type": "event"
    },
    {
      "anonymous": false,
      "inputs": [
        {
          "indexed": false,
          "internalType": "string",
          "name": "category",
          "type": "string"
        }
      ],
      "name": "CategoryAdded",
      "type": "event"
    },
    {
      "anonymous": false,
      "inputs": [
        {
          "indexed": true,
          "internalType": "address",
          "name": "creator",
          "type": "address"
        }
      ],
      "name": "CreatorUnverified",
      "type": "event"
    },
    {
      "anonymous": false,
      "inputs": [
        {
          "indexed": true,
          "internalType": "address",
          "name": "creator",
          "type": "address"
        }
      ],
      "name": "CreatorVerified",
      "type": "event"
    },
    {
      "anonymous": false,
      "inputs": [
        {
          "indexed": true,
          "internalType": "address",
          "name": "fundraiser",
          "type": "address"
        },
        {
          "indexed": true,
          "internalType": "address",
          "name": "owner",
          "type": "address"
        },
        {
          "indexed": true,
          "internalType": "uint256",
          "name": "id",
          "type": "uint256"
        },
        {
          "indexed": false,
          "internalType": "string",
          "name": "name",
          "type": "string"
        },
        {
          "indexed": false,
          "internalType": "uint256",
          "name": "goal",
          "type": "uint256"
        },
        {
          "indexed": false,
          "internalType": "uint256",
          "name": "deadline",
          "type": "uint256"
        }
      ],
      "name": "FundraiserCreated",
      "type": "event"
    },
    {
      "anonymous": false,
      "inputs": [
        {
          "indexed": true,
          "internalType": "uint256",
          "name": "id",
          "type": "uint256"
        },
        {
          "indexed": true,
          "internalType": "address",
          "name": "fundraiser",
          "type": "address"
        }
      ],
      "name": "FundraiserDeactivated",
      "type": "event"
    },
    {
      "anonymous": false,
      "inputs": [
        {
          "indexed": false,
          "internalType": "address",
          "name": "account",
          "type": "address"
        }
      ],
      "name": "Paused",
      "type": "event"
    },
    {
      "anonymous": false,
      "inputs": [
        {
          "indexed": true,
          "internalType": "address",
          "name": "oldRecipient",
          "type": "address"
        },
        {
          "indexed": true,
          "internalType": "address",
          "name": "newRecipient",
          "type": "address"
        }
      ],
      "name": "PlatformFeeRecipientUpdated",
      "type": "event"
    },
    {
      "anonymous": false,
      "inputs": [
        {
          "indexed": true,
          "internalType": "bytes32",
          "name": "role",
          "type": "bytes32"
        },
        {
          "indexed": true,
          "internalType": "bytes32",
          "name": "previousAdminRole",
          "type": "bytes32"
        },
        {
          "indexed": true,
          "internalType": "bytes32",
          "name": "newAdminRole",
          "type": "bytes32"
        }
      ],
      "name": "RoleAdminChanged",
      "type": "event"
    },
    {
      "anonymous": false,
      "inputs": [
        {
          "indexed": true,
          "internalType": "bytes32",
          "name": "role",
          "type": "bytes32"
        },
        {
          "indexed": true,
          "internalType": "address",
          "name": "account",
          "type": "address"
        },
        {
          "indexed": true,
          "internalType": "address",
          "name": "sender",
          "type": "address"
        }
      ],
      "name": "RoleGranted",
      "type": "event"
    },
    {
      "anonymous": false,
      "inputs": [
        {
          "indexed": true,
          "internalType": "bytes32",
          "name": "role",
          "type": "bytes32"
        },
        {
          "indexed": true,
          "internalType": "address",
          "name": "account",
          "type": "address"
        },
        {
          "indexed": true,
          "internalType": "address",
          "name": "sender",
          "type": "address"
        }
      ],
      "name": "RoleRevoked",
      "type": "event"
    },
    {
      "anonymous": false,
      "inputs": [
        {
          "indexed": true,
          "internalType": "uint256",
          "name": "fundraiserId",
          "type": "uint256"
        },
        {
          "indexed": true,
          "internalType": "address",
          "name": "poolAddress",
          "type": "address"
        }
      ],
      "name": "StakingPoolCreated",
      "type": "event"
    },
    {
      "anonymous": false,
      "inputs": [
        {
          "indexed": false,
          "internalType": "address",
          "name": "account",
          "type": "address"
        }
      ],
      "name": "Unpaused",
      "type": "event"
    },
    {
      "inputs": [],
      "name": "AAVE_POOL",
      "outputs": [
        {
          "internalType": "address",
          "name": "",
          "type": "address"
        }
      ],
      "stateMutability": "view",
      "type": "function"
    },
    {
      "inputs": [],
      "name": "ADMIN_ROLE",
      "outputs": [
        {
          "internalType": "bytes32",
          "name": "",
          "type": "bytes32"
        }
      ],
      "stateMutability": "view",
      "type": "function"
    },
    {
      "inputs": [],
      "name": "A_USDC",
      "outputs": [
        {
          "internalType": "address",
          "name": "",
          "type": "address"
        }
      ],
      "stateMutability": "view",
      "type": "function"
    },
    {
      "inputs": [],
      "name": "DEFAULT_ADMIN_ROLE",
      "outputs": [
        {
          "internalType": "bytes32",
          "name": "",
          "type": "bytes32"
        }
      ],
      "stateMutability": "view",
      "type": "function"
    },
    {
      "inputs": [],
      "name": "MORPHO_VAULT",
      "outputs": [
        {
          "internalType": "address",
          "name": "",
          "type": "address"
        }
      ],
      "stateMutability": "view",
      "type": "function"
    },
    {
      "inputs": [],
      "name": "USDC",
      "outputs": [
        {
          "internalType": "address",
          "name": "",
          "type": "address"
        }
      ],
      "stateMutability": "view",
      "type": "function"
    },
    {
      "inputs": [],
      "name": "VERIFIED_CREATOR_ROLE",
      "outputs": [
        {
          "internalType": "bytes32",
          "name": "",
          "type": "bytes32"
        }
      ],
      "stateMutability": "view",
      "type": "function"
    },
    {
      "inputs": [],
      "name": "WETH",
      "outputs": [
        {
          "internalType": "address",
          "name": "",
          "type": "address"
        }
      ],
      "stateMutability": "view",
      "type": "function"
    },
    {
      "inputs": [],
      "name": "_activeFundraisers",
      "outputs": [
        {
          "internalType": "contract Fundraiser[]",
          "name": "",
          "type": "address[]"
        }
      ],
      "stateMutability": "view",
      "type": "function"
    },
    {
      "inputs": [],
      "name": "actionId",
      "outputs": [
        {
          "internalType": "uint256",
          "name": "",
          "type": "uint256"
        }
      ],
      "stateMutability": "view",
      "type": "function"
    },
    {
      "inputs": [],
      "name": "activeFundraiserCount",
      "outputs": [
        {
          "internalType": "uint256",
          "name": "",
          "type": "uint256"
        }
      ],
      "stateMutability": "view",
      "type": "function"
    },
    {
      "inputs": [
        {
          "internalType": "uint256",
          "name": "",
          "type": "uint256"
        }
      ],
      "name": "activeFundraisers",
      "outputs": [
        {
          "internalType": "bool",
          "name": "",
          "type": "bool"
        }
      ],
      "stateMutability": "view",
      "type": "function"
    },
    {
      "inputs": [
        {
          "internalType": "string",
          "name": "category",
          "type": "string"
        }
      ],
      "name": "addCategory",
      "outputs": [],
      "stateMutability": "nonpayable",
      "type": "function"
    },
    {
      "inputs": [],
      "name": "appId",
      "outputs": [
        {
          "internalType": "uint256",
          "name": "",
          "type": "uint256"
        }
      ],
      "stateMutability": "view",
      "type": "function"
    },
    {
      "inputs": [
        {
          "internalType": "uint256",
          "name": "",
          "type": "uint256"
        }
      ],
      "name": "availableCategories",
      "outputs": [
        {
          "internalType": "string",
          "name": "",
          "type": "string"
        }
      ],
      "stateMutability": "view",
      "type": "function"
    },
    {
      "inputs": [
        {
          "internalType": "string",
          "name": "name",
          "type": "string"
        },
        {
          "internalType": "string[]",
          "name": "images",
          "type": "string[]"
        },
        {
          "internalType": "string[]",
          "name": "categories",
          "type": "string[]"
        },
        {
          "internalType": "string",
          "name": "description",
          "type": "string"
        },
        {
          "internalType": "string",
          "name": "region",
          "type": "string"
        },
        {
          "internalType": "address payable",
          "name": "beneficiary",
          "type": "address"
        },
        {
          "internalType": "uint256",
          "name": "goal",
          "type": "uint256"
        },
        {
          "internalType": "uint256",
          "name": "durationInDays",
          "type": "uint256"
        },
        {
          "internalType": "uint256",
          "name": "root",
          "type": "uint256"
        },
        {
          "internalType": "uint256",
          "name": "nullifierHash",
          "type": "uint256"
        },
        {
          "internalType": "uint256[8]",
          "name": "proof",
          "type": "uint256[8]"
        }
      ],
      "name": "createFundraiser",
      "outputs": [
        {
          "internalType": "address",
          "name": "",
          "type": "address"
        }
      ],
      "stateMutability": "nonpayable",
      "type": "function"
    },
    {
      "inputs": [
        {
          "internalType": "string",
          "name": "name",
          "type": "string"
        },
        {
          "internalType": "string[]",
          "name": "images",
          "type": "string[]"
        },
        {
          "internalType": "string[]",
          "name": "categories",
          "type": "string[]"
        },
        {
          "internalType": "string",
          "name": "description",
          "type": "string"
        },
        {
          "internalType": "string",
          "name": "region",
          "type": "string"
        },
        {
          "internalType": "address payable",
          "name": "beneficiary",
          "type": "address"
        },
        {
          "internalType": "uint256",
          "name": "goal",
          "type": "uint256"
        },
        {
          "internalType": "uint256",
          "name": "durationInDays",
          "type": "uint256"
        }
      ],
      "name": "createVerifiedFundraiser",
      "outputs": [
        {
          "internalType": "address",
          "name": "",
          "type": "address"
        }
      ],
      "stateMutability": "nonpayable",
      "type": "function"
    },
    {
      "inputs": [],
      "name": "currentId",
      "outputs": [
        {
          "internalType": "uint256",
          "name": "",
          "type": "uint256"
        }
      ],
      "stateMutability": "view",
      "type": "function"
    },
    {
      "inputs": [
        {
          "internalType": "uint256",
          "name": "id",
          "type": "uint256"
        }
      ],
      "name": "deactivateFundraiser",
      "outputs": [],
      "stateMutability": "nonpayable",
      "type": "function"
    },
    {
      "inputs": [
        {
          "internalType": "uint256",
          "name": "fundraiserId",
          "type": "uint256"
        },
        {
          "internalType": "address",
          "name": "token",
          "type": "address"
        },
        {
          "internalType": "uint256",
          "name": "amount",
          "type": "uint256"
        }
      ],
      "name": "donateERC20",
      "outputs": [],
      "stateMutability": "nonpayable",
      "type": "function"
    },
    {
      "inputs": [
        {
          "internalType": "uint256",
          "name": "fundraiserId",
          "type": "uint256"
        }
      ],
      "name": "donateNative",
      "outputs": [],
      "stateMutability": "payable",
      "type": "function"
    },
    {
      "inputs": [],
      "name": "fundBraveBridge",
      "outputs": [
        {
          "internalType": "address",
          "name": "",
          "type": "address"
        }
      ],
      "stateMutability": "view",
      "type": "function"
    },
    {
      "inputs": [],
      "name": "fundraiserImplementation",
      "outputs": [
        {
          "internalType": "address",
          "name": "",
          "type": "address"
        }
      ],
      "stateMutability": "view",
      "type": "function"
    },
    {
      "inputs": [
        {
          "internalType": "uint256",
          "name": "limit",
          "type": "uint256"
        },
        {
          "internalType": "uint256",
          "name": "offset",
          "type": "uint256"
        }
      ],
      "name": "fundraisers",
      "outputs": [
        {
          "internalType": "contract Fundraiser[]",
          "name": "coll",
          "type": "address[]"
        }
      ],
      "stateMutability": "view",
      "type": "function"
    },
    {
      "inputs": [
        {
          "internalType": "address",
          "name": "owner",
          "type": "address"
        }
      ],
      "name": "fundraisersByOwner",
      "outputs": [
        {
          "internalType": "contract Fundraiser[]",
          "name": "",
          "type": "address[]"
        }
      ],
      "stateMutability": "view",
      "type": "function"
    },
    {
      "inputs": [],
      "name": "fundraisersCount",
      "outputs": [
        {
          "internalType": "uint256",
          "name": "",
          "type": "uint256"
        }
      ],
      "stateMutability": "view",
      "type": "function"
    },
    {
      "inputs": [],
      "name": "getAvailableCategories",
      "outputs": [
        {
          "internalType": "string[]",
          "name": "",
          "type": "string[]"
        }
      ],
      "stateMutability": "view",
      "type": "function"
    },
    {
      "inputs": [
        {
          "internalType": "uint256",
          "name": "id",
          "type": "uint256"
        }
      ],
      "name": "getFundraiserById",
      "outputs": [
        {
          "internalType": "contract Fundraiser",
          "name": "",
          "type": "address"
        }
      ],
      "stateMutability": "view",
      "type": "function"
    },
    {
      "inputs": [],
      "name": "getPlatformStats",
      "outputs": [
        {
          "internalType": "uint256",
          "name": "_totalFundraisersCreated",
          "type": "uint256"
        },
        {
          "internalType": "uint256",
          "name": "_activeFundraiserCount",
          "type": "uint256"
        },
        {
          "internalType": "uint256",
          "name": "_totalFundsRaised",
          "type": "uint256"
        }
      ],
      "stateMutability": "view",
      "type": "function"
    },
    {
      "inputs": [
        {
          "internalType": "bytes32",
          "name": "role",
          "type": "bytes32"
        }
      ],
      "name": "getRoleAdmin",
      "outputs": [
        {
          "internalType": "bytes32",
          "name": "",
          "type": "bytes32"
        }
      ],
      "stateMutability": "view",
      "type": "function"
    },
    {
      "inputs": [
        {
          "internalType": "bytes32",
          "name": "role",
          "type": "bytes32"
        },
        {
          "internalType": "address",
          "name": "account",
          "type": "address"
        }
      ],
      "name": "grantRole",
      "outputs": [],
      "stateMutability": "nonpayable",
      "type": "function"
    },
    {
      "inputs": [
        {
          "internalType": "address",
          "name": "donor",
          "type": "address"
        },
        {
          "internalType": "uint256",
          "name": "fundraiserId",
          "type": "uint256"
        },
        {
          "internalType": "uint256",
          "name": "usdcAmount",
          "type": "uint256"
        }
      ],
      "name": "handleCrossChainDonation",
      "outputs": [],
      "stateMutability": "nonpayable",
      "type": "function"
    },
    {
      "inputs": [
        {
          "internalType": "address",
          "name": "donor",
          "type": "address"
        },
        {
          "internalType": "uint256",
          "name": "fundraiserId",
          "type": "uint256"
        },
        {
          "internalType": "uint256",
          "name": "usdcAmount",
          "type": "uint256"
        }
      ],
      "name": "handleCrossChainStake",
      "outputs": [],
      "stateMutability": "nonpayable",
      "type": "function"
    },
    {
      "inputs": [
        {
          "internalType": "bytes32",
          "name": "role",
          "type": "bytes32"
        },
        {
          "internalType": "address",
          "name": "account",
          "type": "address"
        }
      ],
      "name": "hasRole",
      "outputs": [
        {
          "internalType": "bool",
          "name": "",
          "type": "bool"
        }
      ],
      "stateMutability": "view",
      "type": "function"
    },
    {
      "inputs": [],
      "name": "maxDuration",
      "outputs": [
        {
          "internalType": "uint256",
          "name": "",
          "type": "uint256"
        }
      ],
      "stateMutability": "view",
      "type": "function"
    },
    {
      "inputs": [],
      "name": "maxGoal",
      "outputs": [
        {
          "internalType": "uint256",
          "name": "",
          "type": "uint256"
        }
      ],
      "stateMutability": "view",
      "type": "function"
    },
    {
      "inputs": [],
      "name": "minDuration",
      "outputs": [
        {
          "internalType": "uint256",
          "name": "",
          "type": "uint256"
        }
      ],
      "stateMutability": "view",
      "type": "function"
    },
    {
      "inputs": [],
      "name": "minGoal",
      "outputs": [
        {
          "internalType": "uint256",
          "name": "",
          "type": "uint256"
        }
      ],
      "stateMutability": "view",
      "type": "function"
    },
    {
      "inputs": [],
      "name": "pause",
      "outputs": [],
      "stateMutability": "nonpayable",
      "type": "function"
    },
    {
      "inputs": [],
      "name": "paused",
      "outputs": [
        {
          "internalType": "bool",
          "name": "",
          "type": "bool"
        }
      ],
      "stateMutability": "view",
      "type": "function"
    },
    {
      "inputs": [],
      "name": "platformFeeRecipient",
      "outputs": [
        {
          "internalType": "address",
          "name": "",
          "type": "address"
        }
      ],
      "stateMutability": "view",
      "type": "function"
    },
    {
      "inputs": [
        {
          "internalType": "bytes32",
          "name": "role",
          "type": "bytes32"
        },
        {
          "internalType": "address",
          "name": "callerConfirmation",
          "type": "address"
        }
      ],
      "name": "renounceRole",
      "outputs": [],
      "stateMutability": "nonpayable",
      "type": "function"
    },
    {
      "inputs": [
        {
          "internalType": "bytes32",
          "name": "role",
          "type": "bytes32"
        },
        {
          "internalType": "address",
          "name": "account",
          "type": "address"
        }
      ],
      "name": "revokeRole",
      "outputs": [],
      "stateMutability": "nonpayable",
      "type": "function"
    },
    {
      "inputs": [
        {
          "internalType": "string",
          "name": "category",
          "type": "string"
        }
      ],
      "name": "searchFundraisersByCategory",
      "outputs": [
        {
          "internalType": "contract Fundraiser[]",
          "name": "",
          "type": "address[]"
        }
      ],
      "stateMutability": "view",
      "type": "function"
    },
    {
      "inputs": [
        {
          "internalType": "string",
          "name": "region",
          "type": "string"
        }
      ],
      "name": "searchFundraisersByRegion",
      "outputs": [
        {
          "internalType": "contract Fundraiser[]",
          "name": "",
          "type": "address[]"
        }
      ],
      "stateMutability": "view",
      "type": "function"
    },
    {
      "inputs": [
        {
          "internalType": "uint256",
          "name": "fundraiserId",
          "type": "uint256"
        },
        {
          "internalType": "address",
          "name": "token",
          "type": "address"
        },
        {
          "internalType": "uint256",
          "name": "amount",
          "type": "uint256"
        }
      ],
      "name": "stakeERC20",
      "outputs": [],
      "stateMutability": "nonpayable",
      "type": "function"
    },
    {
      "inputs": [
        {
          "internalType": "uint256",
          "name": "fundraiserId",
          "type": "uint256"
        }
      ],
      "name": "stakeNative",
      "outputs": [],
      "stateMutability": "payable",
      "type": "function"
    },
    {
      "inputs": [],
      "name": "stakingPoolType",
      "outputs": [
        {
          "internalType": "uint8",
          "name": "",
          "type": "uint8"
        }
      ],
      "stateMutability": "view",
      "type": "function"
    },
    {
      "inputs": [
        {
          "internalType": "uint256",
          "name": "",
          "type": "uint256"
        }
      ],
      "name": "stakingPools",
      "outputs": [
        {
          "internalType": "address",
          "name": "",
          "type": "address"
        }
      ],
      "stateMutability": "view",
      "type": "function"
    },
    {
      "inputs": [
        {
          "internalType": "bytes4",
          "name": "interfaceId",
          "type": "bytes4"
        }
      ],
      "name": "supportsInterface",
      "outputs": [
        {
          "internalType": "bool",
          "name": "",
          "type": "bool"
        }
      ],
      "stateMutability": "view",
      "type": "function"
    },
    {
      "inputs": [],
      "name": "swapAdapter",
      "outputs": [
        {
          "internalType": "contract ISwapAdapter",
          "name": "",
          "type": "address"
        }
      ],
      "stateMutability": "view",
      "type": "function"
    },
    {
      "inputs": [],
      "name": "totalFundraisersCreated",
      "outputs": [
        {
          "internalType": "uint256",
          "name": "",
          "type": "uint256"
        }
      ],
      "stateMutability": "view",
      "type": "function"
    },
    {
      "inputs": [],
      "name": "totalFundsRaised",
      "outputs": [
        {
          "internalType": "uint256",
          "name": "",
          "type": "uint256"
        }
      ],
      "stateMutability": "view",
      "type": "function"
    },
    {
      "inputs": [],
      "name": "unpause",
      "outputs": [],
      "stateMutability": "nonpayable",
      "type": "function"
    },
    {
      "inputs": [
        {
          "internalType": "address",
          "name": "creator",
          "type": "address"
        }
      ],
      "name": "unverifyCreator",
      "outputs": [],
      "stateMutability": "nonpayable",
      "type": "function"
    },
    {
      "inputs": [
        {
          "internalType": "address",
          "name": "_newBridge",
          "type": "address"
        }
      ],
      "name": "updateBridge",
      "outputs": [],
      "stateMutability": "nonpayable",
      "type": "function"
    },
    {
      "inputs": [
        {
          "internalType": "uint256",
          "name": "newMinDuration",
          "type": "uint256"
        },
        {
          "internalType": "uint256",
          "name": "newMaxDuration",
          "type": "uint256"
        }
      ],
      "name": "updateDurationLimits",
      "outputs": [],
      "stateMutability": "nonpayable",
      "type": "function"
    },
    {
      "inputs": [
        {
          "internalType": "uint256",
          "name": "newMaxGoal",
          "type": "uint256"
        }
      ],
      "name": "updateMaxGoal",
      "outputs": [],
      "stateMutability": "nonpayable",
      "type": "function"
    },
    {
      "inputs": [
        {
          "internalType": "uint256",
          "name": "newMinGoal",
          "type": "uint256"
        }
      ],
      "name": "updateMinGoal",
      "outputs": [],
      "stateMutability": "nonpayable",
      "type": "function"
    },
    {
      "inputs": [
        {
          "internalType": "address",
          "name": "newRecipient",
          "type": "address"
        }
      ],
      "name": "updatePlatformFeeRecipient",
      "outputs": [],
      "stateMutability": "nonpayable",
      "type": "function"
    },
    {
      "inputs": [
        {
          "internalType": "address",
          "name": "",
          "type": "address"
        }
      ],
      "name": "verifiedCreators",
      "outputs": [
        {
          "internalType": "bool",
          "name": "",
          "type": "bool"
        }
      ],
      "stateMutability": "view",
      "type": "function"
    },
    {
      "inputs": [
        {
          "internalType": "address",
          "name": "creator",
          "type": "address"
        }
      ],
      "name": "verifyCreator",
      "outputs": [],
      "stateMutability": "nonpayable",
      "type": "function"
    },
    {
      "inputs": [],
      "name": "worldId",
      "outputs": [
        {
          "internalType": "contract IWorldID",
          "name": "",
          "type": "address"
        }
      ],
      "stateMutability": "view",
      "type": "function"
    }
  ],
  "bytecode": "0x6101c060405234620004e357620073dd803803809162000022826101c06200051a565b6101c0396101808112620004e3576200003d6101c06200053e565b6200004a6101e06200053e565b620000576102006200053e565b90620000656102206200053e565b91620000736102406200053e565b92620000816102606200053e565b6200008e6102806200053e565b906200009c6102a06200053e565b926101006101c001519460ff86168603620004e357620000be6102e06200053e565b610300519097906001600160401b038111620004e357620000e9908c6101c001906101c00162000578565b61032051909b906001600160401b038111620004e35762000113916101c001906101c00162000578565b60016002556305f5e100600f556509184e72a00060105562093a806011556301e13380601255996001600160a01b038116156200049e5760805260018060a01b031660a05260c05260e05260018060a01b03199560018060a01b031686600a541617600a556101005261012052610140526101605260018060a01b031690600c541617600c55604051620001c760208281620001b9818301978881519384920162000553565b81010380845201826200051a565b7f30644e72e131a029b85045b68181585d2833e84879b9709143e1f593f000000192839151902006610180526040516200021360208281620001b9818301968781519384920162000553565b519020066101a09081526200022833620005d3565b50620002343362000653565b50620002616040516200024781620004e8565b60078152661359591a58d85b60ca1b6020820152620006f5565b6200028f6040516200027381620004e8565b600981526822b23ab1b0ba34b7b760b91b6020820152620006f5565b620002bd604051620002a181620004e8565b6009815268456d657267656e637960b81b6020820152620006f5565b620002eb604051620002cf81620004e8565b6009815268436f6d6d756e69747960b81b6020820152620006f5565b6200031b604051620002fd81620004e8565b600b81526a115b9d9a5c9bdb9b595b9d60aa1b6020820152620006f5565b6200034a6040516200032d81620004e8565b600a815269546563686e6f6c6f677960b01b6020820152620006f5565b620003736040516200035c81620004e8565b60048152634172747360e01b6020820152620006f5565b6200039e6040516200038581620004e8565b600681526553706f72747360d01b6020820152620006f5565b6040516169c09182620009dd833960805182818161046f0152818161169c0152612498015260a0518281816113b401528181613cfc0152613ea6015260c0518281816104ce0152818161087f015281816109a801528181610ffe01528181611130015281816112d0015281816116fb0152818161390f01528181613a480152613cbf015260e05182610c7f015261010051828181612e4c01526138af015261012051828181610bc90152613937015261014051828181611f9701526139e80152610160518281816109d00152818161102601528181611ecb015261387b0152610180518281816113790152611a9c015251818181611abf015261240e0152f35b60405162461bcd60e51b815260206004820152601660248201527f496e76616c696420696d706c656d656e746174696f6e000000000000000000006044820152606490fd5b600080fd5b604081019081106001600160401b038211176200050457604052565b634e487b7160e01b600052604160045260246000fd5b601f909101601f19168101906001600160401b038211908210176200050457604052565b51906001600160a01b0382168203620004e357565b60005b838110620005675750506000910152565b818101518382015260200162000556565b81601f82011215620004e35780516001600160401b038111620005045760405192620005af601f8301601f1916602001856200051a565b81845260208284010111620004e357620005d0916020808501910162000553565b90565b6001600160a01b031660008181527fad3228b676f7d3cd4284a5443f17f1962b36e491b30a40b2405849e597ba5fb5602052604081205490919060ff166200064f57818052816020526040822081835260205260408220600160ff1982541617905533916000805160206200739d8339815191528180a4600190565b5090565b6001600160a01b031660008181527f7d7ffb7a348e1c6a02869081a26547b49160dd3df72d1d75a570eb9b698292ec60205260408120549091907fa49807205ce4d355092ef5a8a18f56e8913cf4a201fbe287825b095693c217759060ff16620006f057808352826020526040832082845260205260408320600160ff198254161790556000805160206200739d833981519152339380a4600190565b505090565b90604080519083519360ff6020938481818501986200071681838c62000553565b8101600981520301902054166200099857805180151590816200098b575b501562000947576008549468010000000000000000861015620005045760018087018060085587101562000931576008600090815285812084519801906001600160401b0389116200091d5781548381811c9116801562000912575b88821014620008fe57601f8111620008b3575b508690601f8a116001146200084157988091600080516020620073bd833981519152999a9162000835575b50600019600383901b1c191690831b1790555b835185818551620007f481838862000553565b810160098152030190209060ff1982541617905562000826835194859381855251928380928601528585019062000553565b601f01601f19168101030190a1565b905085015138620007ce565b90601f198a16838352888320925b8181106200089d5750918a91600080516020620073bd8339815191529a9b86941062000883575b5050811b019055620007e1565b87015160001960f88460031b161c19169055388062000876565b878301518455928501929189019189016200084f565b828252878220601f8b0160051c810191898c10620008f3575b601f0160051c019084905b828110620008e7575050620007a3565b838155018490620008d7565b9091508190620008cc565b634e487b7160e01b82526022600452602482fd5b90607f169062000790565b634e487b7160e01b81526041600452602490fd5b634e487b7160e01b600052603260045260246000fd5b815162461bcd60e51b815260048101849052601760248201527f496e76616c69642063617465676f7279206c656e6774680000000000000000006044820152606490fd5b6032915011153862000734565b815162461bcd60e51b815260048101849052601760248201527f43617465676f727920616c7265616479206578697374730000000000000000006044820152606490fdfe60808060405260043610156200001457600080fd5b600090813560e01c90816301ffc9a71462002e7b5750806308a016751462002e345780630b3e0d841462002db95780630ed8efb51462002c7257806312f5e27114620029a0578063136d8883146200296f578063141b7c2a146200294f578063248a9ca314620029215780632b84bd8114620028935780632e0dcbf714620025765780632e5b618a146200250c5780632f2ff15d14620024c75780633119e4b4146200248057806336568abe146200243157806336b6e82b14620023f45780633b24c17214620022155780633f4ba83a14620021a5578063427c0c7f14620021855780634b2fd8ca14620021005780634d8e31721462002060578063567157611462002040578063569e494b1462001ffb5780635aad6cf01462001fc65780635bca49d21462001f7f5780635c975abb1462001f5a5780635cb6cfc71462001eef5780635e3383d01462001eaf5780636647727a1462001dc45780636db5c8fd1462001da45780636eb382121462001cf5578063704914f81462001bee57806372b36371146200144b578063753e9ef0146200142057806375b238fc14620013e357806377bb1eb9146200139c57806380afdea8146200135f5780638456cb5914620012ff57806389a3027114620012b85780638a19ee0414620011f25780638b3f73df14620010ca5780638f6a63911462000f9457806391d148541462000f455780639286ff831462000ed457806392bc29841462000eb4578063944259ae1462000db857806398dd1b651462000cec5780639d3b43551462000ccc578063a217fddf1462000cae578063ad5c46481462000c67578063add150bc1462000c24578063be279a2e1462000bf8578063c9d05ea11462000bb1578063d41077fa1462000b80578063d48675f31462000b60578063d547741f1462000b17578063e00dd1611462000af7578063e63c6bf0146200093e578063ea5e0036146200080f578063eb13554f14620007e4578063f4173abe14620007b9578063f5fe7f71146200070a578063f71441a514620006ea5763fe0aff3b146200031657600080fd5b34620006e757610100366003190112620006e7576001600160401b0390600435828111620006df576200034e90369060040162002f86565b90602435838111620006df576200036a903690600401620030f4565b91604435848111620006e35762000386903690600401620030f4565b91606435858111620006df57620003a290369060040162002f86565b94608435908111620006df57620003be90369060040162002f86565b620003c86200317f565b9260c4359160e435906000805160206200696b833981519152988960005260209960008b526040600020336000528b5260ff6040600020541615620006c1575062000412620037ff565b6200041c620037e0565b8351156200068d576001600160a01b0397878916936200043e85151562003821565b8615620006555762015180908181029181830414901517156200064157620004679042620035e8565b9789620004947f000000000000000000000000000000000000000000000000000000000000000062003777565b169a600e54908b600a5416928d3b156200063d5792620004f9928c8b8b948e9998976040519b8c9a8b9a8b9463247ebc6d60e21b8652309a7f00000000000000000000000000000000000000000000000000000000000000009960043398016200360c565b0381838c5af18015620006325762000616575b50927f2c9485325712ad2a809f724335b0ed1a7a4039f650ef087423d230280f672d3f94927f4a13c6e39e7b1a55efde5a451a2e84f4b11d5ba538be0e26224ccaa8d90b78e99262000584620006069896620005688b620036bf565b33855260048c526200057e8b60408720620036ff565b62003879565b95600e54845260078b5260408420961695866001600160601b0360a01b825416179055600e54835260068a5260408320600160ff19825416179055620005cc60135462003743565b601355620005dc60155462003743565b60155588600e549788968794620005fb60405192839233978462003753565b0390a480a362003743565b600e556001600255604051908152f35b62000622859162002f34565b6200062e57386200050c565b8380fd5b6040513d87823e3d90fd5b8a80fd5b634e487b7160e01b88526011600452602488fd5b60405162461bcd60e51b8152600481018d9052601060248201526f0476f616c206d757374206265203e20360841b6044820152606490fd5b60405162461bcd60e51b8152600481018b9052600c60248201526b496e76616c6964206e616d6560a01b6044820152606490fd5b6044906040519063e2517d3f60e01b82523360048301526024820152fd5b5080fd5b8280fd5b80fd5b5034620006e75780600319360112620006e7576020601054604051908152f35b5034620006e7576020366003190112620006e7576200072862002ed5565b6200073262003337565b6001600160a01b039081169081156200078257600a54826001600160601b0360a01b821617600a55167faf04973bb8004e313cfd09017b963bee1e6f6ffb9be88c07a0c5ce5fafe934038380a380f35b60405162461bcd60e51b815260206004820152600f60248201526e496e76616c6964206164647265737360881b6044820152606490fd5b5034620006e75780600319360112620006e757600b546040516001600160a01b039091168152602090f35b5034620006e75780600319360112620006e757600a546040516001600160a01b039091168152602090f35b5034620006e7576200086d81620008263662003196565b93919062000833620037ff565b6200083d620037e0565b60018060a01b039283916200085883600b5416331462003f17565b62000867600354821062003c63565b620031c2565b90549060031b1c1691620008a58584837f00000000000000000000000000000000000000000000000000000000000000001662003b69565b823b156200062e5760a484928360405195869485936335c3648560e21b855216600484015288602484015260606044840152600b60648401526a31b937b9b996b1b430b4b760a91b60848401525af1801562000933576200091b575b506200091082601454620035e8565b601455600160025580f35b620009269062002f34565b620006df57813862000901565b6040513d84823e3d90fd5b506020366003190112620006e75762000956620037ff565b62000960620037e0565b341562000abe5760043581526007602052604081205481906001600160a01b03908116908190620009ce906200099883151562003b2a565b620009a33462003e8c565b9384917f00000000000000000000000000000000000000000000000000000000000000001662003b69565b7f000000000000000000000000000000000000000000000000000000000000000060ff1662000a5e57803b1562000a5a576040516317a790f160e11b8152336004820152602481019290925282908290818381604481015b03925af18015620009335762000a42575b50505b600160025580f35b62000a4d9062002f34565b620006e757803862000a37565b5050fd5b803b1562000a5a576040516317a790f160e11b8152336004820152602481019290925282908290818381604481015b03925af18015620009335762000aa6575b505062000a3a565b62000ab19062002f34565b620006e757803862000a9e565b60405162461bcd60e51b8152602060048201526011602482015270056616c7565206d757374206265203e203607c1b6044820152606490fd5b5034620006e75780600319360112620006e7576020600e54604051908152f35b5034620006e7576040366003190112620006e75762000b5c60043562000b3c62002ef1565b908084528360205262000b56600160408620015462003394565b62003572565b5080f35b5034620006e75780600319360112620006e7576020600f54604051908152f35b5034620006e7576020366003190112620006e75760ff60406020926004358152600684522054166040519015158152f35b5034620006e75780600319360112620006e7576040517f00000000000000000000000000000000000000000000000000000000000000006001600160a01b03168152602090f35b5034620006e75780600319360112620006e75760206040516000805160206200696b8339815191528152f35b5034620006e7576020366003190112620006e75760209060ff906040906001600160a01b0362000c5362002ed5565b168152600584522054166040519015158152f35b5034620006e75780600319360112620006e7576040517f00000000000000000000000000000000000000000000000000000000000000006001600160a01b03168152602090f35b5034620006e75780600319360112620006e757602090604051908152f35b5034620006e75780600319360112620006e7576020600354604051908152f35b5034620006e7576020366003190112620006e75762000d0a62002ed5565b62000d1462003337565b6001600160a01b0381168083526005602052604083205490919060ff1662000d8057818352600560205260408320805460ff1916600117905562000d5890620033bb565b507ff29712ea7553106dc04213b4a8b2d4bd706623bddf1d92ab875d278700e772258280a280f35b60405162461bcd60e51b815260206004820152601060248201526f105b1c9958591e481d995c9a599a595960821b6044820152606490fd5b5034620006e7576020366003190112620006e75760043562000dd962003337565b62000de8600354821062003fa6565b808252600660205260ff6040832054161562000e7c57808252600660205260408220805460ff19169055601554801562000e68576000190160155562000e2e81620031c2565b905460039190911b1c6001600160a01b0316907fc0fdd8739b0b3c0ceef353a0e156f5b758b6ab61efdd85778a9c312367a2f10c8380a380f35b634e487b7160e01b83526011600452602483fd5b60405162461bcd60e51b815260206004820152601060248201526f416c726561647920696e61637469766560801b6044820152606490fd5b5034620006e75780600319360112620006e7576020601554604051908152f35b5034620006e7576020366003190112620006e757600435600854811015620006df5762000f019062003210565b91909162000f315762000f2d62000f188362003285565b60405191829160208352602083019062003055565b0390f35b634e487b7160e01b81526004819052602490fd5b5034620006e7576040366003190112620006e757604062000f6562002ef1565b91600435815280602052209060018060a01b0316600052602052602060ff604060002054166040519015158152f35b5034620006e7578062000fa73662003196565b62000fb4929192620037ff565b62000fbe620037e0565b600b546001600160a01b03939062000fda908516331462003f17565b84526007602052620010248184604087205416809562000ffc82151562003b2a565b7f00000000000000000000000000000000000000000000000000000000000000001662003b69565b7f000000000000000000000000000000000000000000000000000000000000000060ff166200108e57823b1562001089576040516317a790f160e11b81526001600160a01b039092166004830152602482015290829082908183816044810162000a26565b505050fd5b823b1562001089576040516317a790f160e11b81526001600160a01b039092166004830152602482015290829082908183816044810162000a8d565b506020366003190112620006e757600435620010e5620037ff565b620010ef620037e0565b600354811015620011c057816200110a6200115692620031c2565b90546001600160a01b0360039290921b1c81169283916200112b3462003e8c565b9485917f00000000000000000000000000000000000000000000000000000000000000001662003b69565b803b15620006df5781809160a4604051809481936335c3648560e21b835233600484015288602484015260606044840152600c60648401526b1b985d1a5d994b5b1bd8d85b60a21b60848401525af1801562000933576200091b57506200091082601454620035e8565b60405162461bcd60e51b815260206004820152600a602482015269125b9d985b1a5908125160b21b6044820152606490fd5b5034620006e7576020366003190112620006e7576200121062002ed5565b6200121a62003337565b6001600160a01b0381168083526005602052604083205490919060ff16156200128457818352600560205260408320805460ff191690556200125c90620034d7565b507f60b135e6309af8a78a80d9b2ed3453f61389b60a4a1caaefc5b7ecccad639d9a8280a280f35b60405162461bcd60e51b815260206004820152600c60248201526b139bdd081d995c9a599a595960a21b6044820152606490fd5b5034620006e75780600319360112620006e7576040517f00000000000000000000000000000000000000000000000000000000000000006001600160a01b03168152602090f35b5034620006e75780600319360112620006e7576200131c62003337565b62001326620037e0565b600160ff19815416176001557f62e78cea01bee320cd4e420270b5ea74000d11b0c9f74754ebdbfc544b05a2586020604051338152a180f35b5034620006e75780600319360112620006e75760206040517f00000000000000000000000000000000000000000000000000000000000000008152f35b5034620006e75780600319360112620006e7576040517f00000000000000000000000000000000000000000000000000000000000000006001600160a01b03168152602090f35b5034620006e75780600319360112620006e75760206040517fa49807205ce4d355092ef5a8a18f56e8913cf4a201fbe287825b095693c217758152f35b5034620006e75780600319360112620006e757600c546040516001600160a01b039091168152602090f35b5034620006e757610240366003190112620006e7576001600160401b0390600435828111620006df576200148490369060040162002f86565b90602435838111620006df57620014a0903690600401620030f4565b916044918235858111620006df57620014be903690600401620030f4565b9160649586358181116200062e57620014dc90369060040162002f86565b906084358181116200185a57620014f890369060040162002f86565b96620015036200317f565b913661024411620018695762001518620037ff565b62001522620037e0565b600c546001600160a01b0316908162001a4c575b5050835189811515918262001a40575b50501562001a075780518015159081620019fa575b5015620019b75785518015159081620019aa575b501562001967578251801515908162001959575b50156200191657620015a06001600160a01b038316151562003821565b600f5460c43510158062001907575b15620018c457620151806011540460e435101580620018b0575b156200186d57845b86518110156200165d57620015e7818862003864565b5160ff604051828180945162001604816020978880960162003030565b81016009815203019020541615620016285750620016229062003743565b620015d1565b8a906f496e76616c69642063617465676f727960801b8a6040519262461bcd60e51b8452600484015260106024840152820152fd5b50879594956201518060e4350260e4358104620151801460e4351517156200064157906200168d889242620035e8565b946001600160a01b03620016c17f000000000000000000000000000000000000000000000000000000000000000062003777565b1697600e549460018060a01b03600a54168a3b156200186957898989986200172a956040519a8b998a998a9363247ebc6d60e21b855230997f00000000000000000000000000000000000000000000000000000000000000009860c4359760043398016200360c565b038183895af180156200185e5762001842575b5091620005fb7f4a13c6e39e7b1a55efde5a451a2e84f4b11d5ba538be0e26224ccaa8d90b78e96020967f2c9485325712ad2a809f724335b0ed1a7a4039f650ef087423d230280f672d3f94620017c262000606976200179d8a620036bf565b33845260048b52620017b38a60408620620036ff565b6001600160a01b031662003879565b600e8054845260078b52604080852080546001600160a01b0319166001600160a01b0390941693841790559054845260068b528320805460ff19166001179055601354909590620018139062003743565b6013556200182360155462003743565b60155588600e549788968794604051918291339660c435908462003753565b6200184e869162002f34565b6200185a57856200173d565b8480fd5b6040513d88823e3d90fd5b8580fd5b60405162461bcd60e51b815260206004820152601e60248201527f4475726174696f6e206f75747369646520616c6c6f7765642072616e67650000818901528990fd5b50620151806012540460e4351115620015c9565b60405162461bcd60e51b815260206004820152601a60248201527f476f616c206f75747369646520616c6c6f7765642072616e6765000000000000818901528990fd5b5060105460c4351115620015af565b60405162461bcd60e51b815260206004820152601a60248201527f496e76616c6964206465736372697074696f6e206c656e677468000000000000818901528990fd5b611388915011153862001583565b60405162461bcd60e51b815260206004820152601c60248201527f496e76616c6964206e756d626572206f662063617465676f7269657300000000818901528990fd5b600591501115386200156f565b60405162461bcd60e51b815260206004820152601860248201527f496e76616c6964206e756d626572206f6620696d616765730000000000000000818901528990fd5b600a91501115386200155b565b60405162461bcd60e51b8152602060048201526013602482015272092dcecc2d8d2c840dcc2daca40d8cadccee8d606b1b818901528990fd5b11159050893862001546565b61012491823592838952600d60205260ff60408a20541662001bb3576040519060208201903360601b82526014835260408301918383108684111762001b9d5782604052835190209160608401907f000000000000000000000000000000000000000000000000000000000000000082527f000000000000000000000000000000000000000000000000000000000000000060808601526040815260a08501968188109088111762001b9d578660405251902091843b1562001b99579361010086946101a49486948f988b90633bc778e360e01b885261010490813560a4870152600160c487015260e4860152840152820152610144809101375afa801562001b8e5790879162001b76575b5052600d60205260408520805460ff19166001179055388062001536565b62001b819062002f34565b6200186957853862001b58565b6040513d89823e3d90fd5b8b80fd5b634e487b7160e01b600052604160045260246000fd5b60405162461bcd60e51b815260206004820152601560248201527415dbdc9b1912510e88105b1c9958591e481d5cd959605a1b818d01528d90fd5b5034620006e75762001c003662003019565b9060039081549081841162001cb95783820391821162001ca5578082101562001c9d57505b601481101562001c9357915b62001c3c8362003f6e565b935b83811062001c56576040518062000f2d878262002fd3565b8062001c6b6200086762001c8d9385620035e8565b905490851b1c6001600160a01b031662001c86828862003864565b5262003743565b62001c3e565b5060149162001c31565b905062001c25565b634e487b7160e01b85526011600452602485fd5b60405162461bcd60e51b81526020600482015260146024820152734f6666736574206f7574206f6620626f756e647360601b6044820152606490fd5b5034620006e7576020366003190112620006e75762001d1362002ed5565b62001d1d62003337565b6001600160a01b0316801562001d6657600b80546001600160a01b031916821790557fe1694c0b21fdceff6411daed547c7463c2341b9695387bc82595b5b9b1851d4a8280a280f35b60405162461bcd60e51b8152602060048201526016602482015275496e76616c696420627269646765206164647265737360501b6044820152606490fd5b5034620006e75780600319360112620006e7576020601254604051908152f35b5034620006e75780600319360112620006e757600380549082805b83811062001e6f575062001df39062003f6e565b9280805b84811062001e0f576040518062000f2d888262002fd3565b808252600660205260ff60408320541662001e36575b62001e309062003743565b62001df7565b9162001e6662001e309162001e4b85620031c2565b905490871b1c6001600160a01b031662001c86828a62003864565b92905062001e25565b808552600660205260ff60408620541662001e96575b62001e909062003743565b62001ddf565b9062001ea662001e909162003743565b91905062001e85565b5034620006e75780600319360112620006e757602060405160ff7f0000000000000000000000000000000000000000000000000000000000000000168152f35b5034620006e7578062001f023662002f08565b9162001f0d620037ff565b62001f17620037e0565b83526007602052620009ce60018060a01b03620009a38160408720541694859462001f4486151562003b2a565b62001f5482303387851662003c08565b62003cb0565b5034620006e75780600319360112620006e757602060ff600154166040519015158152f35b5034620006e75780600319360112620006e7576040517f00000000000000000000000000000000000000000000000000000000000000006001600160a01b03168152602090f35b5034620006e7576020366003190112620006e757602090600435815260078252604060018060a01b0391205416604051908152f35b5034620006e7576020366003190112620006e75760206200202760043562000867600354821062003fa6565b905460405160039290921b1c6001600160a01b03168152f35b5034620006e75780600319360112620006e7576020601154604051908152f35b5034620006e75780600319360112620006e757600854906200208282620030dc565b9162002092604051938462002f48565b808352600882526020917ff3f7a9fe364faab93b216da50a3214154f22a0a2b415b23a84c8169e8b636ee3838086015b848410620020df576040518281528062000f2d8185018a6200307c565b6001918291620020ef8562003285565b8152019201920191908490620020c2565b5034620006e757620021123662003019565b906200211d62003337565b801515806200217b575b15620021365760115560125580f35b60405162461bcd60e51b815260206004820152601760248201527f496e76616c6964206475726174696f6e206c696d6974730000000000000000006044820152606490fd5b5081811062002127565b5034620006e75780600319360112620006e7576020601454604051908152f35b5034620006e75780600319360112620006e757620021c262003337565b60015460ff811615620022035760ff19166001557f5db9ee0a495bf2e6ff9c91a7834c1ba4fdd244a5e8aa4e537bd38aeae4b073aa6020604051338152a180f35b604051638dfc202b60e01b8152600490fd5b5034620006e75760209081600319360112620006e7576004356001600160401b038111620006df576200224d90369060040162002f86565b908081600390815492868601915b8481106200235857506200226f9062003f6e565b948491855b8581106200228c576040518062000f2d8a8262002fd3565b8660046200229a83620031c2565b9054604051635062d68d60e01b81526001600160a01b039490939092849283918c1b1c86165afa9081156200234d57899162002326575b508a81519101208451842014620022f5575b50620022ef9062003743565b62002274565b81946200231e916200230b620022ef94620031c2565b905490891b1c1662001c86828c62003864565b9390620022e3565b6200234691503d808b833e6200233d818362002f48565b810190620040e2565b38620022d1565b6040513d8b823e3d90fd5b6004866200236683620031c2565b9054604051635062d68d60e01b8152938492909183918a1b1c6001600160a01b03165afa90811562001b8e578791620023d6575b508881519101208751842014620023bd575b620023b79062003743565b6200225b565b90620023cd620023b79162003743565b919050620023ac565b620023ed91503d8089833e6200233d818362002f48565b386200239a565b5034620006e75780600319360112620006e75760206040517f00000000000000000000000000000000000000000000000000000000000000008152f35b5034620006e7576040366003190112620006e7576200244f62002ef1565b336001600160a01b038216036200246e5762000b5c9060043562003572565b60405163334bd91960e11b8152600490fd5b5034620006e75780600319360112620006e7576040517f00000000000000000000000000000000000000000000000000000000000000006001600160a01b03168152602090f35b5034620006e7576040366003190112620006e75762000b5c600435620024ec62002ef1565b908084528360205262002506600160408620015462003394565b6200345d565b5034620006e7576020366003190112620006e7576004356200252d62003337565b600f548111156200253e5760105580f35b60405162461bcd60e51b815260206004820152601060248201526f125b9d985b1a59081b585e0819dbd85b60821b6044820152606490fd5b5034620006e75760209081600319360112620006e7576001600160401b0391600435838111620006e357620025b090369060040162002f86565b90620025bb62003337565b6040519360ff835195838181870198620025d781838c62003030565b8101600981520301902054166200284e578251801515908162002841575b5015620027fc5760085490600160401b821015620027e8576200262060019283810160085562003210565b919091620027d4578451908111620027c0576200263e825462003248565b601f811162002775575b5083601f8211600114620026eb5796620026af92828693899a7fdb74f4d32b97da9b3b9b907aa3fd5df938c018e13fe235d9883d0a0836c6bddb9a91620026df575b50600019600383901b1c191690861b1790555b60405180938192885192839162003030565b810160098152030190209060ff19825416179055620026d960405192828493845283019062003055565b0390a180f35b9050880151386200268a565b82875284872090601f198316885b8181106200275f5750837fdb74f4d32b97da9b3b9b907aa3fd5df938c018e13fe235d9883d0a0836c6bddb999a93620026af9693899689941062002745575b5050811b0190556200269d565b8a015160001960f88460031b161c19169055388062002738565b88830151845592860192918701918701620026f9565b828752848720601f830160051c810191868410620027b5575b601f0160051c019084905b828110620027a957505062002648565b88815501849062002799565b90915081906200278e565b634e487b7160e01b86526041600452602486fd5b634e487b7160e01b86526004869052602486fd5b634e487b7160e01b85526041600452602485fd5b60405162461bcd60e51b815260048101839052601760248201527f496e76616c69642063617465676f7279206c656e6774680000000000000000006044820152606490fd5b60329150111538620025f5565b60405162461bcd60e51b815260048101839052601760248201527f43617465676f727920616c7265616479206578697374730000000000000000006044820152606490fd5b5034620006e757602080600319360112620006df576001600160a01b039182620028bc62002ed5565b168152600482526040812092604051908193808654938481520195845280842093915b838310620029075762000f2d86620028fa818a038262002f48565b6040519182918262002fd3565b8454811687529581019560019485019490920191620028df565b5034620006e7576020366003190112620006e757600160406020926004358152808452200154604051908152f35b5034620006e75780600319360112620006e7576020601354604051908152f35b5034620006e75780600319360112620006e75760606013546015546014549060405192835260208301526040820152f35b5034620006e757602080600319360112620006df576004356001600160401b038111620006e357620029d790369060040162002f86565b6040519160ff825193828181860196620029f381838a62003030565b8101600981520301902054161562002c2e57600380549385929183805b87811062002b47575062002a249062003f6e565b94849285945b88861062002a42576040518062000f2d8a8262002fd3565b8698869762002a5560049a9798620031c2565b905460405163136c104b60e21b81526001600160a01b039d909c90928d9283918b1b1c8f165afa998a1562002b3a57819a62002b11575b50805b8a5181101562002afc5762002aa5818c62003864565b51848151910120865186201462002ac75762002ac19062003743565b62002a8f565b509962002aee929394959699509688976200230b62002ae7939a620031c2565b9562003743565b949392919097959762002a2a565b5099509662002aee9192939495985062003743565b62002b32919a503d808c833e62002b29818362002f48565b81019062004040565b988b62002a8c565b50604051903d90823e3d90fd5b95939190946004978162002b5b89620031c2565b905460405163136c104b60e21b81529b8c9290918391881b1c6001600160a01b03165afa9889156200093357829962002c0e575b50815b895181101562002bf95762002ba8818b62003864565b51858151910120875187201462002bca5762002bc49062003743565b62002b92565b509562002bec91985062002be5909792949795939562003743565b9162003743565b9694969592919562002a10565b509591939662002bec91985094929462003743565b62002c269199503d8084833e62002b29818362002f48565b978962002b8f565b6064906040519062461bcd60e51b82526004820152601760248201527f43617465676f727920646f6573206e6f742065786973740000000000000000006044820152fd5b5034620006e75762002c843662002f08565b919062002c90620037ff565b62002c9a620037e0565b821562002d745762002ce76200112b62002cbe869462000867600354821062003c63565b90546001600160a01b0360039290921b1c811695869491929162001f5482303384881662003c08565b803b15620006df57819060a4604051809481936335c3648560e21b835233600484015287602484015260606044840152600b60648401526a195c98cc8c0b5b1bd8d85b60aa1b60848401525af1801562002d695762002d50575b506200091090601454620035e8565b9162002d6162000910929362002f34565b919062002d41565b6040513d85823e3d90fd5b60405162461bcd60e51b815260206004820152601b60248201527f466163746f72793a20416d6f756e74206d757374206265203e203000000000006044820152606490fd5b5034620006e7576020366003190112620006e75760043562002dda62003337565b8015158062002e28575b1562002df057600f5580f35b60405162461bcd60e51b815260206004820152601060248201526f125b9d985b1a59081b5a5b8819dbd85b60821b6044820152606490fd5b50601054811062002de4565b5034620006e75780600319360112620006e7576040517f00000000000000000000000000000000000000000000000000000000000000006001600160a01b03168152602090f35b905034620006df576020366003190112620006df5760043563ffffffff60e01b8116809103620006e35760209250637965db0b60e01b811490811562002ec3575b5015158152f35b6301ffc9a760e01b1490503862002ebc565b600435906001600160a01b038216820362002eec57565b600080fd5b602435906001600160a01b038216820362002eec57565b606090600319011262002eec57600435906024356001600160a01b038116810362002eec579060443590565b6001600160401b03811162001b9d57604052565b90601f801991011681019081106001600160401b0382111762001b9d57604052565b6001600160401b03811162001b9d57601f01601f191660200190565b81601f8201121562002eec5780359062002fa08262002f6a565b9262002fb0604051948562002f48565b8284526020838301011162002eec57816000926020809301838601378301015290565b6020908160408183019282815285518094520193019160005b82811062002ffb575050505090565b83516001600160a01b03168552938101939281019260010162002fec565b604090600319011262002eec576004359060243590565b60005b838110620030445750506000910152565b818101518382015260200162003033565b90602091620030708151809281855285808601910162003030565b601f01601f1916010190565b908082519081815260208091019281808460051b8301019501936000915b848310620030ab5750505050505090565b9091929394958480620030cb600193601f198682030187528a5162003055565b98019301930191949392906200309a565b6001600160401b03811162001b9d5760051b60200190565b9080601f8301121562002eec578135906200310f82620030dc565b926200311f604051948562002f48565b828452602092838086019160051b8301019280841162002eec57848301915b8483106200314f5750505050505090565b82356001600160401b03811162002eec578691620031738484809489010162002f86565b8152019201916200313e565b60a435906001600160a01b038216820362002eec57565b606090600319011262002eec576004356001600160a01b038116810362002eec57906024359060443590565b600354811015620031fa5760036000527fc2575a0e9e593c00f959f8c92f12db2869c3395a3b0502d05e2516446f71f85b0190600090565b634e487b7160e01b600052603260045260246000fd5b600854811015620031fa5760086000527ff3f7a9fe364faab93b216da50a3214154f22a0a2b415b23a84c8169e8b636ee30190600090565b90600182811c921680156200327a575b60208310146200326457565b634e487b7160e01b600052602260045260246000fd5b91607f169162003258565b90604051918260008254926200329b8462003248565b908184526001948581169081600014620033125750600114620032cb575b5050620032c99250038362002f48565b565b9093915060005260209081600020936000915b818310620032f9575050620032c993508201013880620032b9565b85548884018501529485019487945091830191620032de565b915050620032c994506020925060ff191682840152151560051b8201013880620032b9565b3360009081527f7d7ffb7a348e1c6a02869081a26547b49160dd3df72d1d75a570eb9b698292ec60205260409020547fa49807205ce4d355092ef5a8a18f56e8913cf4a201fbe287825b095693c217759060ff1615620006c15750565b80600052600060205260406000203360005260205260ff6040600020541615620006c15750565b6001600160a01b031660008181527fe2adc32b48b3a87d14886ff78a870cd0cb759b2bc15f988865d4eb7a7ccf6ac760205260408120549091906000805160206200696b8339815191529060ff166200345857808352826020526040832082845260205260408320600160ff198254161790557f2f8788117e7eff1d82e926ec794901d17c78024a50270940304540a733656f0d339380a4600190565b505090565b9060009180835282602052604083209160018060a01b03169182845260205260ff604084205416156000146200345857808352826020526040832082845260205260408320600160ff198254161790557f2f8788117e7eff1d82e926ec794901d17c78024a50270940304540a733656f0d339380a4600190565b6001600160a01b031660008181527fe2adc32b48b3a87d14886ff78a870cd0cb759b2bc15f988865d4eb7a7ccf6ac760205260408120549091906000805160206200696b8339815191529060ff1615620034585780835282602052604083208284526020526040832060ff1981541690557ff6391f5c32d9c69d2a47ea670b442974b53935d1edc7fd64eb21e047a839171b339380a4600190565b9060009180835282602052604083209160018060a01b03169182845260205260ff604084205416600014620034585780835282602052604083208284526020526040832060ff1981541690557ff6391f5c32d9c69d2a47ea670b442974b53935d1edc7fd64eb21e047a839171b339380a4600190565b91908201809211620035f657565b634e487b7160e01b600052601160045260246000fd5b9b9695928c9a9e9d999a62003684956200365762003666936101809f99956200367597620036489186526101a080602088015286019062003055565b9084820360408601526200307c565b9160608184039101526200307c565b8c810360808e01529062003055565b908a820360a08c015262003055565b9960018060a01b03968780968180961660c08d01521660e08b01526101008a0152610120890152166101408701521661016085015216910152565b600354600160401b81101562001b9d57806001620036e19201600355620031c2565b819291549060031b9160018060a01b03809116831b921b1916179055565b805490600160401b82101562001b9d5760018201808255821015620031fa576000526020600020019060018060a01b03166001600160601b0360a01b825416179055565b6000198114620035f65760010190565b6200376d6040929594939560608352606083019062003055565b9460208201520152565b6e5af43d82803e903d91602b57fd5bf390763d602d80600a3d3981f3363d3d373d3d3d363d7300000062ffffff8260881c161760005260781b17602052603760096000f0906001600160a01b03821615620037ce57565b60405163b06ebf3d60e01b8152600490fd5b60ff60015416620037ed57565b60405163d93c066560e01b8152600490fd5b60028054146200380f5760028055565b604051633ee5aeb560e01b8152600490fd5b156200382957565b60405162461bcd60e51b8152602060048201526013602482015272496e76616c69642062656e656669636961727960681b6044820152606490fd5b8051821015620031fa5760209160051b010190565b7f000000000000000000000000000000000000000000000000000000000000000060ff1680620039d557506001600160a01b03907f00000000000000000000000000000000000000000000000000000000000000008216908115620039905782600a5416916040519261161690818501918583106001600160401b0384111762001b9d5760e094869488926200535587398452817f0000000000000000000000000000000000000000000000000000000000000000166020850152817f000000000000000000000000000000000000000000000000000000000000000016604085015216606083015260808201523060a08201523360c08201520301906000f0801562003984571690565b6040513d6000823e3d90fd5b60405162461bcd60e51b815260206004820152601c60248201527f466163746f72793a2041617665206e6f7420636f6e66696775726564000000006044820152606490fd5b60010362003ada576001600160a01b03907f0000000000000000000000000000000000000000000000000000000000000000821690811562003a955782600a5416916040519261124990818501918583106001600160401b0384111762001b9d5760c094869488926200410c87398452817f000000000000000000000000000000000000000000000000000000000000000016602085015216604083015260608201523060808201523360a08201520301906000f0801562003984571690565b60405162461bcd60e51b815260206004820152601e60248201527f466163746f72793a204d6f7270686f206e6f7420636f6e6669677572656400006044820152606490fd5b60405162461bcd60e51b815260206004820152602260248201527f466163746f72793a20496e76616c6964207374616b696e6720706f6f6c207479604482015261706560f01b6064820152608490fd5b1562003b3257565b60405162461bcd60e51b815260206004820152600f60248201526e139bc81cdd185ada5b99c81c1bdbdb608a1b6044820152606490fd5b60405163a9059cbb60e01b60208201526001600160a01b03929092166024830152604480830193909352918152620032c99162003ba860648362002f48565b906000602091828151910182855af11562003984576000513d62003bfe57506001600160a01b0381163b155b62003bdc5750565b604051635274afe760e01b81526001600160a01b039091166004820152602490fd5b6001141562003bd4565b6040516323b872dd60e01b60208201526001600160a01b03928316602482015292909116604483015260648083019390935291815260a08101918183106001600160401b0384111762001b9d57620032c99260405262003ba8565b1562003c6b57565b60405162461bcd60e51b815260206004820152601e60248201527f466163746f72793a20496e76616c69642066756e6472616973657220494400006044820152606490fd5b906001600160a01b03808316907f00000000000000000000000000000000000000000000000000000000000000008116821462003e855760405163095ea7b360e01b60208083018281527f0000000000000000000000000000000000000000000000000000000000000000949094166001600160a01b038116602485015260448085018890528452909692959394879493919262003d5060648962002f48565b85600080988a519082865af187513d8262003e66575b50501562003df4575b5050604051635b96fcb360e11b81526001600160a01b03909116600482015260248101929092529093508390818481604481015b03925af192831562002b3a57819362003dbd575b50505090565b9091809350813d831162003dec575b62003dd8818362002f48565b81010312620006e757505138808062003db7565b503d62003dcc565b9091939596929450604051908882015284602482015286604482015260448152608081018181106001600160401b0382111762003e52579262003da39796949262003ba862003e4a938b98966040528262003ba8565b388062003d6f565b634e487b7160e01b88526041600452602488fd5b90915062003e7c5750813b15155b388062003d66565b60011462003e74565b5050905090565b60405163c91a216960e01b815290602090829060049082907f00000000000000000000000000000000000000000000000000000000000000006001600160a01b03165af1908115620039845760009162003ee4575090565b906020823d821162003f0e575b8162003f006020938362002f48565b81010312620006e757505190565b3d915062003ef1565b1562003f1f57565b60405162461bcd60e51b815260206004820152602160248201527f466163746f72793a2043616c6c6572206973206e6f74207468652062726964676044820152606560f81b6064820152608490fd5b9062003f7a82620030dc565b62003f89604051918262002f48565b828152809262003f9c601f1991620030dc565b0190602036910137565b1562003fae57565b60405162461bcd60e51b815260206004820152601960248201527f46756e6472616973657220646f6573206e6f74206578697374000000000000006044820152606490fd5b81601f8201121562002eec5780516200400c8162002f6a565b926200401c604051948562002f48565b8184526020828401011162002eec576200403d916020808501910162003030565b90565b90602090818382031262002eec5782516001600160401b039384821162002eec570181601f8201121562002eec5780516200407b81620030dc565b946200408b604051968762002f48565b818652848087019260051b8401019380851162002eec57858401925b858410620040b9575050505050505090565b835183811162002eec578791620040d6848480948a010162003ff3565b815201930192620040a7565b9060208282031262002eec5781516001600160401b03811162002eec576200403d920162003ff356fe6101206040818152346200020a5760c0826200124980380380916200002582856200020f565b8339810103126200020a576200003b8262000249565b620000496020840162000249565b906200005783850162000249565b620000656060860162000249565b916200008260a06200007a6080890162000249565b970162000249565b60016000908155946001600160a01b03918216949193918515620001f257604492859492889286602098600154968b60018060a01b03198916176001558d519b8c9a8b99167f8be0079c531659141344cd1fd0a4f28419497f9722a3daafe3b4186f6b6457e08980a316928360805216928360a05260c05260e0526101009a8b5263095ea7b360e01b8452600484015260001960248401525af18015620001e857620001a3575b505051610fea91826200025f833960805182818161024601528181610a2301528181610bf40152610cdd015260a05182818161034a015281816105ff015281816107a101526109e2015260c05182818161036d01526108d3015260e0518281816101320152610396015251818181610662015261092a0152f35b6020813d8211620001df575b81620001be602093836200020f565b81010312620001db575180151503620001d8578062000129565b80fd5b5080fd5b3d9150620001af565b83513d84823e3d90fd5b8751631e4fbdf760e01b815260048101889052602490fd5b600080fd5b601f909101601f19168101906001600160401b038211908210176200023357604052565b634e487b7160e01b600052604160045260246000fd5b51906001600160a01b03821682036200020a5756fe6040608081526004908136101561001557600080fd5b600091823560e01c9081628cc26214610d6157816303e8497514610d445781630700037d14610d0c5781631176e90b14610cc85781632e17de7814610b2f5781632f4f21e21461090257816338af3eed146108be57816366fab57c146108a25781636e63c1591461086a578163715018a61461080a5781637306236d1461070f578163891ccdc9146106f25781638b876347146106ba5781638da5cb5b14610691578163966dae0e1461064d578163c0ca838a1461062e578163c54e44eb146105ea578163dc01f60d1461059f578163df136d6514610581578163e4d8732014610216578163e7eeb045146101f9578163f2fde38b14610165575063fa2af9da1461011f57600080fd5b34610161578160031936011261016157517f00000000000000000000000000000000000000000000000000000000000000006001600160a01b03168152602090f35b5080fd5b9050346101f55760203660031901126101f557610180610d87565b90610189610da2565b6001600160a01b039182169283156101df575050600154826bffffffffffffffffffffffff60a01b821617600155167f8be0079c531659141344cd1fd0a4f28419497f9722a3daafe3b4186f6b6457e08380a380f35b51631e4fbdf760e01b8152908101849052602490fd5b8280fd5b505034610161578160031936011261016157602090516127108152f35b838334610161578160031936011261016157610230610f3f565b80516370a0823160e01b815230848201526024937f00000000000000000000000000000000000000000000000000000000000000006001600160a01b03169160209081818881875afa9081156104df578691610554575b5084519063266d6a8360e11b82528382015281818881875afa80156104df578690610521575b6102bb915060025490610dce565b9283156104e9578451632d182be560e21b8152838101858152306020820181905260408201529091839183919082908a90829060600103925af180156104df579082916104b2575b5050611edc830291611edb19848404016104a05761076c84029261076b198585040161048e576127108094049360c8860286810460c80361047c57906103bb9291610392827f000000000000000000000000000000000000000000000000000000000000000094047f000000000000000000000000000000000000000000000000000000000000000085610f62565b04907f000000000000000000000000000000000000000000000000000000000000000090610f62565b600254968715908115610400575b5050507f3fb12fb590bb295327f3bfc48158ada0b1147f8f823e0c7a09b98b301d1867749495508351928352820152a16001815580f35b670de0b6b3a76400009182860292868404148615171561046a5761045957507f3fb12fb590bb295327f3bfc48158ada0b1147f8f823e0c7a09b98b301d186774969761044e91048254610e51565b9055859487806103c9565b634e487b7160e01b88526012835287fd5b50634e487b7160e01b88526011835287fd5b634e487b7160e01b8952601184528989fd5b634e487b7160e01b8752601182528787fd5b634e487b7160e01b8652601190528585fd5b813d83116104d8575b6104c58183610e9f565b810103126104d4578087610303565b8480fd5b503d6104bb565b85513d88823e3d90fd5b845162461bcd60e51b815280840183905260138189015272139bc81e5a595b19081d1bc81a185c9d995cdd606a1b6044820152606490fd5b508181813d831161054d575b6105378183610e9f565b81010312610549576102bb90516102ad565b8580fd5b503d61052d565b90508181813d831161057a575b61056b8183610e9f565b81010312610549575187610287565b503d610561565b9050346101f557826003193601126101f55760209250549051908152f35b505034610161576020366003190112610161576105e36020926105dd836105c4610d87565b6001600160a01b03811684526006875292205491610df1565b90610e51565b9051908152f35b505034610161578160031936011261016157517f00000000000000000000000000000000000000000000000000000000000000006001600160a01b03168152602090f35b5050346101615781600319360112610161576020906002549051908152f35b505034610161578160031936011261016157517f00000000000000000000000000000000000000000000000000000000000000006001600160a01b03168152602090f35b50503461016157816003193601126101615760015490516001600160a01b039091168152602090f35b5050346101615760203660031901126101615760209181906001600160a01b036106e2610d87565b1681526005845220549051908152f35b50503461016157816003193601126101615760209051611edc8152f35b919050346101f557826003193601126101f55761072a610f3f565b61073333610df1565b903384526020916006835261074c828620918254610e51565b90558254338552600583528185205560068252808420549283156107d35750907ffc30cddea38e2bf4d6ea7d3f9ed3b6ad7f176419f4963bd81318067a4aee73fe913385526006825284818120556107c584337f0000000000000000000000000000000000000000000000000000000000000000610f62565b519283523392a26001815580f35b82606492519162461bcd60e51b835282015260136024820152724e6f207265776172647320746f20636c61696d60681b6044820152fd5b8334610867578060031936011261086757610823610da2565b600180546001600160a01b0319811690915581906001600160a01b03167f8be0079c531659141344cd1fd0a4f28419497f9722a3daafe3b4186f6b6457e08280a380f35b80fd5b5050346101615760203660031901126101615760209181906001600160a01b03610892610d87565b1681526003845220549051908152f35b5050346101615781600319360112610161576020905160c88152f35b505034610161578160031936011261016157517f00000000000000000000000000000000000000000000000000000000000000006001600160a01b03168152602090f35b919050346101f557806003193601126101f55761091d610d87565b60243560018060a01b03807f00000000000000000000000000000000000000000000000000000000000000001694853303610aec5761095a610f3f565b8161096485610df1565b9416958688526020946006865261097f878a20918254610e51565b905581548789526005865286892055610999841515610e5e565b8551906323b872dd60e01b8683015260248201523060448201528360648201526064815260a0810181811067ffffffffffffffff821117610ad9578592610a0686936044938a527f0000000000000000000000000000000000000000000000000000000000000000610ed7565b8988519586948593636e553f6560e01b85528401523060248401527f0000000000000000000000000000000000000000000000000000000000000000165af18015610acf57610aa5575b507f9e71bc8eea02a63969f509818f2dafb9254532904319f9dbda79b67bd34a5f3d9284865260038352808620610a88838254610e51565b9055610a9682600254610e51565b60025551908152a26001815580f35b8290813d8311610ac8575b610aba8183610e9f565b810103126104d45738610a50565b503d610ab0565b84513d88823e3d90fd5b634e487b7160e01b895260418352602489fd5b606490602086519162461bcd60e51b8352820152601960248201527f5374616b696e67506f6f6c3a204f6e6c7920666163746f7279000000000000006044820152fd5b919050346101f557602080600319360112610c7d57823592610b4f610f3f565b610b5833610df1565b33865260068352610b6d848720918254610e51565b905580543386526005835283862055610b87841515610e5e565b33855260038252838386205410610c925781610bef9133875260038252848720610bb2878254610dce565b9055610bc086600254610dce565b6002558451632d182be560e21b8152908101868152336020820152306040820152909283918291606090910190565b0381887f00000000000000000000000000000000000000000000000000000000000000006001600160a01b03165af18015610c8857610c5a575b507f0f5bb82176feb1b5e747e28471aa92156a04d9f3ab9f45f28e2d704232b93f7591519283523392a26001815580f35b8190813d8311610c81575b610c6f8183610e9f565b81010312610c7d5738610c29565b8380fd5b503d610c65565b83513d87823e3d90fd5b915162461bcd60e51b8152918201526012602482015271496e73756666696369656e74207374616b6560701b6044820152606490fd5b505034610161578160031936011261016157517f00000000000000000000000000000000000000000000000000000000000000006001600160a01b03168152602090f35b5050346101615760203660031901126101615760209181906001600160a01b03610d34610d87565b1681526006845220549051908152f35b5050346101615781600319360112610161576020905161076c8152f35b505034610161576020366003190112610161576020906105e3610d82610d87565b610df1565b600435906001600160a01b0382168203610d9d57565b600080fd5b6001546001600160a01b03163303610db657565b60405163118cdaa760e01b8152336004820152602490fd5b91908203918211610ddb57565b634e487b7160e01b600052601160045260246000fd5b600454670de0b6b3a76400009182820291808304841490151715610ddb5760018060a01b03166000526003602052610e3c604060002054916005602052836040600020549104610dce565b90818102918183041490151715610ddb570490565b91908201809211610ddb57565b15610e6557565b60405162461bcd60e51b81526020600482015260126024820152710416d6f756e74206d757374206265203e20360741b6044820152606490fd5b90601f8019910116810190811067ffffffffffffffff821117610ec157604052565b634e487b7160e01b600052604160045260246000fd5b906000602091828151910182855af115610f33576000513d610f2a57506001600160a01b0381163b155b610f085750565b604051635274afe760e01b81526001600160a01b039091166004820152602490fd5b60011415610f01565b6040513d6000823e3d90fd5b600260005414610f50576002600055565b604051633ee5aeb560e01b8152600490fd5b60405163a9059cbb60e01b60208201526001600160a01b039092166024830152604480830193909352918152608081019167ffffffffffffffff831182841017610ec157610fb292604052610ed7565b56fea26469706673582212200ecd6b9ee7f30336d16fb0a96715817ce3ba2a265d7fa816fe537ebffaf951bc64736f6c6343000814003361014060409080825234620002b95760e081620016168038038091620000268285620002be565b833981010312620002b9576200003c81620002f8565b9160206200004c818401620002f8565b906200005a838501620002f8565b6200006860608601620002f8565b956200007760808701620002f8565b966200009460c06200008c60a08a01620002f8565b9801620002f8565b60016000908155956001600160a01b03918216938415620002a157600180546001600160a01b03198116871790915589519584929183167f8be0079c531659141344cd1fd0a4f28419497f9722a3daafe3b4186f6b6457e08b80a3169384156200026b57508116938415620002385792859492604492889795836080528560a0521660c05260e052610100998a526101209889528751958693849263095ea7b360e01b8452600484015260001960248401525af180156200022e57620001ed575b505050519061130892836200030e84396080518381816108f901528181610b4501528181610c63015261105f015260a0518381816103bb015281816104990152818161088901528181610afe015261100c015260c0518381816105d8015281816107190152610fae015260e0518381816107bd01526110d8015251828181610169015261110101525181818161031601526108180152f35b81813d831162000226575b620002048183620002be565b81010312620002225751801515036200021f57808062000155565b80fd5b5080fd5b503d620001f8565b84513d85823e3d90fd5b875162461bcd60e51b815260048101879052600c60248201526b496e76616c6964205553444360a01b6044820152606490fd5b62461bcd60e51b8152600481018790526011602482015270125b9d985b1a590810585d9948141bdbdb607a1b6044820152606490fd5b8851631e4fbdf760e01b815260048101899052602490fd5b600080fd5b601f909101601f19168101906001600160401b03821190821017620002e257604052565b634e487b7160e01b600052604160045260246000fd5b51906001600160a01b0382168203620002b95756fe6040608081526004908136101561001557600080fd5b600091823560e01c9081628cc26214610ce757816303e8497514610cca5781630700037d14610c9257816308a0167514610c4e5781630d9a34a214610c305781632257a73814610c115781632e17de7814610a595781632f4f21e2146107ec57816338af3eed146107a85781634585e33b14610748578163559fda331461070457816366fab57c146106e85781636e04ff0d146105985781636e63c15914610560578163715018a6146105025781637306236d14610407578163891ccdc9146103ea57816389a30271146103a65781638b8763471461036e5781638da5cb5b14610345578163966dae0e14610301578163c0ca838a146102e2578163dc01f60d14610297578163df136d6514610279578163e4d873201461024e578163e7eeb04514610231578163f2fde38b1461019c575063fa2af9da1461015657600080fd5b34610198578160031936011261019857517f00000000000000000000000000000000000000000000000000000000000000006001600160a01b03168152602090f35b5080fd5b90503461022d57602036600319011261022d576101b7610d0d565b906101c0610d6d565b6001600160a01b03918216928315610217575050600154826bffffffffffffffffffffffff60a01b821617600155167f8be0079c531659141344cd1fd0a4f28419497f9722a3daafe3b4186f6b6457e0600080a380f35b51631e4fbdf760e01b8152908101849052602490fd5b8280fd5b505034610198578160031936011261019857602090516127108152f35b8334610276578060031936011261027657610267610f0a565b61026f610f7f565b6001815580f35b80fd5b90503461022d578260031936011261022d5760209250549051908152f35b505034610198576020366003190112610198576102db6020926102d5836102bc610d0d565b6001600160a01b03811684526006875292205491610df4565b90610e54565b9051908152f35b5050346101985781600319360112610198576020906002549051908152f35b505034610198578160031936011261019857517f00000000000000000000000000000000000000000000000000000000000000006001600160a01b03168152602090f35b50503461019857816003193601126101985760015490516001600160a01b039091168152602090f35b5050346101985760203660031901126101985760209181906001600160a01b03610396610d0d565b1681526005845220549051908152f35b505034610198578160031936011261019857517f00000000000000000000000000000000000000000000000000000000000000006001600160a01b03168152602090f35b50503461019857816003193601126101985760209051611edc8152f35b9190503461022d578260031936011261022d57610422610f0a565b61042b33610df4565b9033845260209160068352610444828620918254610e54565b90558254338552600583528185205560068252808420549283156104cb5750907ffc30cddea38e2bf4d6ea7d3f9ed3b6ad7f176419f4963bd81318067a4aee73fe913385526006825284818120556104bd84337f0000000000000000000000000000000000000000000000000000000000000000610f2d565b519283523392a26001815580f35b82606492519162461bcd60e51b835282015260136024820152724e6f207265776172647320746f20636c61696d60681b6044820152fd5b833461027657806003193601126102765761051b610d6d565b600180546001600160a01b031981169091556000906001600160a01b03167f8be0079c531659141344cd1fd0a4f28419497f9722a3daafe3b4186f6b6457e08280a380f35b5050346101985760203660031901126101985760209181906001600160a01b03610588610d0d565b1681526003845220549051908152f35b828434610276576105a836610d23565b5050620151806105ba60075442610d99565b83516370a0823160e01b8152308187015291109360209182816024817f00000000000000000000000000000000000000000000000000000000000000006001600160a01b03165afa9081156106de5784916106ac575b5060025410856106a4575b508351908282019082821067ffffffffffffffff83111761068f5750848487928252808452815194859315158452828185015284518093850152815b83811061067857505060608094508284010152601f80199101168101030190f35b808601820151878201606001528694508101610657565b604190634e487b7160e01b6000525260246000fd5b94508561061b565b90508281813d83116106d7575b6106c38183610dbc565b810103126106d2575186610610565b600080fd5b503d6106b9565b85513d86823e3d90fd5b5050346101985781600319360112610198576020905160c88152f35b505034610198578160031936011261019857517f00000000000000000000000000000000000000000000000000000000000000006001600160a01b03168152602090f35b9190503461022d5761075936610d23565b50506201518061076b60075442610d99565b111561077a5782610267610f0a565b906020606492519162461bcd60e51b835282015260086024820152672a37b79039b7b7b760c11b6044820152fd5b505034610198578160031936011261019857517f00000000000000000000000000000000000000000000000000000000000000006001600160a01b03168152602090f35b90503461022d578160031936011261022d57610806610d0d565b9160248035926001600160a01b0391907f0000000000000000000000000000000000000000000000000000000000000000831633819003610a1757610849610f0a565b8361085388610df4565b971696878952600660205261086c868a20918254610e54565b90558154878952600560205285892055610887861515610e61565b7f0000000000000000000000000000000000000000000000000000000000000000938551916323b872dd60e01b6020840152848301523060448301528660648301526064825260a082019167ffffffffffffffff9281811084821117610a05578a92916108f691895287610ea2565b807f00000000000000000000000000000000000000000000000000000000000000001695863b1561022d57608490838951988994859363617ba03760e01b855216888401528b898401523060448401528160648401525af180156109fb576109b2575b87877f9e71bc8eea02a63969f509818f2dafb9254532904319f9dbda79b67bd34a5f3d6020898984865260038352808620610995838254610e54565b90556109a382600254610e54565b60025551908152a26001815580f35b83979497116109ea5750508452928160207f9e71bc8eea02a63969f509818f2dafb9254532904319f9dbda79b67bd34a5f3d38610959565b634e487b7160e01b84526041905282fd5b85513d8a823e3d90fd5b634e487b7160e01b8b5260418552858bfd5b506019606492602086519362461bcd60e51b85528401528201527f5374616b696e67506f6f6c3a204f6e6c7920666163746f7279000000000000006044820152fd5b9190503461022d57602080600319360112610bc657823592610a79610f0a565b610a8233610df4565b33865260068352610a97848720918254610e54565b905580543386526005835283862055610ab1841515610e61565b33855260038252838386205410610bdb5733855260038252828520610ad7858254610d99565b9055610ae584600254610d99565b6002558251631a4ca37b60e21b81526001600160a01b037f000000000000000000000000000000000000000000000000000000000000000081169282019283526020830186905233604084015290918391839182908990829060600103927f0000000000000000000000000000000000000000000000000000000000000000165af18015610bd157610ba3575b507f0f5bb82176feb1b5e747e28471aa92156a04d9f3ab9f45f28e2d704232b93f7591519283523392a26001815580f35b8190813d8311610bca575b610bb88183610dbc565b81010312610bc65738610b72565b8380fd5b503d610bae565b83513d87823e3d90fd5b915162461bcd60e51b8152918201526012602482015271496e73756666696369656e74207374616b6560701b6044820152606490fd5b5050346101985781600319360112610198576020906007549051908152f35b50503461019857816003193601126101985760209051620151808152f35b505034610198578160031936011261019857517f00000000000000000000000000000000000000000000000000000000000000006001600160a01b03168152602090f35b5050346101985760203660031901126101985760209181906001600160a01b03610cba610d0d565b1681526006845220549051908152f35b5050346101985781600319360112610198576020905161076c8152f35b505034610198576020366003190112610198576020906102db610d08610d0d565b610df4565b600435906001600160a01b03821682036106d257565b9060206003198301126106d25760043567ffffffffffffffff928382116106d257806023830112156106d25781600401359384116106d257602484830101116106d2576024019190565b6001546001600160a01b03163303610d8157565b60405163118cdaa760e01b8152336004820152602490fd5b91908203918211610da657565b634e487b7160e01b600052601160045260246000fd5b90601f8019910116810190811067ffffffffffffffff821117610dde57604052565b634e487b7160e01b600052604160045260246000fd5b600454670de0b6b3a76400009182820291808304841490151715610da65760018060a01b03166000526003602052610e3f604060002054916005602052836040600020549104610d99565b90818102918183041490151715610da6570490565b91908201809211610da657565b15610e6857565b60405162461bcd60e51b81526020600482015260126024820152710416d6f756e74206d757374206265203e20360741b6044820152606490fd5b906000602091828151910182855af115610efe576000513d610ef557506001600160a01b0381163b155b610ed35750565b604051635274afe760e01b81526001600160a01b039091166004820152602490fd5b60011415610ecc565b6040513d6000823e3d90fd5b600260005414610f1b576002600055565b604051633ee5aeb560e01b8152600490fd5b60405163a9059cbb60e01b60208201526001600160a01b039092166024830152604480830193909352918152608081019167ffffffffffffffff831182841017610dde57610f7d92604052610ea2565b565b604080516370a0823160e01b81523060048083019190915260249392916001600160a01b0390602090818188817f000000000000000000000000000000000000000000000000000000000000000087165afa9081156112c75760009161129a575b5060025490818111156112905790610ff791610d99565b92831561125a578451631a4ca37b60e21b81527f00000000000000000000000000000000000000000000000000000000000000008481166001600160a01b031683830190815260208101879052306040820152909484918391908290600090829060600103927f0000000000000000000000000000000000000000000000000000000000000000165af1801561124f57908391611226575b5050611edc840292611edb19858504016112125761076c850261076b19868204016111fe576127108091049460c887029087820460c8036111ea57906110fd83611126959493047f000000000000000000000000000000000000000000000000000000000000000085610f2d565b04907f000000000000000000000000000000000000000000000000000000000000000090610f2d565b60025496871590811561116a575b5050507f3fb12fb590bb295327f3bfc48158ada0b1147f8f823e0c7a09b98b301d186774949550426007558351928352820152a1565b670de0b6b3a7640000918286029286840414861517156111d6576111c357507f3fb12fb590bb295327f3bfc48158ada0b1147f8f823e0c7a09b98b301d18677496976111b891048254610e54565b905585943880611134565b634e487b7160e01b600090815260128452fd5b50634e487b7160e01b600090815260118452fd5b8a601186634e487b7160e01b600052526000fd5b88601184634e487b7160e01b600052526000fd5b87601183634e487b7160e01b600052526000fd5b813d8311611248575b6112398183610dbc565b810103126106d257813861108f565b503d61122f565b86513d6000823e3d90fd5b60138760649387519362461bcd60e51b855284015282015272139bc81e5a595b19081d1bc81a185c9d995cdd606a1b6044820152fd5b5050505050509050565b908282813d83116112c0575b6112b08183610dbc565b8101031261027657505138610fe0565b503d6112a6565b85513d6000823e3d90fdfea264697066735822122073c429679e56c6983855bccd3739323be01acfb3340f36c5412f05233176c97e64736f6c63430008140033a798e58a3abf40a0cddd1b6990c4a09d4634c57138970809952e1142a958bf7aa26469706673582212204c337df4c4a2fa5560ff64a384cec975a7c2271e241d27127e56825162859b6c64736f6c634300081400332f8788117e7eff1d82e926ec794901d17c78024a50270940304540a733656f0ddb74f4d32b97da9b3b9b907aa3fd5df938c018e13fe235d9883d0a0836c6bddb",
  "linkReferences": {},
  "deployedLinkReferences": {}
}