{
  "_format": "hh-sol-artifact-1",
  "contractName": "ReceiptOFT",
  "sourceName": "contracts/ReceiptOFT.sol",
  "abi": [
    {
      "inputs": [
        {
          "internalType": "string",
          "name": "_name",
          "type": "string"
        },
        {
          "internalType": "string",
          "name": "_symbol",
          "type": "string"
        },
        {
          "internalType": "address",
          "name": "_lzEndpoint",
          "type": "address"
        },
        {
          "internalType": "address",
          "name": "_delegate",
          "type": "address"
        }
      ],
      "stateMutability": "nonpayable",
      "type": "constructor"
    },
    {
      "inputs": [
        {
          "internalType": "address",
          "name": "spender",
          "type": "address"
        },
        {
          "internalType": "uint256",
          "name": "allowance",
          "type": "uint256"
        },
        {
          "internalType": "uint256",
          "name": "needed",
          "type": "uint256"
        }
      ],
      "name": "ERC20InsufficientAllowance",
      "type": "error"
    },
    {
      "inputs": [
        {
          "internalType": "address",
          "name": "sender",
          "type": "address"
        },
        {
          "internalType": "uint256",
          "name": "balance",
          "type": "uint256"
        },
        {
          "internalType": "uint256",
          "name": "needed",
          "type": "uint256"
        }
      ],
      "name": "ERC20InsufficientBalance",
      "type": "error"
    },
    {
      "inputs": [
        {
          "internalType": "address",
          "name": "approver",
          "type": "address"
        }
      ],
      "name": "ERC20InvalidApprover",
      "type": "error"
    },
    {
      "inputs": [
        {
          "internalType": "address",
          "name": "receiver",
          "type": "address"
        }
      ],
      "name": "ERC20InvalidReceiver",
      "type": "error"
    },
    {
      "inputs": [
        {
          "internalType": "address",
          "name": "sender",
          "type": "address"
        }
      ],
      "name": "ERC20InvalidSender",
      "type": "error"
    },
    {
      "inputs": [
        {
          "internalType": "address",
          "name": "spender",
          "type": "address"
        }
      ],
      "name": "ERC20InvalidSpender",
      "type": "error"
    },
    {
      "inputs": [],
      "name": "InvalidDelegate",
      "type": "error"
    },
    {
      "inputs": [],
      "name": "InvalidEndpointCall",
      "type": "error"
    },
    {
      "inputs": [],
      "name": "InvalidLocalDecimals",
      "type": "error"
    },
    {
      "inputs": [
        {
          "internalType": "bytes",
          "name": "options",
          "type": "bytes"
        }
      ],
      "name": "InvalidOptions",
      "type": "error"
    },
    {
      "inputs": [],
      "name": "LzTokenUnavailable",
      "type": "error"
    },
    {
      "inputs": [
        {
          "internalType": "uint32",
          "name": "eid",
          "type": "uint32"
        }
      ],
      "name": "NoPeer",
      "type": "error"
    },
    {
      "inputs": [
        {
          "internalType": "uint256",
          "name": "msgValue",
          "type": "uint256"
        }
      ],
      "name": "NotEnoughNative",
      "type": "error"
    },
    {
      "inputs": [
        {
          "internalType": "address",
          "name": "addr",
          "type": "address"
        }
      ],
      "name": "OnlyEndpoint",
      "type": "error"
    },
    {
      "inputs": [
        {
          "internalType": "uint32",
          "name": "eid",
          "type": "uint32"
        },
        {
          "internalType": "bytes32",
          "name": "sender",
          "type": "bytes32"
        }
      ],
      "name": "OnlyPeer",
      "type": "error"
    },
    {
      "inputs": [],
      "name": "OnlySelf",
      "type": "error"
    },
    {
      "inputs": [
        {
          "internalType": "address",
          "name": "owner",
          "type": "address"
        }
      ],
      "name": "OwnableInvalidOwner",
      "type": "error"
    },
    {
      "inputs": [
        {
          "internalType": "address",
          "name": "account",
          "type": "address"
        }
      ],
      "name": "OwnableUnauthorizedAccount",
      "type": "error"
    },
    {
      "inputs": [
        {
          "internalType": "address",
          "name": "token",
          "type": "address"
        }
      ],
      "name": "SafeERC20FailedOperation",
      "type": "error"
    },
    {
      "inputs": [
        {
          "internalType": "bytes",
          "name": "result",
          "type": "bytes"
        }
      ],
      "name": "SimulationResult",
      "type": "error"
    },
    {
      "inputs": [
        {
          "internalType": "uint256",
          "name": "amountLD",
          "type": "uint256"
        },
        {
          "internalType": "uint256",
          "name": "minAmountLD",
          "type": "uint256"
        }
      ],
      "name": "SlippageExceeded",
      "type": "error"
    },
    {
      "anonymous": false,
      "inputs": [
        {
          "indexed": true,
          "internalType": "address",
          "name": "owner",
          "type": "address"
        },
        {
          "indexed": true,
          "internalType": "address",
          "name": "spender",
          "type": "address"
        },
        {
          "indexed": false,
          "internalType": "uint256",
          "name": "value",
          "type": "uint256"
        }
      ],
      "name": "Approval",
      "type": "event"
    },
    {
      "anonymous": false,
      "inputs": [
        {
          "components": [
            {
              "internalType": "uint32",
              "name": "eid",
              "type": "uint32"
            },
            {
              "internalType": "uint16",
              "name": "msgType",
              "type": "uint16"
            },
            {
              "internalType": "bytes",
              "name": "options",
              "type": "bytes"
            }
          ],
          "indexed": false,
          "internalType": "struct EnforcedOptionParam[]",
          "name": "_enforcedOptions",
          "type": "tuple[]"
        }
      ],
      "name": "EnforcedOptionSet",
      "type": "event"
    },
    {
      "anonymous": false,
      "inputs": [
        {
          "indexed": false,
          "internalType": "address",
          "name": "inspector",
          "type": "address"
        }
      ],
      "name": "MsgInspectorSet",
      "type": "event"
    },
    {
      "anonymous": false,
      "inputs": [
        {
          "indexed": true,
          "internalType": "bytes32",
          "name": "guid",
          "type": "bytes32"
        },
        {
          "indexed": false,
          "internalType": "uint32",
          "name": "srcEid",
          "type": "uint32"
        },
        {
          "indexed": true,
          "internalType": "address",
          "name": "toAddress",
          "type": "address"
        },
        {
          "indexed": false,
          "internalType": "uint256",
          "name": "amountReceivedLD",
          "type": "uint256"
        }
      ],
      "name": "OFTReceived",
      "type": "event"
    },
    {
      "anonymous": false,
      "inputs": [
        {
          "indexed": true,
          "internalType": "bytes32",
          "name": "guid",
          "type": "bytes32"
        },
        {
          "indexed": false,
          "internalType": "uint32",
          "name": "dstEid",
          "type": "uint32"
        },
        {
          "indexed": true,
          "internalType": "address",
          "name": "fromAddress",
          "type": "address"
        },
        {
          "indexed": false,
          "internalType": "uint256",
          "name": "amountSentLD",
          "type": "uint256"
        },
        {
          "indexed": false,
          "internalType": "uint256",
          "name": "amountReceivedLD",
          "type": "uint256"
        }
      ],
      "name": "OFTSent",
      "type": "event"
    },
    {
      "anonymous": false,
      "inputs": [
        {
          "indexed": true,
          "internalType": "address",
          "name": "previousOwner",
          "type": "address"
        },
        {
          "indexed": true,
          "internalType": "address",
          "name": "newOwner",
          "type": "address"
        }
      ],
      "name": "OwnershipTransferred",
      "type": "event"
    },
    {
      "anonymous": false,
      "inputs": [
        {
          "indexed": false,
          "internalType": "uint32",
          "name": "eid",
          "type": "uint32"
        },
        {
          "indexed": false,
          "internalType": "bytes32",
          "name": "peer",
          "type": "bytes32"
        }
      ],
      "name": "PeerSet",
      "type": "event"
    },
    {
      "anonymous": false,
      "inputs": [
        {
          "indexed": false,
          "internalType": "address",
          "name": "preCrimeAddress",
          "type": "address"
        }
      ],
      "name": "PreCrimeSet",
      "type": "event"
    },
    {
      "anonymous": false,
      "inputs": [
        {
          "indexed": true,
          "internalType": "address",
          "name": "from",
          "type": "address"
        },
        {
          "indexed": true,
          "internalType": "address",
          "name": "to",
          "type": "address"
        },
        {
          "indexed": false,
          "internalType": "uint256",
          "name": "value",
          "type": "uint256"
        }
      ],
      "name": "Transfer",
      "type": "event"
    },
    {
      "inputs": [],
      "name": "SEND",
      "outputs": [
        {
          "internalType": "uint16",
          "name": "",
          "type": "uint16"
        }
      ],
      "stateMutability": "view",
      "type": "function"
    },
    {
      "inputs": [],
      "name": "SEND_AND_CALL",
      "outputs": [
        {
          "internalType": "uint16",
          "name": "",
          "type": "uint16"
        }
      ],
      "stateMutability": "view",
      "type": "function"
    },
    {
      "inputs": [
        {
          "components": [
            {
              "internalType": "uint32",
              "name": "srcEid",
              "type": "uint32"
            },
            {
              "internalType": "bytes32",
              "name": "sender",
              "type": "bytes32"
            },
            {
              "internalType": "uint64",
              "name": "nonce",
              "type": "uint64"
            }
          ],
          "internalType": "struct Origin",
          "name": "origin",
          "type": "tuple"
        }
      ],
      "name": "allowInitializePath",
      "outputs": [
        {
          "internalType": "bool",
          "name": "",
          "type": "bool"
        }
      ],
      "stateMutability": "view",
      "type": "function"
    },
    {
      "inputs": [
        {
          "internalType": "address",
          "name": "owner",
          "type": "address"
        },
        {
          "internalType": "address",
          "name": "spender",
          "type": "address"
        }
      ],
      "name": "allowance",
      "outputs": [
        {
          "internalType": "uint256",
          "name": "",
          "type": "uint256"
        }
      ],
      "stateMutability": "view",
      "type": "function"
    },
    {
      "inputs": [],
      "name": "approvalRequired",
      "outputs": [
        {
          "internalType": "bool",
          "name": "",
          "type": "bool"
        }
      ],
      "stateMutability": "pure",
      "type": "function"
    },
    {
      "inputs": [
        {
          "internalType": "address",
          "name": "spender",
          "type": "address"
        },
        {
          "internalType": "uint256",
          "name": "value",
          "type": "uint256"
        }
      ],
      "name": "approve",
      "outputs": [
        {
          "internalType": "bool",
          "name": "",
          "type": "bool"
        }
      ],
      "stateMutability": "nonpayable",
      "type": "function"
    },
    {
      "inputs": [
        {
          "internalType": "address",
          "name": "account",
          "type": "address"
        }
      ],
      "name": "balanceOf",
      "outputs": [
        {
          "internalType": "uint256",
          "name": "",
          "type": "uint256"
        }
      ],
      "stateMutability": "view",
      "type": "function"
    },
    {
      "inputs": [
        {
          "internalType": "uint32",
          "name": "_eid",
          "type": "uint32"
        },
        {
          "internalType": "uint16",
          "name": "_msgType",
          "type": "uint16"
        },
        {
          "internalType": "bytes",
          "name": "_extraOptions",
          "type": "bytes"
        }
      ],
      "name": "combineOptions",
      "outputs": [
        {
          "internalType": "bytes",
          "name": "",
          "type": "bytes"
        }
      ],
      "stateMutability": "view",
      "type": "function"
    },
    {
      "inputs": [
        {
          "internalType": "address",
          "name": "",
          "type": "address"
        }
      ],
      "name": "controllers",
      "outputs": [
        {
          "internalType": "bool",
          "name": "",
          "type": "bool"
        }
      ],
      "stateMutability": "view",
      "type": "function"
    },
    {
      "inputs": [],
      "name": "decimalConversionRate",
      "outputs": [
        {
          "internalType": "uint256",
          "name": "",
          "type": "uint256"
        }
      ],
      "stateMutability": "view",
      "type": "function"
    },
    {
      "inputs": [],
      "name": "decimals",
      "outputs": [
        {
          "internalType": "uint8",
          "name": "",
          "type": "uint8"
        }
      ],
      "stateMutability": "view",
      "type": "function"
    },
    {
      "inputs": [],
      "name": "endpoint",
      "outputs": [
        {
          "internalType": "contract ILayerZeroEndpointV2",
          "name": "",
          "type": "address"
        }
      ],
      "stateMutability": "view",
      "type": "function"
    },
    {
      "inputs": [
        {
          "internalType": "uint32",
          "name": "eid",
          "type": "uint32"
        },
        {
          "internalType": "uint16",
          "name": "msgType",
          "type": "uint16"
        }
      ],
      "name": "enforcedOptions",
      "outputs": [
        {
          "internalType": "bytes",
          "name": "enforcedOption",
          "type": "bytes"
        }
      ],
      "stateMutability": "view",
      "type": "function"
    },
    {
      "inputs": [
        {
          "components": [
            {
              "internalType": "uint32",
              "name": "srcEid",
              "type": "uint32"
            },
            {
              "internalType": "bytes32",
              "name": "sender",
              "type": "bytes32"
            },
            {
              "internalType": "uint64",
              "name": "nonce",
              "type": "uint64"
            }
          ],
          "internalType": "struct Origin",
          "name": "",
          "type": "tuple"
        },
        {
          "internalType": "bytes",
          "name": "",
          "type": "bytes"
        },
        {
          "internalType": "address",
          "name": "_sender",
          "type": "address"
        }
      ],
      "name": "isComposeMsgSender",
      "outputs": [
        {
          "internalType": "bool",
          "name": "",
          "type": "bool"
        }
      ],
      "stateMutability": "view",
      "type": "function"
    },
    {
      "inputs": [
        {
          "internalType": "uint32",
          "name": "_eid",
          "type": "uint32"
        },
        {
          "internalType": "bytes32",
          "name": "_peer",
          "type": "bytes32"
        }
      ],
      "name": "isPeer",
      "outputs": [
        {
          "internalType": "bool",
          "name": "",
          "type": "bool"
        }
      ],
      "stateMutability": "view",
      "type": "function"
    },
    {
      "inputs": [
        {
          "components": [
            {
              "internalType": "uint32",
              "name": "srcEid",
              "type": "uint32"
            },
            {
              "internalType": "bytes32",
              "name": "sender",
              "type": "bytes32"
            },
            {
              "internalType": "uint64",
              "name": "nonce",
              "type": "uint64"
            }
          ],
          "internalType": "struct Origin",
          "name": "_origin",
          "type": "tuple"
        },
        {
          "internalType": "bytes32",
          "name": "_guid",
          "type": "bytes32"
        },
        {
          "internalType": "bytes",
          "name": "_message",
          "type": "bytes"
        },
        {
          "internalType": "address",
          "name": "_executor",
          "type": "address"
        },
        {
          "internalType": "bytes",
          "name": "_extraData",
          "type": "bytes"
        }
      ],
      "name": "lzReceive",
      "outputs": [],
      "stateMutability": "payable",
      "type": "function"
    },
    {
      "inputs": [
        {
          "components": [
            {
              "components": [
                {
                  "internalType": "uint32",
                  "name": "srcEid",
                  "type": "uint32"
                },
                {
                  "internalType": "bytes32",
                  "name": "sender",
                  "type": "bytes32"
                },
                {
                  "internalType": "uint64",
                  "name": "nonce",
                  "type": "uint64"
                }
              ],
              "internalType": "struct Origin",
              "name": "origin",
              "type": "tuple"
            },
            {
              "internalType": "uint32",
              "name": "dstEid",
              "type": "uint32"
            },
            {
              "internalType": "address",
              "name": "receiver",
              "type": "address"
            },
            {
              "internalType": "bytes32",
              "name": "guid",
              "type": "bytes32"
            },
            {
              "internalType": "uint256",
              "name": "value",
              "type": "uint256"
            },
            {
              "internalType": "address",
              "name": "executor",
              "type": "address"
            },
            {
              "internalType": "bytes",
              "name": "message",
              "type": "bytes"
            },
            {
              "internalType": "bytes",
              "name": "extraData",
              "type": "bytes"
            }
          ],
          "internalType": "struct InboundPacket[]",
          "name": "_packets",
          "type": "tuple[]"
        }
      ],
      "name": "lzReceiveAndRevert",
      "outputs": [],
      "stateMutability": "payable",
      "type": "function"
    },
    {
      "inputs": [
        {
          "components": [
            {
              "internalType": "uint32",
              "name": "srcEid",
              "type": "uint32"
            },
            {
              "internalType": "bytes32",
              "name": "sender",
              "type": "bytes32"
            },
            {
              "internalType": "uint64",
              "name": "nonce",
              "type": "uint64"
            }
          ],
          "internalType": "struct Origin",
          "name": "_origin",
          "type": "tuple"
        },
        {
          "internalType": "bytes32",
          "name": "_guid",
          "type": "bytes32"
        },
        {
          "internalType": "bytes",
          "name": "_message",
          "type": "bytes"
        },
        {
          "internalType": "address",
          "name": "_executor",
          "type": "address"
        },
        {
          "internalType": "bytes",
          "name": "_extraData",
          "type": "bytes"
        }
      ],
      "name": "lzReceiveSimulate",
      "outputs": [],
      "stateMutability": "payable",
      "type": "function"
    },
    {
      "inputs": [
        {
          "internalType": "address",
          "name": "_to",
          "type": "address"
        },
        {
          "internalType": "uint256",
          "name": "_amount",
          "type": "uint256"
        }
      ],
      "name": "mint",
      "outputs": [],
      "stateMutability": "nonpayable",
      "type": "function"
    },
    {
      "inputs": [],
      "name": "msgInspector",
      "outputs": [
        {
          "internalType": "address",
          "name": "",
          "type": "address"
        }
      ],
      "stateMutability": "view",
      "type": "function"
    },
    {
      "inputs": [],
      "name": "name",
      "outputs": [
        {
          "internalType": "string",
          "name": "",
          "type": "string"
        }
      ],
      "stateMutability": "view",
      "type": "function"
    },
    {
      "inputs": [
        {
          "internalType": "uint32",
          "name": "",
          "type": "uint32"
        },
        {
          "internalType": "bytes32",
          "name": "",
          "type": "bytes32"
        }
      ],
      "name": "nextNonce",
      "outputs": [
        {
          "internalType": "uint64",
          "name": "nonce",
          "type": "uint64"
        }
      ],
      "stateMutability": "view",
      "type": "function"
    },
    {
      "inputs": [],
      "name": "oApp",
      "outputs": [
        {
          "internalType": "address",
          "name": "",
          "type": "address"
        }
      ],
      "stateMutability": "view",
      "type": "function"
    },
    {
      "inputs": [],
      "name": "oAppVersion",
      "outputs": [
        {
          "internalType": "uint64",
          "name": "senderVersion",
          "type": "uint64"
        },
        {
          "internalType": "uint64",
          "name": "receiverVersion",
          "type": "uint64"
        }
      ],
      "stateMutability": "pure",
      "type": "function"
    },
    {
      "inputs": [],
      "name": "oftVersion",
      "outputs": [
        {
          "internalType": "bytes4",
          "name": "interfaceId",
          "type": "bytes4"
        },
        {
          "internalType": "uint64",
          "name": "version",
          "type": "uint64"
        }
      ],
      "stateMutability": "pure",
      "type": "function"
    },
    {
      "inputs": [],
      "name": "owner",
      "outputs": [
        {
          "internalType": "address",
          "name": "",
          "type": "address"
        }
      ],
      "stateMutability": "view",
      "type": "function"
    },
    {
      "inputs": [
        {
          "internalType": "uint32",
          "name": "eid",
          "type": "uint32"
        }
      ],
      "name": "peers",
      "outputs": [
        {
          "internalType": "bytes32",
          "name": "peer",
          "type": "bytes32"
        }
      ],
      "stateMutability": "view",
      "type": "function"
    },
    {
      "inputs": [],
      "name": "preCrime",
      "outputs": [
        {
          "internalType": "address",
          "name": "",
          "type": "address"
        }
      ],
      "stateMutability": "view",
      "type": "function"
    },
    {
      "inputs": [
        {
          "components": [
            {
              "internalType": "uint32",
              "name": "dstEid",
              "type": "uint32"
            },
            {
              "internalType": "bytes32",
              "name": "to",
              "type": "bytes32"
            },
            {
              "internalType": "uint256",
              "name": "amountLD",
              "type": "uint256"
            },
            {
              "internalType": "uint256",
              "name": "minAmountLD",
              "type": "uint256"
            },
            {
              "internalType": "bytes",
              "name": "extraOptions",
              "type": "bytes"
            },
            {
              "internalType": "bytes",
              "name": "composeMsg",
              "type": "bytes"
            },
            {
              "internalType": "bytes",
              "name": "oftCmd",
              "type": "bytes"
            }
          ],
          "internalType": "struct SendParam",
          "name": "_sendParam",
          "type": "tuple"
        }
      ],
      "name": "quoteOFT",
      "outputs": [
        {
          "components": [
            {
              "internalType": "uint256",
              "name": "minAmountLD",
              "type": "uint256"
            },
            {
              "internalType": "uint256",
              "name": "maxAmountLD",
              "type": "uint256"
            }
          ],
          "internalType": "struct OFTLimit",
          "name": "oftLimit",
          "type": "tuple"
        },
        {
          "components": [
            {
              "internalType": "int256",
              "name": "feeAmountLD",
              "type": "int256"
            },
            {
              "internalType": "string",
              "name": "description",
              "type": "string"
            }
          ],
          "internalType": "struct OFTFeeDetail[]",
          "name": "oftFeeDetails",
          "type": "tuple[]"
        },
        {
          "components": [
            {
              "internalType": "uint256",
              "name": "amountSentLD",
              "type": "uint256"
            },
            {
              "internalType": "uint256",
              "name": "amountReceivedLD",
              "type": "uint256"
            }
          ],
          "internalType": "struct OFTReceipt",
          "name": "oftReceipt",
          "type": "tuple"
        }
      ],
      "stateMutability": "view",
      "type": "function"
    },
    {
      "inputs": [
        {
          "components": [
            {
              "internalType": "uint32",
              "name": "dstEid",
              "type": "uint32"
            },
            {
              "internalType": "bytes32",
              "name": "to",
              "type": "bytes32"
            },
            {
              "internalType": "uint256",
              "name": "amountLD",
              "type": "uint256"
            },
            {
              "internalType": "uint256",
              "name": "minAmountLD",
              "type": "uint256"
            },
            {
              "internalType": "bytes",
              "name": "extraOptions",
              "type": "bytes"
            },
            {
              "internalType": "bytes",
              "name": "composeMsg",
              "type": "bytes"
            },
            {
              "internalType": "bytes",
              "name": "oftCmd",
              "type": "bytes"
            }
          ],
          "internalType": "struct SendParam",
          "name": "_sendParam",
          "type": "tuple"
        },
        {
          "internalType": "bool",
          "name": "_payInLzToken",
          "type": "bool"
        }
      ],
      "name": "quoteSend",
      "outputs": [
        {
          "components": [
            {
              "internalType": "uint256",
              "name": "nativeFee",
              "type": "uint256"
            },
            {
              "internalType": "uint256",
              "name": "lzTokenFee",
              "type": "uint256"
            }
          ],
          "internalType": "struct MessagingFee",
          "name": "msgFee",
          "type": "tuple"
        }
      ],
      "stateMutability": "view",
      "type": "function"
    },
    {
      "inputs": [],
      "name": "renounceOwnership",
      "outputs": [],
      "stateMutability": "nonpayable",
      "type": "function"
    },
    {
      "inputs": [
        {
          "components": [
            {
              "internalType": "uint32",
              "name": "dstEid",
              "type": "uint32"
            },
            {
              "internalType": "bytes32",
              "name": "to",
              "type": "bytes32"
            },
            {
              "internalType": "uint256",
              "name": "amountLD",
              "type": "uint256"
            },
            {
              "internalType": "uint256",
              "name": "minAmountLD",
              "type": "uint256"
            },
            {
              "internalType": "bytes",
              "name": "extraOptions",
              "type": "bytes"
            },
            {
              "internalType": "bytes",
              "name": "composeMsg",
              "type": "bytes"
            },
            {
              "internalType": "bytes",
              "name": "oftCmd",
              "type": "bytes"
            }
          ],
          "internalType": "struct SendParam",
          "name": "_sendParam",
          "type": "tuple"
        },
        {
          "components": [
            {
              "internalType": "uint256",
              "name": "nativeFee",
              "type": "uint256"
            },
            {
              "internalType": "uint256",
              "name": "lzTokenFee",
              "type": "uint256"
            }
          ],
          "internalType": "struct MessagingFee",
          "name": "_fee",
          "type": "tuple"
        },
        {
          "internalType": "address",
          "name": "_refundAddress",
          "type": "address"
        }
      ],
      "name": "send",
      "outputs": [
        {
          "components": [
            {
              "internalType": "bytes32",
              "name": "guid",
              "type": "bytes32"
            },
            {
              "internalType": "uint64",
              "name": "nonce",
              "type": "uint64"
            },
            {
              "components": [
                {
                  "internalType": "uint256",
                  "name": "nativeFee",
                  "type": "uint256"
                },
                {
                  "internalType": "uint256",
                  "name": "lzTokenFee",
                  "type": "uint256"
                }
              ],
              "internalType": "struct MessagingFee",
              "name": "fee",
              "type": "tuple"
            }
          ],
          "internalType": "struct MessagingReceipt",
          "name": "msgReceipt",
          "type": "tuple"
        },
        {
          "components": [
            {
              "internalType": "uint256",
              "name": "amountSentLD",
              "type": "uint256"
            },
            {
              "internalType": "uint256",
              "name": "amountReceivedLD",
              "type": "uint256"
            }
          ],
          "internalType": "struct OFTReceipt",
          "name": "oftReceipt",
          "type": "tuple"
        }
      ],
      "stateMutability": "payable",
      "type": "function"
    },
    {
      "inputs": [
        {
          "internalType": "address",
          "name": "_controller",
          "type": "address"
        },
        {
          "internalType": "bool",
          "name": "_enabled",
          "type": "bool"
        }
      ],
      "name": "setController",
      "outputs": [],
      "stateMutability": "nonpayable",
      "type": "function"
    },
    {
      "inputs": [
        {
          "internalType": "address",
          "name": "_delegate",
          "type": "address"
        }
      ],
      "name": "setDelegate",
      "outputs": [],
      "stateMutability": "nonpayable",
      "type": "function"
    },
    {
      "inputs": [
        {
          "components": [
            {
              "internalType": "uint32",
              "name": "eid",
              "type": "uint32"
            },
            {
              "internalType": "uint16",
              "name": "msgType",
              "type": "uint16"
            },
            {
              "internalType": "bytes",
              "name": "options",
              "type": "bytes"
            }
          ],
          "internalType": "struct EnforcedOptionParam[]",
          "name": "_enforcedOptions",
          "type": "tuple[]"
        }
      ],
      "name": "setEnforcedOptions",
      "outputs": [],
      "stateMutability": "nonpayable",
      "type": "function"
    },
    {
      "inputs": [
        {
          "internalType": "address",
          "name": "_msgInspector",
          "type": "address"
        }
      ],
      "name": "setMsgInspector",
      "outputs": [],
      "stateMutability": "nonpayable",
      "type": "function"
    },
    {
      "inputs": [
        {
          "internalType": "uint32",
          "name": "_eid",
          "type": "uint32"
        },
        {
          "internalType": "bytes32",
          "name": "_peer",
          "type": "bytes32"
        }
      ],
      "name": "setPeer",
      "outputs": [],
      "stateMutability": "nonpayable",
      "type": "function"
    },
    {
      "inputs": [
        {
          "internalType": "address",
          "name": "_preCrime",
          "type": "address"
        }
      ],
      "name": "setPreCrime",
      "outputs": [],
      "stateMutability": "nonpayable",
      "type": "function"
    },
    {
      "inputs": [],
      "name": "sharedDecimals",
      "outputs": [
        {
          "internalType": "uint8",
          "name": "",
          "type": "uint8"
        }
      ],
      "stateMutability": "view",
      "type": "function"
    },
    {
      "inputs": [],
      "name": "symbol",
      "outputs": [
        {
          "internalType": "string",
          "name": "",
          "type": "string"
        }
      ],
      "stateMutability": "view",
      "type": "function"
    },
    {
      "inputs": [],
      "name": "token",
      "outputs": [
        {
          "internalType": "address",
          "name": "",
          "type": "address"
        }
      ],
      "stateMutability": "view",
      "type": "function"
    },
    {
      "inputs": [],
      "name": "totalSupply",
      "outputs": [
        {
          "internalType": "uint256",
          "name": "",
          "type": "uint256"
        }
      ],
      "stateMutability": "view",
      "type": "function"
    },
    {
      "inputs": [
        {
          "internalType": "address",
          "name": "to",
          "type": "address"
        },
        {
          "internalType": "uint256",
          "name": "value",
          "type": "uint256"
        }
      ],
      "name": "transfer",
      "outputs": [
        {
          "internalType": "bool",
          "name": "",
          "type": "bool"
        }
      ],
      "stateMutability": "nonpayable",
      "type": "function"
    },
    {
      "inputs": [
        {
          "internalType": "address",
          "name": "from",
          "type": "address"
        },
        {
          "internalType": "address",
          "name": "to",
          "type": "address"
        },
        {
          "internalType": "uint256",
          "name": "value",
          "type": "uint256"
        }
      ],
      "name": "transferFrom",
      "outputs": [
        {
          "internalType": "bool",
          "name": "",
          "type": "bool"
        }
      ],
      "stateMutability": "nonpayable",
      "type": "function"
    },
    {
      "inputs": [
        {
          "internalType": "address",
          "name": "newOwner",
          "type": "address"
        }
      ],
      "name": "transferOwnership",
      "outputs": [],
      "stateMutability": "nonpayable",
      "type": "function"
    }
  ],
  "bytecode": "0x60c0604090808252346200046c5760006200323c803803809162000024828662000471565b8439820191608081840312620004685780516001600160401b03929083811162000468578462000056918401620004ab565b91602094858201518581116200044c579062000074918301620004ab565b9060606200008488830162000522565b916001600160a01b039182916200009c910162000522565b16918215620004505784546001600160a01b0319811684178655839083167f8be0079c531659141344cd1fd0a4f28419497f9722a3daafe3b4186f6b6457e08780a31680608052803b156200044c578390818951809263ca5eb5e160e01b8252600495868301528160249889925af1801562000442576200041f575b509064e8d4a5100060a0528451938685116200032a57600854946001968787811c9716801562000414575b8a88101462000402578190601f97888111620003ae575b508a90888311600114620003475786926200033b575b5050600019600383901b1c191690871b176008555b83519687116200032a57600954918683811c931680156200031f575b898410146200030e575050838111620002c5575b50859285116001146200025c57939450849291908362000250575b50501b916000199060031b1c1916176009555b51612d04908162000538823960805181818161075a01528181610c4d0152818161101701528181611887015281816119a4015281816123780152612424015260a051818181610b97015281816112d70152818161173c015281816125a30152818161271a01526127690152f35b015192503880620001d0565b6009815285812093958591601f198316915b88838310620002aa575050501062000290575b505050811b01600955620001e3565b015160001960f88460031b161c1916905538808062000281565b8587015188559096019594850194879350908101906200026e565b600982528682208480880160051c82019289891062000304575b0160051c019085905b828110620002f8575050620001b5565b838155018590620002e8565b92508192620002df565b634e487b7160e01b84526022905282fd5b92607f1692620001a1565b634e487b7160e01b83526041825282fd5b01519050388062000170565b600887528b87208a94509190601f198416888e5b8282106200039657505084116200037c575b505050811b0160085562000185565b015160001960f88460031b161c191690553880806200036d565b8385015186558d979095019493840193018e6200035b565b909150600886528a86208880850160051c8201928d8610620003f8575b918b91869594930160051c01915b828110620003e95750506200015a565b8881558594508b9101620003d9565b92508192620003cb565b634e487b7160e01b8552602284528285fd5b96607f169662000143565b868111620004305788523862000118565b5060418492634e487b7160e01b835252fd5b89513d84823e3d90fd5b8380fd5b8851631e4fbdf760e01b815260048101869052602490fd5b5080fd5b600080fd5b601f909101601f19168101906001600160401b038211908210176200049557604052565b634e487b7160e01b600052604160045260246000fd5b919080601f840112156200046c578251906001600160401b038211620004955760405191602091620004e7601f8301601f191684018562000471565b8184528282870101116200046c5760005b8181106200050e57508260009394955001015290565b8581018301518482018401528201620004f8565b51906001600160a01b03821682036200046c5756fe6080604052600436101561001257600080fd5b60003560e01c806306fdde03146102e2578063095ea7b3146102dd5780630d35b415146102d8578063111ecdad146102d357806313137d65146102ce578063134d4f25146102c9578063156a0d0f146102c457806317442b70146102bf57806318160ddd146102ba5780631f5e1334146102b557806323b872dd146102b0578063313ce567146102ab5780633400288b146102a65780633b6f743b146102a157806340c10f191461029c57806352ae2879146102105780635535d461146102975780635a0dfe4d146102925780635e280f111461028d5780636fc1b31e1461028857806370a0823114610283578063715018a61461027e5780637d25a05e1461027957806382413eac14610274578063857749b01461026f5780638da5cb5b1461026a57806395d89b4114610265578063963efcaa146102605780639f68b9641461025b578063a9059cbb14610256578063b731ea0a14610251578063b98bd0701461024c578063bb0b6a5314610247578063bc70b35414610242578063bd815db01461023d578063c7c7f5b314610238578063ca5eb5e114610233578063d045a0dc1461022e578063d424388514610229578063da8c229e14610224578063dd62ed3e1461021f578063e0dba60f1461021a578063f2fde38b14610215578063fc0c546a146102105763ff7bd03d1461020b57600080fd5b611c47565b610d74565b611bbb565b611b60565b611afd565b611abb565b611a4b565b6118ef565b611856565b6116d0565b611529565b6114d5565b61149a565b6113c0565b61134b565b611316565b6112fa565b6112bf565b611218565b6111ef565b6111d3565b611175565b61114e565b6110f3565b6110b6565b611046565b611001565b610fb9565b610f3a565b610cf3565b610b3a565b610aa9565b610a7f565b6109ca565b6109ae565b610990565b61096e565b610947565b61092b565b61073f565b610674565b6105ce565b610449565b610353565b60009103126102f257565b600080fd5b60005b83811061030a5750506000910152565b81810151838201526020016102fa565b90602091610333815180928185528580860191016102f7565b601f01601f1916010190565b90602061035092818152019061031a565b90565b346102f25760008060031936011261043557604051908060085461037681610daf565b8085529160019180831690811561040b57506001146103b0575b6103ac856103a081870382610f19565b6040519182918261033f565b0390f35b9250600883527ff3f7a9fe364faab93b216da50a3214154f22a0a2b415b23a84c8169e8b636ee35b8284106103f35750505081016020016103a0826103ac610390565b805460208587018101919091529093019281016103d8565b8695506103ac969350602092506103a094915060ff191682840152151560051b8201019293610390565b80fd5b6001600160a01b038116036102f257565b346102f25760403660031901126102f25760043561046681610438565b60243533156104fe576001600160a01b0382169182156104e55733600090815260066020526040902082916104ad915b9060018060a01b0316600052602052604060002090565b556040519081527f8c5be1e5ebec7d5bd14f71427d1e84f3dd0314c0f7b2291e5b200ac8c7c3b92560203392a3602060405160018152f35b604051634a1406b160e11b815260006004820152602490fd5b60405163e602df0560e01b815260006004820152602490fd5b908160e09103126102f25790565b9392916105408560a081019360208091805184520151910152565b60409160a083870152815180915260c086019160c08260051b880101936020809201936000915b84831061058f5750505050505090606061058d9294019060208091805184520151910152565b565b90919293949584806105be6001938d60bf1990820301875285838c51805184520151918185820152019061031a565b9801930193019194939290610567565b346102f25760203660031901126102f2576001600160401b036004358181116102f2576105ff903690600401610517565b90610608612195565b50610611612195565b506040519061061f82610e95565b6000825260208201526103ac6106586040519361063b85610ee3565b6000855261064881611c99565b5060406060820135910135612760565b610660611cdb565b918252602082015260405193849384610525565b346102f25760003660031901126102f2576004546040516001600160a01b039091168152602090f35b60609060031901126102f257600490565b9181601f840112156102f2578235916001600160401b0383116102f257602083818601950101116102f257565b600319810160e081126102f2576060136102f257600491606435916001600160401b03906084358281116102f257816107159187016106ae565b9390939260a43561072581610438565b9260c4359182116102f25761073b9188016106ae565b9091565b610748366106db565b50929492506001600160a01b039190507f0000000000000000000000000000000000000000000000000000000000000000821633810361091357833561078d81610a9b565b61079681611ca3565b9060208601358092036108de5750506107be6107b283886128a2565b6001600160a01b031690565b916107e46107d46107cf838a6128ae565b61270c565b6107dd87611c99565b50846126d5565b809760288311610835575b5050505061083061080e600080516020612c8f83398151915294611c99565b956040519384931696836020909392919363ffffffff60408201951681520152565b0390a3005b90610860929161085a61084a60408a016126a0565b936108548a611c99565b926128c0565b926127ba565b90803b156102f257604051633e5ac80960e11b8152916000918391829084908290610890908c8a600485016126aa565b03925af180156108d957600080516020612c8f833981519152946108309261080e926108c0575b889196506107ef565b806108cd6108d392610ed0565b806102e7565b386108b7565b611c8d565b6108e781610a9b565b60405163309afaf360e21b815263ffffffff9190911660048201526024810191909152604490fd5b0390fd5b6040516391ac5e4f60e01b8152336004820152602490fd5b346102f25760003660031901126102f257602060405160028152f35b346102f25760003660031901126102f2576040805162b9270b60e21b815260016020820152f35b346102f25760003660031901126102f257604080516001815260026020820152f35b346102f25760003660031901126102f2576020600754604051908152f35b346102f25760003660031901126102f257602060405160018152f35b346102f25760603660031901126102f2576004356109e781610438565b6024356109f381610438565b6001600160a01b03821660009081526006602090815260408083203384529091529020604435919054926000198410610a3d575b610a319350612a0d565b60405160018152602090f35b828410610a5957610a5483610a3195033383612c54565b610a27565b604051637dc7a0d960e11b81523360048201526024810185905260448101849052606490fd5b346102f25760003660031901126102f257602060405160128152f35b63ffffffff8116036102f257565b346102f25760403660031901126102f2577f238399d427b947898edb290f5ff0f9109849b1c3ba196a42e35f00c50a54b98b600435610ae781610a9b565b60243590610af36129e1565b63ffffffff8116600052600160205281604060002055610b2b604051928392836020909392919363ffffffff60408201951681520152565b0390a1005b801515036102f257565b346102f2576040806003193601126102f2576004356001600160401b0381116102f257610b6b903690600401610517565b90602435610b7881610b30565b610b80612195565b506060830135833593610b9285610a9b565b610bc87f0000000000000000000000000000000000000000000000000000000000000000610bc38187850135612740565b6126f9565b91808310610cd657508392610be4610c499693610c2e93612592565b90610bee85610a9b565b610bf6612195565b50610c0085611ca3565b610c17610c0b611ce8565b63ffffffff9097168752565b602086015285850152606084015215156080830152565b815180948192631bb8518b60e31b83523090600484016121ea565b03817f00000000000000000000000000000000000000000000000000000000000000006001600160a01b03165afa9081156108d9576103ac92600092610ca7575b505191829182815181526020918201519181019190915260400190565b81610cc89293503d8411610ccf575b610cc08183610f19565b8101906121d6565b9038610c8a565b503d610cb6565b826044918651916371c4efed60e01b835260048301526024820152fd5b346102f25760403660031901126102f257600435610d1081610438565b33600052600a60205260ff6040600020541615610d3657610d349060243590612bf1565b005b60405162461bcd60e51b8152602060048201526016602482015275139bdd08185d5d1a1bdc9a5e9959081d1bc81b5a5b9d60521b6044820152606490fd5b346102f25760003660031901126102f2576020604051308152f35b6024359061ffff821682036102f257565b359061ffff821682036102f257565b90600182811c92168015610ddf575b6020831014610dc957565b634e487b7160e01b600052602260045260246000fd5b91607f1691610dbe565b9060009291805491610dfa83610daf565b918282526001938481169081600014610e5c5750600114610e1c575b50505050565b90919394506000526020928360002092846000945b838610610e48575050505001019038808080610e16565b805485870183015294019385908201610e31565b9294505050602093945060ff191683830152151560051b01019038808080610e16565b634e487b7160e01b600052604160045260246000fd5b604081019081106001600160401b03821117610eb057604052565b610e7f565b606081019081106001600160401b03821117610eb057604052565b6001600160401b038111610eb057604052565b602081019081106001600160401b03821117610eb057604052565b60a081019081106001600160401b03821117610eb057604052565b90601f801991011681019081106001600160401b03821117610eb057604052565b346102f25760403660031901126102f2576103ac610f9e610fa5610f92600435610f6381610a9b565b63ffffffff610f70610d8f565b9116600052600360205260406000209061ffff16600052602052604060002090565b60405192838092610de9565b0382610f19565b60405191829160208352602083019061031a565b346102f25760403660031901126102f2576020610ff7600435610fdb81610a9b565b6024359063ffffffff1660005260016020526040600020541490565b6040519015158152f35b346102f25760003660031901126102f2576040517f00000000000000000000000000000000000000000000000000000000000000006001600160a01b03168152602090f35b346102f25760203660031901126102f2577ff0be4f1e87349231d80c36b33f9e8639658eeaf474014dee15a3e6a4d4414197602060043561108681610438565b61108e6129e1565b600480546001600160a01b0319166001600160a01b03929092169182179055604051908152a1005b346102f25760203660031901126102f2576004356110d381610438565b60018060a01b031660005260056020526020604060002054604051908152f35b346102f2576000806003193601126104355761110d6129e1565b80546001600160a01b03198116825581906001600160a01b03167f8be0079c531659141344cd1fd0a4f28419497f9722a3daafe3b4186f6b6457e08280a380f35b346102f25760403660031901126102f25761116a600435610a9b565b602060405160008152f35b346102f25760a03660031901126102f25761118f3661069d565b506064356001600160401b0381116102f2576111af9036906004016106ae565b505060206084356111bf81610438565b6040516001600160a01b0390911630148152f35b346102f25760003660031901126102f257602060405160068152f35b346102f25760003660031901126102f2576000546040516001600160a01b039091168152602090f35b346102f25760008060031936011261043557604051908060095461123b81610daf565b8085529160019180831690811561040b5750600114611264576103ac856103a081870382610f19565b9250600983527f6e1540171b6c0c960b71a7020d9f60077f6af931a8bbf590da0223dacf75c7af5b8284106112a75750505081016020016103a0826103ac610390565b8054602085870181019190915290930192810161128c565b346102f25760003660031901126102f25760206040517f00000000000000000000000000000000000000000000000000000000000000008152f35b346102f25760003660031901126102f257602060405160008152f35b346102f25760403660031901126102f25761134060043561133681610438565b6024359033612a0d565b602060405160018152f35b346102f25760003660031901126102f2576002546040516001600160a01b039091168152602090f35b9060206003198301126102f2576004356001600160401b03928382116102f257806023830112156102f25781600401359384116102f25760248460051b830101116102f2576024019190565b346102f2576113ce36611374565b906113d76129e1565b6113e082611cf5565b9060406113ef81519384610f19565b8383526020938484019060051b8301923684116102f25780915b84831061141957610d3486611f62565b6001600160401b039083358281116102f2578301916060833603126102f25785519261144484610eb5565b803561144f81610a9b565b845261145c8a8201610da0565b8a850152868101359182116102f257019036601f830112156102f257889261148b849336908581359101611d27565b87820152815201920191611409565b346102f25760203660031901126102f25763ffffffff6004356114bc81610a9b565b1660005260016020526020604060002054604051908152f35b346102f25760603660031901126102f2576004356114f281610a9b565b6114fa610d8f565b604435906001600160401b0382116102f2576103ac92611521610fa59336906004016106ae565b9290916120b7565b61153236611374565b60005b81811061159f57604051638e9e709960e01b8152600081600481335afa80156108d95761090f9160009161157e575b50604051638351eea760e01b81529182916004830161033f565b611599913d8091833e6115918183610f19565b810190612983565b82611564565b6115aa8183856128dc565b906115dc6115d86115ba84611c99565b60208501359063ffffffff1660005260016020526040600020541490565b1590565b611675576115ee610100830183612526565b926115fb60e082016128ff565b9061160a610120820182612526565b959095303b156102f25760009461164060c092604051998a9788968795633411683760e21b875260a08a01358a60048901612909565b03920135305af19182156108d95761165d92611662575b50611d74565b611535565b806108cd61166f92610ed0565b38611657565b61165d9150611d74565b91608061058d9294936116bf604060c0830197805184526001600160401b0360208201511660208501520151604083019060208091805184520151910152565b019060208091805184520151910152565b60803660031901126102f2576004356001600160401b0381116102f2576116fb903690600401610517565b6040806023193601126102f2576064359061171582610438565b61171d612258565b50611726612195565b506060830135916117378435610a9b565b6117687f0000000000000000000000000000000000000000000000000000000000000000610bc38185880135612740565b928084106118395750331561182157906117ac6103ac926117898533612b18565b6117938587612592565b61179c88611c99565b916117a636612280565b926122fb565b926117b5611cdb565b948186528160208701527f85496b760a4b7f8d66384b9df21b381f5d1b1e79f229a47aaf4c232edc2fe59a6118146117ee875193611c99565b9385519181839233978460409194939263ffffffff606083019616825260208201520152565b0390a3519283928361167f565b8151634b637e8f60e11b815260006004820152602490fd5b836044918451916371c4efed60e01b835260048301526024820152fd5b346102f257600060203660031901126104355760043561187581610438565b61187d6129e1565b6001600160a01b037f0000000000000000000000000000000000000000000000000000000000000000811691839190833b156118eb5760249083604051958694859363ca5eb5e160e01b85521660048401525af180156108d9576118df575080f35b6118e890610ed0565b80f35b8280fd5b6118f8366106db565b5050509290303303611a39576119116107b285836128a2565b936119326119226107cf83856128ae565b61192b85611c99565b50866126d5565b9160288211611982575b5050611956600080516020612c8f83398151915292611c99565b6040805163ffffffff909216825260208201929092526001600160a01b03909416939081908101610830565b90826119a19261085a611997604088016126a0565b9361085488611c99565b917f00000000000000000000000000000000000000000000000000000000000000006001600160a01b0316803b156102f257604051633e5ac80960e11b81529360009185918290849082906119fb908b8d600485016126aa565b03925af19081156108d957600080516020612c8f8339815191529361195692611a26575b509261193c565b806108cd611a3392610ed0565b38611a1f565b60405163029a949d60e31b8152600490fd5b346102f25760203660031901126102f2577fd48d879cef83a1c0bdda516f27b13ddb1b3f8bbac1c9e1511bb2a659c24277606020600435611a8b81610438565b611a936129e1565b600280546001600160a01b0319166001600160a01b03929092169182179055604051908152a1005b346102f25760203660031901126102f257600435611ad881610438565b60018060a01b0316600052600a602052602060ff604060002054166040519015158152f35b346102f25760403660031901126102f2576020611b57600435611b1f81610438565b60243590611b2c82610438565b60018060a01b03166000526006835260406000209060018060a01b0316600052602052604060002090565b54604051908152f35b346102f25760403660031901126102f257600435611b7d81610438565b60243590611b8a82610b30565b611b926129e1565b60018060a01b0316600052600a60205260406000209060ff801983541691151516179055600080f35b346102f25760203660031901126102f257600435611bd881610438565b611be06129e1565b6001600160a01b039081168015611c2e57600080546001600160a01b03198116831782559092167f8be0079c531659141344cd1fd0a4f28419497f9722a3daafe3b4186f6b6457e08380a380f35b604051631e4fbdf760e01b815260006004820152602490fd5b346102f25760603660031901126102f2576020611c633661069d565b63ffffffff8135611c7381610a9b565b166000526001825260406000205482604051920135148152f35b6040513d6000823e3d90fd5b3561035081610a9b565b63ffffffff16806000526001602052604060002054908115611cc3575090565b6024906040519063f6ff4fb760e01b82526004820152fd5b6040519061058d82610e95565b6040519061058d82610efe565b6001600160401b038111610eb05760051b60200190565b6001600160401b038111610eb057601f01601f191660200190565b929192611d3382611d0c565b91611d416040519384610f19565b8294818452818301116102f2578281602093846000960137010152565b634e487b7160e01b600052601160045260246000fd5b6000198114611d835760010190565b611d5e565b634e487b7160e01b600052603260045260246000fd5b8051821015611db25760209160051b010190565b611d88565b90601f8111611dc557505050565b600091825260208220906020601f850160051c83019410611e01575b601f0160051c01915b828110611df657505050565b818155600101611dea565b9092508290611de1565b91909182516001600160401b038111610eb057611e3281611e2c8454610daf565b84611db7565b602080601f8311600114611e6e575081929394600092611e63575b50508160011b916000199060031b1c1916179055565b015190503880611e4d565b90601f19831695611e8485600052602060002090565b926000905b888210611ec157505083600195969710611ea8575b505050811b019055565b015160001960f88460031b161c19169055388080611e9e565b80600185968294968601518155019501930190611e89565b602080820190808352835180925260409283810182858560051b8401019601946000925b858410611f0e575050505050505090565b909192939495968580611f51600193603f19868203018852868c5163ffffffff815116835261ffff8582015116858401520151906060908189820152019061031a565b990194019401929594939190611efd565b90600091825b8151811015611ff257611fed90611fe86040611f9081611f888588611d9e565b51015161215d565b611fe381611f9e8588611d9e565b5101519163ffffffff611fb18689611d9e565b515116895261ffff602091600383528a2091611fcd878a611d9e565b5101511661ffff16600052602052604060002090565b611e0b565b611d74565b611f68565b507fbe4864a8e820971c0247f5992e2da559595f7bf076a21cb5928d443d2a13b6749192506120279060405191829182611ed9565b0390a1565b90929192836002116102f25783116102f257600201916001190190565b6020908361058d93959495604051968361206c89955180928880890191016102f7565b8401918583013701600083820152038085520183610f19565b908060209392818452848401376000828201840152601f01601f1916010190565b916020610350938181520191612085565b610f92610f9e9263ffffffff6120ec939795969716600052600360205260406000209061ffff16600052602052604060002090565b80511561214f57831561214957600284101561212057505061090f604051928392639a6d49cd60e01b8452600484016120a6565b909280612143916103509461213e612139368484611d27565b61215d565b61202c565b91612049565b92509050565b509190610350913691611d27565b600361ffff600283015116036121705750565b604051639a6d49cd60e01b81526020600482015290819061090f90602483019061031a565b604051906121a282610e95565b60006020838281520152565b91908260409103126102f2576040516121c681610e95565b6020808294805184520151910152565b906040828203126102f257610350916121ae565b906020909392936040835263ffffffff8151166040840152818101516060840152608061223e612228604084015160a08488015260e087019061031a565b6060840151868203603f190160a088015261031a565b910151151560c08401526001600160a01b03909416910152565b6040519061226582610eb5565b816000815260006020820152604061227b612195565b910152565b60409060231901126102f2576040519061229982610e95565b60243582526044356020830152565b6001600160401b038116036102f257565b906080828203126102f2576122f39060408051936122d685610eb5565b8051855260208101516122e8816122a8565b6020860152016121ae565b604082015290565b61235860809492612374969461230f612258565b50602061231c86516123eb565b9501918251806123dc575b5061233185611ca3565b9251151592612341610c0b611ce8565b602086015260408501526060840152151585830152565b6040518095819482936302637a4560e41b8452600484016121ea565b03917f00000000000000000000000000000000000000000000000000000000000000006001600160a01b03165af19081156108d9576000916123b4575090565b610350915060803d81116123d5575b6123cd8183610f19565b8101906122b9565b503d6123c3565b6123e59061240d565b38612327565b8034036123f55790565b6040516304fb820960e51b8152346004820152602490fd5b60405163393f876560e21b81526001600160a01b037f00000000000000000000000000000000000000000000000000000000000000008116926020929091908381600481885afa9081156108d9576000916124f0575b50169283156124de5760009160405190848201926323b872dd60e01b8452336024840152604483015260648201526064815261249e81610efe565b519082855af115611c8d576000513d6124d55750803b155b6124bd5750565b60249060405190635274afe760e01b82526004820152fd5b600114156124b6565b6040516329b99a9560e11b8152600490fd5b908482813d831161251f575b6125068183610f19565b8101031261043557505161251981610438565b38612463565b503d6124fc565b903590601e19813603018212156102f257018035906001600160401b0382116102f2576020019181360383136102f257565b908160209103126102f2575161035081610b30565b90916125846103509360408452604084019061031a565b91602081840391015261031a565b90916125f66125d46125c861261d957f000000000000000000000000000000000000000000000000000000000000000090612740565b6001600160401b031690565b6125eb6125e460a0860186612526565b3691611d27565b906020850135612817565b9390928394600014612698576002905b61152161261282611c99565b916080810190612526565b60045490926001600160a01b0390911690838261263957505050565b60405163043a78eb60e01b81529260209284928391829161265d916004840161256d565b03915afa80156108d95761266e5750565b61268e9060203d8111612691575b6126868183610f19565b810190612558565b50565b503d61267c565b600190612606565b35610350816122a8565b610350939260809260018060a01b03168252602082015260006040820152816060820152019061031a565b816001600160a01b038216156126ef575b61035091612bf1565b61dead91506126e6565b81810292918115918404141715611d8357565b610350906001600160401b037f000000000000000000000000000000000000000000000000000000000000000091166126f9565b811561274a570490565b634e487b7160e01b600052601260045260246000fd5b61278f90610bc37f00000000000000000000000000000000000000000000000000000000000000008092612740565b91829180841061279c5750565b83604491604051916371c4efed60e01b835260048301526024820152fd5b604c9193610350936040519586936001600160401b0360c01b9060c01b16602085015263ffffffff60e01b9060e01b166028840152602c83015261280781518092602086860191016102f7565b810103602c810184520182610f19565b82511580159390612875576128729160689160405194859260208401526001600160401b0360c01b9060c01b16604083015233604883015261286281518092602086860191016102f7565b8101036048810184520182610f19565b91565b50906040519160208301526001600160401b0360c01b9060c01b1660408201526028815261287281610eb5565b906020116102f2573590565b906028116102f2576020013560c01c90565b90806028116102f2576103509136916027190190602801611d27565b9190811015611db25760051b8101359061013e19813603018212156102f2570190565b3561035081610438565b929093612965926001600160401b0360406103509a98999763ffffffff813561293181610a9b565b168852602081013560208901520135612949816122a8565b166040860152606085015260e0608085015260e0840191612085565b6001600160a01b0390941660a082015280840360c090910152612085565b6020818303126102f2578051906001600160401b0382116102f2570181601f820112156102f25780516129b581611d0c565b926129c36040519485610f19565b818452602082840101116102f25761035091602080850191016102f7565b6000546001600160a01b031633036129f557565b60405163118cdaa760e01b8152336004820152602490fd5b916001600160a01b0380841692908315612aff578116938415612ae6576001600160a01b038116600090815260056020526040902054838110612ab757612ab2928492612a81600080516020612caf83398151915296612a9c94039160018060a01b03166000526005602052604060002090565b556001600160a01b0316600090815260056020526040902090565b8054820190556040519081529081906020820190565b0390a3565b60405163391434e360e21b81526001600160a01b03929092166004830152602482015260448101839052606490fd5b60405163ec442f0560e01b815260006004820152602490fd5b604051634b637e8f60e11b815260006004820152602490fd5b6001600160a01b0381169081612b61575060075491808301809311611d83576020600080516020612caf833981519152916000946007555b8060075403600755604051908152a3565b6001600160a01b038116600090815260056020526040902054939290818510612bbf5781602091612bb9600080516020612caf8339815191529460009798039160018060a01b03166000526005602052604060002090565b55612b50565b60405163391434e360e21b81526001600160a01b03919091166004820152602481018590526044810191909152606490fd5b6001600160a01b03811691908215612ae65760075490828201809211611d8357600092612c45602092600080516020612caf8339815191529460075560018060a01b03166000526005602052604060002090565b818154019055604051908152a3565b906001600160a01b03808316156104fe578116156104e557610496612c8b9260018060a01b03166000526006602052604060002090565b5556feefed6d3500546b29533b128a29e3a94d70788727f0507505ac12eaf2e578fd9cddf252ad1be2c89b69c2b068fc378daa952ba7f163c4a11628f55a4df523b3efa2646970667358221220314907f4bfd172f6aef0ab9853f95fe84bb4a230b1ac310c9acc58c7508222a164736f6c63430008140033",
  "linkReferences": {},
  "deployedLinkReferences": {}
}