{
  "_format": "hh-sol-artifact-1",
  "contractName": "FundBraveToken",
  "sourceName": "contracts/FundBraveToken.sol",
  "abi": [
    {
      "inputs": [
        {
          "internalType": "address",
          "name": "defaultAdmin",
          "type": "address"
        },
        {
          "internalType": "address",
          "name": "minter",
          "type": "address"
        }
      ],
      "stateMutability": "nonpayable",
      "type": "constructor"
    },
    {
      "inputs": [],
      "name": "AccessControlBadConfirmation",
      "type": "error"
    },
    {
      "inputs": [
        {
          "internalType": "address",
          "name": "account",
          "type": "address"
        },
        {
          "internalType": "bytes32",
          "name": "neededRole",
          "type": "bytes32"
        }
      ],
      "name": "AccessControlUnauthorizedAccount",
      "type": "error"
    },
    {
      "inputs": [],
      "name": "ECDSAInvalidSignature",
      "type": "error"
    },
    {
      "inputs": [
        {
          "internalType": "uint256",
          "name": "length",
          "type": "uint256"
        }
      ],
      "name": "ECDSAInvalidSignatureLength",
      "type": "error"
    },
    {
      "inputs": [
        {
          "internalType": "bytes32",
          "name": "s",
          "type": "bytes32"
        }
      ],
      "name": "ECDSAInvalidSignatureS",
      "type": "error"
    },
    {
      "inputs": [
        {
          "internalType": "address",
          "name": "spender",
          "type": "address"
        },
        {
          "internalType": "uint256",
          "name": "allowance",
          "type": "uint256"
        },
        {
          "internalType": "uint256",
          "name": "needed",
          "type": "uint256"
        }
      ],
      "name": "ERC20InsufficientAllowance",
      "type": "error"
    },
    {
      "inputs": [
        {
          "internalType": "address",
          "name": "sender",
          "type": "address"
        },
        {
          "internalType": "uint256",
          "name": "balance",
          "type": "uint256"
        },
        {
          "internalType": "uint256",
          "name": "needed",
          "type": "uint256"
        }
      ],
      "name": "ERC20InsufficientBalance",
      "type": "error"
    },
    {
      "inputs": [
        {
          "internalType": "address",
          "name": "approver",
          "type": "address"
        }
      ],
      "name": "ERC20InvalidApprover",
      "type": "error"
    },
    {
      "inputs": [
        {
          "internalType": "address",
          "name": "receiver",
          "type": "address"
        }
      ],
      "name": "ERC20InvalidReceiver",
      "type": "error"
    },
    {
      "inputs": [
        {
          "internalType": "address",
          "name": "sender",
          "type": "address"
        }
      ],
      "name": "ERC20InvalidSender",
      "type": "error"
    },
    {
      "inputs": [
        {
          "internalType": "address",
          "name": "spender",
          "type": "address"
        }
      ],
      "name": "ERC20InvalidSpender",
      "type": "error"
    },
    {
      "inputs": [
        {
          "internalType": "uint256",
          "name": "deadline",
          "type": "uint256"
        }
      ],
      "name": "ERC2612ExpiredSignature",
      "type": "error"
    },
    {
      "inputs": [
        {
          "internalType": "address",
          "name": "signer",
          "type": "address"
        },
        {
          "internalType": "address",
          "name": "owner",
          "type": "address"
        }
      ],
      "name": "ERC2612InvalidSigner",
      "type": "error"
    },
    {
      "inputs": [
        {
          "internalType": "address",
          "name": "account",
          "type": "address"
        },
        {
          "internalType": "uint256",
          "name": "currentNonce",
          "type": "uint256"
        }
      ],
      "name": "InvalidAccountNonce",
      "type": "error"
    },
    {
      "inputs": [],
      "name": "InvalidShortString",
      "type": "error"
    },
    {
      "inputs": [
        {
          "internalType": "string",
          "name": "str",
          "type": "string"
        }
      ],
      "name": "StringTooLong",
      "type": "error"
    },
    {
      "anonymous": false,
      "inputs": [
        {
          "indexed": true,
          "internalType": "address",
          "name": "owner",
          "type": "address"
        },
        {
          "indexed": true,
          "internalType": "address",
          "name": "spender",
          "type": "address"
        },
        {
          "indexed": false,
          "internalType": "uint256",
          "name": "value",
          "type": "uint256"
        }
      ],
      "name": "Approval",
      "type": "event"
    },
    {
      "anonymous": false,
      "inputs": [],
      "name": "EIP712DomainChanged",
      "type": "event"
    },
    {
      "anonymous": false,
      "inputs": [
        {
          "indexed": true,
          "internalType": "bytes32",
          "name": "role",
          "type": "bytes32"
        },
        {
          "indexed": true,
          "internalType": "bytes32",
          "name": "previousAdminRole",
          "type": "bytes32"
        },
        {
          "indexed": true,
          "internalType": "bytes32",
          "name": "newAdminRole",
          "type": "bytes32"
        }
      ],
      "name": "RoleAdminChanged",
      "type": "event"
    },
    {
      "anonymous": false,
      "inputs": [
        {
          "indexed": true,
          "internalType": "bytes32",
          "name": "role",
          "type": "bytes32"
        },
        {
          "indexed": true,
          "internalType": "address",
          "name": "account",
          "type": "address"
        },
        {
          "indexed": true,
          "internalType": "address",
          "name": "sender",
          "type": "address"
        }
      ],
      "name": "RoleGranted",
      "type": "event"
    },
    {
      "anonymous": false,
      "inputs": [
        {
          "indexed": true,
          "internalType": "bytes32",
          "name": "role",
          "type": "bytes32"
        },
        {
          "indexed": true,
          "internalType": "address",
          "name": "account",
          "type": "address"
        },
        {
          "indexed": true,
          "internalType": "address",
          "name": "sender",
          "type": "address"
        }
      ],
      "name": "RoleRevoked",
      "type": "event"
    },
    {
      "anonymous": false,
      "inputs": [
        {
          "indexed": true,
          "internalType": "address",
          "name": "from",
          "type": "address"
        },
        {
          "indexed": true,
          "internalType": "address",
          "name": "to",
          "type": "address"
        },
        {
          "indexed": false,
          "internalType": "uint256",
          "name": "value",
          "type": "uint256"
        }
      ],
      "name": "Transfer",
      "type": "event"
    },
    {
      "inputs": [],
      "name": "DEFAULT_ADMIN_ROLE",
      "outputs": [
        {
          "internalType": "bytes32",
          "name": "",
          "type": "bytes32"
        }
      ],
      "stateMutability": "view",
      "type": "function"
    },
    {
      "inputs": [],
      "name": "DOMAIN_SEPARATOR",
      "outputs": [
        {
          "internalType": "bytes32",
          "name": "",
          "type": "bytes32"
        }
      ],
      "stateMutability": "view",
      "type": "function"
    },
    {
      "inputs": [],
      "name": "MINTER_ROLE",
      "outputs": [
        {
          "internalType": "bytes32",
          "name": "",
          "type": "bytes32"
        }
      ],
      "stateMutability": "view",
      "type": "function"
    },
    {
      "inputs": [
        {
          "internalType": "address",
          "name": "owner",
          "type": "address"
        },
        {
          "internalType": "address",
          "name": "spender",
          "type": "address"
        }
      ],
      "name": "allowance",
      "outputs": [
        {
          "internalType": "uint256",
          "name": "",
          "type": "uint256"
        }
      ],
      "stateMutability": "view",
      "type": "function"
    },
    {
      "inputs": [
        {
          "internalType": "address",
          "name": "spender",
          "type": "address"
        },
        {
          "internalType": "uint256",
          "name": "value",
          "type": "uint256"
        }
      ],
      "name": "approve",
      "outputs": [
        {
          "internalType": "bool",
          "name": "",
          "type": "bool"
        }
      ],
      "stateMutability": "nonpayable",
      "type": "function"
    },
    {
      "inputs": [
        {
          "internalType": "address",
          "name": "account",
          "type": "address"
        }
      ],
      "name": "balanceOf",
      "outputs": [
        {
          "internalType": "uint256",
          "name": "",
          "type": "uint256"
        }
      ],
      "stateMutability": "view",
      "type": "function"
    },
    {
      "inputs": [
        {
          "internalType": "uint256",
          "name": "value",
          "type": "uint256"
        }
      ],
      "name": "burn",
      "outputs": [],
      "stateMutability": "nonpayable",
      "type": "function"
    },
    {
      "inputs": [
        {
          "internalType": "address",
          "name": "account",
          "type": "address"
        },
        {
          "internalType": "uint256",
          "name": "value",
          "type": "uint256"
        }
      ],
      "name": "burnFrom",
      "outputs": [],
      "stateMutability": "nonpayable",
      "type": "function"
    },
    {
      "inputs": [],
      "name": "decimals",
      "outputs": [
        {
          "internalType": "uint8",
          "name": "",
          "type": "uint8"
        }
      ],
      "stateMutability": "view",
      "type": "function"
    },
    {
      "inputs": [],
      "name": "eip712Domain",
      "outputs": [
        {
          "internalType": "bytes1",
          "name": "fields",
          "type": "bytes1"
        },
        {
          "internalType": "string",
          "name": "name",
          "type": "string"
        },
        {
          "internalType": "string",
          "name": "version",
          "type": "string"
        },
        {
          "internalType": "uint256",
          "name": "chainId",
          "type": "uint256"
        },
        {
          "internalType": "address",
          "name": "verifyingContract",
          "type": "address"
        },
        {
          "internalType": "bytes32",
          "name": "salt",
          "type": "bytes32"
        },
        {
          "internalType": "uint256[]",
          "name": "extensions",
          "type": "uint256[]"
        }
      ],
      "stateMutability": "view",
      "type": "function"
    },
    {
      "inputs": [
        {
          "internalType": "bytes32",
          "name": "role",
          "type": "bytes32"
        }
      ],
      "name": "getRoleAdmin",
      "outputs": [
        {
          "internalType": "bytes32",
          "name": "",
          "type": "bytes32"
        }
      ],
      "stateMutability": "view",
      "type": "function"
    },
    {
      "inputs": [
        {
          "internalType": "bytes32",
          "name": "role",
          "type": "bytes32"
        },
        {
          "internalType": "address",
          "name": "account",
          "type": "address"
        }
      ],
      "name": "grantRole",
      "outputs": [],
      "stateMutability": "nonpayable",
      "type": "function"
    },
    {
      "inputs": [
        {
          "internalType": "bytes32",
          "name": "role",
          "type": "bytes32"
        },
        {
          "internalType": "address",
          "name": "account",
          "type": "address"
        }
      ],
      "name": "hasRole",
      "outputs": [
        {
          "internalType": "bool",
          "name": "",
          "type": "bool"
        }
      ],
      "stateMutability": "view",
      "type": "function"
    },
    {
      "inputs": [
        {
          "internalType": "address",
          "name": "to",
          "type": "address"
        },
        {
          "internalType": "uint256",
          "name": "amount",
          "type": "uint256"
        }
      ],
      "name": "mint",
      "outputs": [],
      "stateMutability": "nonpayable",
      "type": "function"
    },
    {
      "inputs": [],
      "name": "name",
      "outputs": [
        {
          "internalType": "string",
          "name": "",
          "type": "string"
        }
      ],
      "stateMutability": "view",
      "type": "function"
    },
    {
      "inputs": [
        {
          "internalType": "address",
          "name": "owner",
          "type": "address"
        }
      ],
      "name": "nonces",
      "outputs": [
        {
          "internalType": "uint256",
          "name": "",
          "type": "uint256"
        }
      ],
      "stateMutability": "view",
      "type": "function"
    },
    {
      "inputs": [
        {
          "internalType": "address",
          "name": "owner",
          "type": "address"
        },
        {
          "internalType": "address",
          "name": "spender",
          "type": "address"
        },
        {
          "internalType": "uint256",
          "name": "value",
          "type": "uint256"
        },
        {
          "internalType": "uint256",
          "name": "deadline",
          "type": "uint256"
        },
        {
          "internalType": "uint8",
          "name": "v",
          "type": "uint8"
        },
        {
          "internalType": "bytes32",
          "name": "r",
          "type": "bytes32"
        },
        {
          "internalType": "bytes32",
          "name": "s",
          "type": "bytes32"
        }
      ],
      "name": "permit",
      "outputs": [],
      "stateMutability": "nonpayable",
      "type": "function"
    },
    {
      "inputs": [
        {
          "internalType": "bytes32",
          "name": "role",
          "type": "bytes32"
        },
        {
          "internalType": "address",
          "name": "callerConfirmation",
          "type": "address"
        }
      ],
      "name": "renounceRole",
      "outputs": [],
      "stateMutability": "nonpayable",
      "type": "function"
    },
    {
      "inputs": [
        {
          "internalType": "bytes32",
          "name": "role",
          "type": "bytes32"
        },
        {
          "internalType": "address",
          "name": "account",
          "type": "address"
        }
      ],
      "name": "revokeRole",
      "outputs": [],
      "stateMutability": "nonpayable",
      "type": "function"
    },
    {
      "inputs": [
        {
          "internalType": "bytes4",
          "name": "interfaceId",
          "type": "bytes4"
        }
      ],
      "name": "supportsInterface",
      "outputs": [
        {
          "internalType": "bool",
          "name": "",
          "type": "bool"
        }
      ],
      "stateMutability": "view",
      "type": "function"
    },
    {
      "inputs": [],
      "name": "symbol",
      "outputs": [
        {
          "internalType": "string",
          "name": "",
          "type": "string"
        }
      ],
      "stateMutability": "view",
      "type": "function"
    },
    {
      "inputs": [],
      "name": "totalSupply",
      "outputs": [
        {
          "internalType": "uint256",
          "name": "",
          "type": "uint256"
        }
      ],
      "stateMutability": "view",
      "type": "function"
    },
    {
      "inputs": [
        {
          "internalType": "address",
          "name": "to",
          "type": "address"
        },
        {
          "internalType": "uint256",
          "name": "value",
          "type": "uint256"
        }
      ],
      "name": "transfer",
      "outputs": [
        {
          "internalType": "bool",
          "name": "",
          "type": "bool"
        }
      ],
      "stateMutability": "nonpayable",
      "type": "function"
    },
    {
      "inputs": [
        {
          "internalType": "address",
          "name": "from",
          "type": "address"
        },
        {
          "internalType": "address",
          "name": "to",
          "type": "address"
        },
        {
          "internalType": "uint256",
          "name": "value",
          "type": "uint256"
        }
      ],
      "name": "transferFrom",
      "outputs": [
        {
          "internalType": "bool",
          "name": "",
          "type": "bool"
        }
      ],
      "stateMutability": "nonpayable",
      "type": "function"
    }
  ],
  "bytecode": "0x610160346200050f57601f62001d9938819003918201601f19168301916001600160401b03831184841017620002b85780849260409485528339810103126200050f576200005b6020620000538362000530565b920162000530565b604051620000698162000514565b600981526846756e64427261766560b81b806020830152604051906200008f8262000514565b600982526020820152604051620000a68162000514565b6005815264425241564560d81b602082015260405191620000c78362000514565b60018352603160f81b60208401528051906001600160401b038211620002b85760035490600182811c9216801562000504575b6020831014620003d75781601f8493116200048f575b50602090601f83116001146200040457600092620003f8575b50508160011b916000199060031b1c1916176003555b8051906001600160401b038211620002b85760045490600182811c92168015620003ed575b6020831014620003d75781601f84931162000365575b50602090601f8311600114620002da57600092620002ce575b50508160011b916000199060031b1c1916176004555b620001b48262000669565b92610120938452620001c68262000830565b9261014093845260208151910120918260e0526020815191012091610100958387524660a0526040519360208501927f8b73c3c69bb8fe3d512ecc4cf759cc79239f7b179b0ffacaa9a75d522b39400f8452604086015260608501524660808501523060a085015260a0845260c084019184831060018060401b03841117620002b8576200026d9462000266936040525190206080523060c05262000545565b50620005c6565b50604051916113909384620009e98539608051846110b2015260a0518461117e015260c0518461107c015260e0518461110101525183611127015251826104f50152518161051f0152f35b634e487b7160e01b600052604160045260246000fd5b01519050388062000193565b600460009081527f8a35acfbc15ff81a39ae7d344fd709f28e8600b4aa8c65c6b64bfe7fe36bd19b9350601f198516905b8181106200034c575090846001959493921062000332575b505050811b01600455620001a9565b015160001960f88460031b161c1916905538808062000323565b929360206001819287860151815501950193016200030b565b60046000529091507f8a35acfbc15ff81a39ae7d344fd709f28e8600b4aa8c65c6b64bfe7fe36bd19b601f840160051c810160208510620003cf575b90849392915b601f830160051c82018110620003bf5750506200017a565b60008155859450600101620003a7565b5080620003a1565b634e487b7160e01b600052602260045260246000fd5b91607f169162000164565b01519050388062000129565b600360009081527fc2575a0e9e593c00f959f8c92f12db2869c3395a3b0502d05e2516446f71f85b9350601f198516905b8181106200047657509084600195949392106200045c575b505050811b016003556200013f565b015160001960f88460031b161c191690553880806200044d565b9293602060018192878601518155019501930162000435565b60036000529091507fc2575a0e9e593c00f959f8c92f12db2869c3395a3b0502d05e2516446f71f85b601f840160051c81019160208510620004f9575b90601f859493920160051c01905b818110620004e9575062000110565b60008155849350600101620004da565b9091508190620004cc565b91607f1691620000fa565b600080fd5b604081019081106001600160401b03821117620002b857604052565b51906001600160a01b03821682036200050f57565b6001600160a01b031660008181527f05b8ccbb9d4d8fb16ea74ce3c29a41f1b461fbdaff4714a0d9a8eb05499746bc602052604081205490919060ff16620005c25781805260056020526040822081835260205260408220600160ff19825416179055339160008051602062001d798339815191528180a4600190565b5090565b6001600160a01b031660008181527f15a28d26fa1bf736cf7edc9922607171ccb09c3c73b808e7772a3013e068a52260205260408120549091907f9f2df0fed2c77648de5860a4cc508cd0818c85b8b8a1ab4ceeef8d981c8956a69060ff16620006645780835260056020526040832082845260205260408320600160ff1982541617905560008051602062001d79833981519152339380a4600190565b505090565b805160209081811015620007065750601f825111620006a557808251920151908083106200069657501790565b82600019910360031b1b161790565b90604051809263305a27a960e01b82528060048301528251908160248401526000935b828510620006ec575050604492506000838284010152601f80199101168101030190fd5b8481018201518686016044015293810193859350620006c8565b906001600160401b038211620002b857600654926001938481811c9116801562000825575b83821014620003d757601f8111620007eb575b5081601f84116001146200077f575092829391839260009462000773575b50501b916000199060031b1c19161760065560ff90565b0151925038806200075c565b919083601f198116600660005284600020946000905b88838310620007d05750505010620007b6575b505050811b0160065560ff90565b015160001960f88460031b161c19169055388080620007a8565b85870151885590960195948501948793509081019062000795565b600660005284601f84600020920160051c820191601f860160051c015b828110620008185750506200073e565b6000815501859062000808565b90607f16906200072b565b805160209081811015620008be5750601f8251116200085d57808251920151908083106200069657501790565b90604051809263305a27a960e01b82528060048301528251908160248401526000935b828510620008a4575050604492506000838284010152601f80199101168101030190fd5b848101820151868601604401529381019385935062000880565b906001600160401b038211620002b857600754926001938481811c91168015620009dd575b83821014620003d757601f8111620009a3575b5081601f84116001146200093757509282939183926000946200092b575b50501b916000199060031b1c19161760075560ff90565b01519250388062000914565b919083601f198116600760005284600020946000905b888383106200098857505050106200096e575b505050811b0160075560ff90565b015160001960f88460031b161c1916905538808062000960565b8587015188559096019594850194879350908101906200094d565b600760005284601f84600020920160051c820191601f860160051c015b828110620009d0575050620008f6565b60008155018590620009c0565b90607f1690620008e356fe608060408181526004918236101561001657600080fd5b600092833560e01c91826301ffc9a7146109f45750816306fdde0314610921578163095ea7b3146108f757816318160ddd146108d857816323b872dd1461089b578163248a9ca3146108705781632f2ff15d14610846578163313ce5671461082a5781633644e5151461080657816336568abe146107c057816340c10f19146106bb57816342966c681461069d57816370a082311461066657816379cc6790146106335781637ecebe00146105fb57816384b0196e146104dd57816391d148541461049657816395d89b41146103ab578163a217fddf14610390578163a9059cbb1461035f578163d505accf146101f7578163d5391393146101bc578163d547741f14610178575063dd62ed3e1461012d57600080fd5b3461017457806003193601126101745780602092610149610a87565b610151610aa2565b6001600160a01b0391821683526001865283832091168252845220549051908152f35b5080fd5b919050346101b857806003193601126101b8576101b491356101af600161019d610aa2565b93838752600560205286200154610ab8565b610b7c565b5080f35b8280fd5b505034610174578160031936011261017457602090517f9f2df0fed2c77648de5860a4cc508cd0818c85b8b8a1ab4ceeef8d981c8956a68152f35b839150346101745760e036600319011261017457610213610a87565b61021b610aa2565b906044359260643560843560ff8116810361035b578142116103445760018060a01b0390818516928389526008602052898920908154916001830190558a519060208201927f6e71edae12b1b97f4d1f60370fef10105fa2faae0126114a169c64845d6126c98452868d840152858a1660608401528a608084015260a083015260c082015260c0815260e0810181811067ffffffffffffffff821117610331578b525190206102ff916102f6916102d0611079565b908c519161190160f01b83526002830152602282015260c43591604260a4359220610f64565b90929192610ff4565b168181036103165786610313878787610d5f565b80f35b87516325c0072360e11b815292830152602482015260449150fd5b634e487b7160e01b8b526041875260248bfd5b875163313c898160e11b8152808401839052602490fd5b8680fd5b50503461017457806003193601126101745760209061038961037f610a87565b6024359033610c81565b5160018152f35b50503461017457816003193601126101745751908152602090f35b919050346101b857826003193601126101b857805191838154906103ce82610bf3565b8086529260019280841690811561046b575060011461040f575b61040b86866103f9828b0383610c5f565b51918291602083526020830190610a47565b0390f35b815294507f8a35acfbc15ff81a39ae7d344fd709f28e8600b4aa8c65c6b64bfe7fe36bd19b5b828610610453575050506103f982602061040b9582010194386103e8565b80546020878701810191909152909501948101610435565b905061040b9750869350602092506103f994915060ff191682840152151560051b82010194386103e8565b9050346101b857816003193601126101b8578160209360ff926104b7610aa2565b90358252600586528282206001600160a01b039091168252855220549151911615158152f35b919050346101b857826003193601126101b8576105197f00000000000000000000000000000000000000000000000000000000000000006111a4565b926105437f00000000000000000000000000000000000000000000000000000000000000006112a0565b908251926020928385019585871067ffffffffffffffff8811176105e85750928061059e838896610591998b9996528686528151998a99600f60f81b8b5260e0868c015260e08b0190610a47565b91898303908a0152610a47565b924660608801523060808801528460a088015286840360c088015251928381520193925b8281106105d157505050500390f35b8351855286955093810193928101926001016105c2565b634e487b7160e01b845260419052602483fd5b5050346101745760203660031901126101745760209181906001600160a01b03610623610a87565b1681526008845220549051908152f35b505034610174573660031901126106635761031361064f610a87565b6024359061065e823383610df2565b610ec5565b80fd5b5050346101745760203660031901126101745760209181906001600160a01b0361068e610a87565b16815280845220549051908152f35b83903461017457602036600319011261017457610313903533610ec5565b919050346101b857806003193601126101b8576106d6610a87565b90602435917f9f2df0fed2c77648de5860a4cc508cd0818c85b8b8a1ab4ceeef8d981c8956a6808652600560205282862033875260205260ff8387205416156107a257506001600160a01b031692831561078d576002549083820180921161077a575084927fddf252ad1be2c89b69c2b068fc378daa952ba7f163c4a11628f55a4df523b3ef9260209260025585855284835280852082815401905551908152a380f35b634e487b7160e01b865260119052602485fd5b84602492519163ec442f0560e01b8352820152fd5b825163e2517d3f60e01b815233818701526024810191909152604490fd5b8383346101745780600319360112610174576107da610aa2565b90336001600160a01b038316036107f757506101b4919235610b7c565b5163334bd91960e11b81528390fd5b505034610174578160031936011261017457602090610823611079565b9051908152f35b5050346101745781600319360112610174576020905160128152f35b919050346101b857806003193601126101b8576101b4913561086b600161019d610aa2565b610afc565b9050346101b85760203660031901126101b85781602093600192358152600585522001549051908152f35b505034610174576060366003190112610174576020906103896108bc610a87565b6108c4610aa2565b604435916108d3833383610df2565b610c81565b5050346101745781600319360112610174576020906002549051908152f35b505034610174578060031936011261017457602090610389610917610a87565b6024359033610d5f565b5050346101745781600319360112610174578051908260035461094381610bf3565b808552916001918083169081156109cc575060011461096f575b5050506103f98261040b940383610c5f565b9450600385527fc2575a0e9e593c00f959f8c92f12db2869c3395a3b0502d05e2516446f71f85b5b8286106109b4575050506103f982602061040b958201019461095d565b80546020878701810191909152909501948101610997565b61040b9750869350602092506103f994915060ff191682840152151560051b8201019461095d565b8491346101b85760203660031901126101b8573563ffffffff60e01b81168091036101b85760209250637965db0b60e01b8114908115610a36575b5015158152f35b6301ffc9a760e01b14905083610a2f565b919082519283825260005b848110610a73575050826000602080949584010152601f8019910116010190565b602081830181015184830182015201610a52565b600435906001600160a01b0382168203610a9d57565b600080fd5b602435906001600160a01b0382168203610a9d57565b80600052600560205260406000203360005260205260ff6040600020541615610ade5750565b6044906040519063e2517d3f60e01b82523360048301526024820152fd5b906000918083526005602052604083209160018060a01b03169182845260205260ff60408420541615600014610b775780835260056020526040832082845260205260408320600160ff198254161790557f2f8788117e7eff1d82e926ec794901d17c78024a50270940304540a733656f0d339380a4600190565b505090565b906000918083526005602052604083209160018060a01b03169182845260205260ff604084205416600014610b77578083526005602052604083208284526020526040832060ff1981541690557ff6391f5c32d9c69d2a47ea670b442974b53935d1edc7fd64eb21e047a839171b339380a4600190565b90600182811c92168015610c23575b6020831014610c0d57565b634e487b7160e01b600052602260045260246000fd5b91607f1691610c02565b6040810190811067ffffffffffffffff821117610c4957604052565b634e487b7160e01b600052604160045260246000fd5b90601f8019910116810190811067ffffffffffffffff821117610c4957604052565b916001600160a01b03808416928315610d465716928315610d2d5760009083825281602052604082205490838210610cfb575091604082827fddf252ad1be2c89b69c2b068fc378daa952ba7f163c4a11628f55a4df523b3ef958760209652828652038282205586815220818154019055604051908152a3565b60405163391434e360e21b81526001600160a01b03919091166004820152602481019190915260448101839052606490fd5b60405163ec442f0560e01b815260006004820152602490fd5b604051634b637e8f60e11b815260006004820152602490fd5b6001600160a01b03908116918215610dd95716918215610dc05760207f8c5be1e5ebec7d5bd14f71427d1e84f3dd0314c0f7b2291e5b200ac8c7c3b925918360005260018252604060002085600052825280604060002055604051908152a3565b604051634a1406b160e11b815260006004820152602490fd5b60405163e602df0560e01b815260006004820152602490fd5b9160018060a01b038093169160009383855260016020526040938486209183169182875260205284862054926000198410610e31575b50505050505050565b848410610e9557508015610e7d578115610e6557855260016020528385209085526020520391205538808080808080610e28565b8451634a1406b160e11b815260048101879052602490fd5b845163e602df0560e01b815260048101879052602490fd5b8551637dc7a0d960e11b81526001600160a01b039190911660048201526024810184905260448101859052606490fd5b906001600160a01b038216908115610d465760009282845283602052604084205490828210610f325750817fddf252ad1be2c89b69c2b068fc378daa952ba7f163c4a11628f55a4df523b3ef926020928587528684520360408620558060025403600255604051908152a3565b60405163391434e360e21b81526001600160a01b03919091166004820152602481019190915260448101829052606490fd5b91907f7fffffffffffffffffffffffffffffff5d576e7357a4501ddfe92f46681b20a08411610fe857926020929160ff608095604051948552168484015260408301526060820152600092839182805260015afa15610fdc5780516001600160a01b03811615610fd357918190565b50809160019190565b604051903d90823e3d90fd5b50505060009160039190565b60048110156110635780611006575050565b600181036110205760405163f645eedf60e01b8152600490fd5b600281036110415760405163fce698f760e01b815260048101839052602490fd5b60031461104b5750565b602490604051906335e2f38360e21b82526004820152fd5b634e487b7160e01b600052602160045260246000fd5b307f00000000000000000000000000000000000000000000000000000000000000006001600160a01b0316148061117b575b156110d4577f000000000000000000000000000000000000000000000000000000000000000090565b60405160208101907f8b73c3c69bb8fe3d512ecc4cf759cc79239f7b179b0ffacaa9a75d522b39400f82527f000000000000000000000000000000000000000000000000000000000000000060408201527f000000000000000000000000000000000000000000000000000000000000000060608201524660808201523060a082015260a0815260c0810181811067ffffffffffffffff821117610c495760405251902090565b507f000000000000000000000000000000000000000000000000000000000000000046146110ab565b60ff81146111e25760ff811690601f82116111d057604051916111c683610c2d565b8252602082015290565b604051632cd44ac360e21b8152600490fd5b506040516006548160006111f583610bf3565b8083529260019081811690811561127e575060011461121f575b5061121c92500382610c5f565b90565b6006600090815291507ff652222313e28459528d920b65115c16c04f3efc82aaedc97be59f3f377c0d3f5b848310611263575061121c93505081016020013861120f565b8193509081602092548385890101520191019091849261124a565b90506020925061121c94915060ff191682840152151560051b8201013861120f565b60ff81146112c25760ff811690601f82116111d057604051916111c683610c2d565b506040516007548160006112d583610bf3565b8083529260019081811690811561127e57506001146112fb575061121c92500382610c5f565b6007600090815291507fa66cc928b5edb82af9bd49922954155ab7b0942694bea4ce44661d9a8736c6885b84831061133f575061121c93505081016020013861120f565b8193509081602092548385890101520191019091849261132656fea2646970667358221220b478a9f829d4b027e0130605de01258514681573c15439f65fa3ac222863177c64736f6c634300081400332f8788117e7eff1d82e926ec794901d17c78024a50270940304540a733656f0d",
  "linkReferences": {},
  "deployedLinkReferences": {}
}