{
  "_format": "hh-sol-artifact-1",
  "contractName": "MockAavePool",
  "sourceName": "contracts/test/DeFiMocks.sol",
  "abi": [
    {
      "inputs": [
        {
          "internalType": "address",
          "name": "_asset",
          "type": "address"
        },
        {
          "internalType": "address",
          "name": "_aToken",
          "type": "address"
        }
      ],
      "stateMutability": "nonpayable",
      "type": "constructor"
    },
    {
      "inputs": [],
      "name": "aToken",
      "outputs": [
        {
          "internalType": "contract MockERC20",
          "name": "",
          "type": "address"
        }
      ],
      "stateMutability": "view",
      "type": "function"
    },
    {
      "inputs": [],
      "name": "asset",
      "outputs": [
        {
          "internalType": "contract IERC20",
          "name": "",
          "type": "address"
        }
      ],
      "stateMutability": "view",
      "type": "function"
    },
    {
      "inputs": [
        {
          "internalType": "address",
          "name": "",
          "type": "address"
        }
      ],
      "name": "getReserveData",
      "outputs": [
        {
          "internalType": "uint256",
          "name": "",
          "type": "uint256"
        }
      ],
      "stateMutability": "view",
      "type": "function"
    },
    {
      "inputs": [
        {
          "internalType": "address",
          "name": "_asset",
          "type": "address"
        },
        {
          "internalType": "uint256",
          "name": "amount",
          "type": "uint256"
        },
        {
          "internalType": "address",
          "name": "onBehalfOf",
          "type": "address"
        },
        {
          "internalType": "uint16",
          "name": "",
          "type": "uint16"
        }
      ],
      "name": "supply",
      "outputs": [],
      "stateMutability": "nonpayable",
      "type": "function"
    },
    {
      "inputs": [
        {
          "internalType": "address",
          "name": "_asset",
          "type": "address"
        },
        {
          "internalType": "uint256",
          "name": "amount",
          "type": "uint256"
        },
        {
          "internalType": "address",
          "name": "to",
          "type": "address"
        }
      ],
      "name": "withdraw",
      "outputs": [
        {
          "internalType": "uint256",
          "name": "",
          "type": "uint256"
        }
      ],
      "stateMutability": "nonpayable",
      "type": "function"
    }
  ],
  "bytecode": "0x60803461008d57601f61047d38819003918201601f19168301916001600160401b0383118484101761009257808492604094855283398101031261008d57610052602061004b836100a8565b92016100a8565b600080546001600160a01b039384166001600160a01b031991821617909155600180549290931691161790556040516103c090816100bd8239f35b600080fd5b634e487b7160e01b600052604160045260246000fd5b51906001600160a01b038216820361008d5756fe60806040818152600436101561001457600080fd5b600091823560e01c90816335ea6a75146102aa5750806338d52e0f14610283578063617ba0371461015257806369328dec146100845763a0c1f15e1461005957600080fd5b3461008057816003193601126100805760015490516001600160a01b039091168152602090f35b5080fd5b50346100805760603660031901126100805761009e6102cd565b90610101602060243580946100b16102e8565b87546001600160a01b03908116926100cb911683146102fe565b855163a9059cbb60e01b81526001600160a01b039091166004820152602481019290925290928391908290889082906044820190565b03925af18015610148576020945061011b575b5051908152f35b61013a90843d8111610141575b610132818361033a565b810190610372565b5038610114565b503d610128565b82513d86823e3d90fd5b50346100805760803660031901126100805761016c6102cd565b90826024356101796102e8565b9360643561ffff8116036102575782546001600160a01b03918491602091908416906101a890851682146102fe565b60648751809481936323b872dd60e01b83523360048401523060248401528860448401525af180156102795761025b575b5060015416803b156102575783516340c10f1960e01b81526001600160a01b0395909516600486015260248501919091528390604490829084905af1801561024d57610223578280f35b67ffffffffffffffff8211610239575238808280f35b634e487b7160e01b83526041600452602483fd5b81513d85823e3d90fd5b8280fd5b6102729060203d811161014157610132818361033a565b50386101d9565b85513d86823e3d90fd5b5034610080578160031936011261008057905490516001600160a01b039091168152602090f35b839034610080576020366003190112610080576020916102c86102cd565b508152f35b600435906001600160a01b03821682036102e357565b600080fd5b604435906001600160a01b03821682036102e357565b1561030557565b60405162461bcd60e51b815260206004820152600d60248201526c125b9d985b1a5908185cdcd95d609a1b6044820152606490fd5b90601f8019910116810190811067ffffffffffffffff82111761035c57604052565b634e487b7160e01b600052604160045260246000fd5b908160209103126102e3575180151581036102e3579056fea26469706673582212206b87a1b02a3a354fb984682570262b7edf46ed60ab6552b5052a6d679d0e228364736f6c63430008140033",
  "linkReferences": {},
  "deployedLinkReferences": {}
}