{
  "_format": "hh-sol-artifact-1",
  "contractName": "MockUniswapRouter",
  "sourceName": "contracts/test/DeFiMocks.sol",
  "abi": [
    {
      "inputs": [
        {
          "internalType": "address",
          "name": "_weth",
          "type": "address"
        },
        {
          "internalType": "address",
          "name": "_usdc",
          "type": "address"
        }
      ],
      "stateMutability": "nonpayable",
      "type": "constructor"
    },
    {
      "inputs": [],
      "name": "USDC",
      "outputs": [
        {
          "internalType": "address",
          "name": "",
          "type": "address"
        }
      ],
      "stateMutability": "view",
      "type": "function"
    },
    {
      "inputs": [],
      "name": "WETH",
      "outputs": [
        {
          "internalType": "address",
          "name": "",
          "type": "address"
        }
      ],
      "stateMutability": "view",
      "type": "function"
    },
    {
      "inputs": [
        {
          "internalType": "address",
          "name": "",
          "type": "address"
        },
        {
          "components": [
            {
              "internalType": "address",
              "name": "srcToken",
              "type": "address"
            },
            {
              "internalType": "address",
              "name": "dstToken",
              "type": "address"
            },
            {
              "internalType": "address payable",
              "name": "srcReceiver",
              "type": "address"
            },
            {
              "internalType": "address payable",
              "name": "dstReceiver",
              "type": "address"
            },
            {
              "internalType": "uint256",
              "name": "amount",
              "type": "uint256"
            },
            {
              "internalType": "uint256",
              "name": "minReturnAmount",
              "type": "uint256"
            },
            {
              "internalType": "uint256",
              "name": "flags",
              "type": "uint256"
            }
          ],
          "internalType": "struct MockUniswapRouter.SwapDescription",
          "name": "desc",
          "type": "tuple"
        },
        {
          "internalType": "bytes",
          "name": "",
          "type": "bytes"
        },
        {
          "internalType": "bytes",
          "name": "",
          "type": "bytes"
        }
      ],
      "name": "swap",
      "outputs": [
        {
          "internalType": "uint256",
          "name": "returnAmount",
          "type": "uint256"
        },
        {
          "internalType": "uint256",
          "name": "spentAmount",
          "type": "uint256"
        }
      ],
      "stateMutability": "payable",
      "type": "function"
    }
  ],
  "bytecode": "0x60803461008d57601f6103a438819003918201601f19168301916001600160401b0383118484101761009257808492604094855283398101031261008d57610052602061004b836100a8565b92016100a8565b600080546001600160a01b039384166001600160a01b031991821617909155600180549290931691161790556040516102e790816100bd8239f35b600080fd5b634e487b7160e01b600052604160045260246000fd5b51906001600160a01b038216820361008d5756fe608060408181526004918236101561001657600080fd5b600092833560e01c91826312aa3caf14610098575050806389a30271146100705763ad5c46481461004657600080fd5b3461006c578160031936011261006c57905490516001600160a01b039091168152602090f35b5080fd5b503461006c578160031936011261006c5760015490516001600160a01b039091168152602090f35b91509192610140600319360112610215576001600160a01b039183358381160361006c5760e036602319011261006c5767ffffffffffffffff61010435818111610211576100e99036908701610218565b50506101243590811161020d576101039036908601610218565b50508261010e61024b565b166101aa575b506044359180831680930361006c5760843590811680910361006c57602090604460a43595848851968794859363a9059cbb60e01b85528401528860248401525af190811561019f5750610171575b508151908082526020820152f35b6101919060203d8111610198575b6101898183610261565b810190610299565b5038610163565b503d61017f565b8451903d90823e3d90fd5b60208160648185876101ba61024b565b6323b872dd60e01b8452338b85015230602485015260a4356044850152165af180156102035715610114576101fc9060203d8111610198576101898183610261565b5038610114565b85513d84823e3d90fd5b8280fd5b8380fd5b80fd5b9181601f840112156102465782359167ffffffffffffffff8311610246576020838186019501011161024657565b600080fd5b6024356001600160a01b03811681036102465790565b90601f8019910116810190811067ffffffffffffffff82111761028357604052565b634e487b7160e01b600052604160045260246000fd5b9081602091031261024657518015158103610246579056fea26469706673582212200ad8da04edd0e9cd5681015042a001993f63b220ef42ca52a02b0a05620a8dd764736f6c63430008140033",
  "linkReferences": {},
  "deployedLinkReferences": {}
}