{
  "_format": "hh-sol-artifact-1",
  "contractName": "MockWETH",
  "sourceName": "contracts/test/DeFiMocks.sol",
  "abi": [
    {
      "inputs": [],
      "stateMutability": "nonpayable",
      "type": "constructor"
    },
    {
      "inputs": [
        {
          "internalType": "address",
          "name": "spender",
          "type": "address"
        },
        {
          "internalType": "uint256",
          "name": "allowance",
          "type": "uint256"
        },
        {
          "internalType": "uint256",
          "name": "needed",
          "type": "uint256"
        }
      ],
      "name": "ERC20InsufficientAllowance",
      "type": "error"
    },
    {
      "inputs": [
        {
          "internalType": "address",
          "name": "sender",
          "type": "address"
        },
        {
          "internalType": "uint256",
          "name": "balance",
          "type": "uint256"
        },
        {
          "internalType": "uint256",
          "name": "needed",
          "type": "uint256"
        }
      ],
      "name": "ERC20InsufficientBalance",
      "type": "error"
    },
    {
      "inputs": [
        {
          "internalType": "address",
          "name": "approver",
          "type": "address"
        }
      ],
      "name": "ERC20InvalidApprover",
      "type": "error"
    },
    {
      "inputs": [
        {
          "internalType": "address",
          "name": "receiver",
          "type": "address"
        }
      ],
      "name": "ERC20InvalidReceiver",
      "type": "error"
    },
    {
      "inputs": [
        {
          "internalType": "address",
          "name": "sender",
          "type": "address"
        }
      ],
      "name": "ERC20InvalidSender",
      "type": "error"
    },
    {
      "inputs": [
        {
          "internalType": "address",
          "name": "spender",
          "type": "address"
        }
      ],
      "name": "ERC20InvalidSpender",
      "type": "error"
    },
    {
      "anonymous": false,
      "inputs": [
        {
          "indexed": true,
          "internalType": "address",
          "name": "owner",
          "type": "address"
        },
        {
          "indexed": true,
          "internalType": "address",
          "name": "spender",
          "type": "address"
        },
        {
          "indexed": false,
          "internalType": "uint256",
          "name": "value",
          "type": "uint256"
        }
      ],
      "name": "Approval",
      "type": "event"
    },
    {
      "anonymous": false,
      "inputs": [
        {
          "indexed": true,
          "internalType": "address",
          "name": "from",
          "type": "address"
        },
        {
          "indexed": true,
          "internalType": "address",
          "name": "to",
          "type": "address"
        },
        {
          "indexed": false,
          "internalType": "uint256",
          "name": "value",
          "type": "uint256"
        }
      ],
      "name": "Transfer",
      "type": "event"
    },
    {
      "inputs": [
        {
          "internalType": "address",
          "name": "owner",
          "type": "address"
        },
        {
          "internalType": "address",
          "name": "spender",
          "type": "address"
        }
      ],
      "name": "allowance",
      "outputs": [
        {
          "internalType": "uint256",
          "name": "",
          "type": "uint256"
        }
      ],
      "stateMutability": "view",
      "type": "function"
    },
    {
      "inputs": [
        {
          "internalType": "address",
          "name": "spender",
          "type": "address"
        },
        {
          "internalType": "uint256",
          "name": "value",
          "type": "uint256"
        }
      ],
      "name": "approve",
      "outputs": [
        {
          "internalType": "bool",
          "name": "",
          "type": "bool"
        }
      ],
      "stateMutability": "nonpayable",
      "type": "function"
    },
    {
      "inputs": [
        {
          "internalType": "address",
          "name": "account",
          "type": "address"
        }
      ],
      "name": "balanceOf",
      "outputs": [
        {
          "internalType": "uint256",
          "name": "",
          "type": "uint256"
        }
      ],
      "stateMutability": "view",
      "type": "function"
    },
    {
      "inputs": [],
      "name": "decimals",
      "outputs": [
        {
          "internalType": "uint8",
          "name": "",
          "type": "uint8"
        }
      ],
      "stateMutability": "view",
      "type": "function"
    },
    {
      "inputs": [],
      "name": "deposit",
      "outputs": [],
      "stateMutability": "payable",
      "type": "function"
    },
    {
      "inputs": [
        {
          "internalType": "address",
          "name": "to",
          "type": "address"
        },
        {
          "internalType": "uint256",
          "name": "amount",
          "type": "uint256"
        }
      ],
      "name": "mint",
      "outputs": [],
      "stateMutability": "nonpayable",
      "type": "function"
    },
    {
      "inputs": [],
      "name": "name",
      "outputs": [
        {
          "internalType": "string",
          "name": "",
          "type": "string"
        }
      ],
      "stateMutability": "view",
      "type": "function"
    },
    {
      "inputs": [],
      "name": "symbol",
      "outputs": [
        {
          "internalType": "string",
          "name": "",
          "type": "string"
        }
      ],
      "stateMutability": "view",
      "type": "function"
    },
    {
      "inputs": [],
      "name": "totalSupply",
      "outputs": [
        {
          "internalType": "uint256",
          "name": "",
          "type": "uint256"
        }
      ],
      "stateMutability": "view",
      "type": "function"
    },
    {
      "inputs": [
        {
          "internalType": "address",
          "name": "to",
          "type": "address"
        },
        {
          "internalType": "uint256",
          "name": "value",
          "type": "uint256"
        }
      ],
      "name": "transfer",
      "outputs": [
        {
          "internalType": "bool",
          "name": "",
          "type": "bool"
        }
      ],
      "stateMutability": "nonpayable",
      "type": "function"
    },
    {
      "inputs": [
        {
          "internalType": "address",
          "name": "from",
          "type": "address"
        },
        {
          "internalType": "address",
          "name": "to",
          "type": "address"
        },
        {
          "internalType": "uint256",
          "name": "value",
          "type": "uint256"
        }
      ],
      "name": "transferFrom",
      "outputs": [
        {
          "internalType": "bool",
          "name": "",
          "type": "bool"
        }
      ],
      "stateMutability": "nonpayable",
      "type": "function"
    },
    {
      "inputs": [
        {
          "internalType": "uint256",
          "name": "amount",
          "type": "uint256"
        }
      ],
      "name": "withdraw",
      "outputs": [],
      "stateMutability": "nonpayable",
      "type": "function"
    }
  ],
  "bytecode": "0x6080346200033d576040906001600160401b03908083018281118282101762000327578352600d81526020916c2bb930b83832b21022ba3432b960991b838301528351928484018481108382111762000327578552600493848152630ae8aa8960e31b8282015283519083821162000312576003928354926001968785811c9516801562000307575b83861014620002f2578190601f958681116200029c575b508390868311600114620002355760009262000229575b505060001982871b1c191690871b1784555b8151948511620002145786548681811c9116801562000209575b82821014620001f457838111620001a9575b50809285116001146200013b57509383949184926000956200012f575b50501b92600019911b1c19161790555b516109869081620003438239f35b01519350388062000111565b92919084601f1981168860005285600020956000905b898383106200018e575050501062000173575b50505050811b01905562000121565b01519060f884600019921b161c191690553880808062000164565b85870151895590970196948501948893509081019062000151565b87600052816000208480880160051c820192848910620001ea575b0160051c019087905b828110620001dd575050620000f4565b60008155018790620001cd565b92508192620001c4565b602288634e487b7160e01b6000525260246000fd5b90607f1690620000e2565b604187634e487b7160e01b6000525260246000fd5b015190503880620000b6565b90899350601f1983169188600052856000209260005b878282106200028557505084116200026c575b505050811b018455620000c8565b015160001983891b60f8161c191690553880806200025e565b8385015186558d979095019493840193016200024b565b90915086600052836000208680850160051c820192868610620002e8575b918b91869594930160051c01915b828110620002d85750506200009f565b600081558594508b9101620002c8565b92508192620002ba565b602289634e487b7160e01b6000525260246000fd5b94607f169462000088565b604186634e487b7160e01b6000525260246000fd5b634e487b7160e01b600052604160045260246000fd5b600080fdfe608060408181526004918236101561001657600080fd5b600092833560e01c91826306fdde031461048d57508163095ea7b3146103e357816318160ddd146103c457816323b872dd146102d05781632e1a7d4d146101ec57508063313ce567146101c657806340c10f19146101a257806370a082311461016c57806395d89b4114610140578063a9059cbb14610110578063d0e30db0146100f45763dd62ed3e146100a957600080fd5b346100f057806003193601126100f057806020926100c56105d5565b6100cd6105f0565b6001600160a01b0391821683526001865283832091168252845220549051908152f35b5080fd5b828060031936011261010d5761010a3433610823565b80f35b80fd5b50346100f057806003193601126100f05760209061013961012f6105d5565b6024359033610745565b5160018152f35b50346100f057816003193601126100f0576101689061015d61065a565b90519182918261058c565b0390f35b50346100f05760203660031901126100f05760209181906001600160a01b036101936105d5565b16815280845220549051908152f35b50346100f05736600319011261010d5761010a6101bd6105d5565b60243590610823565b50346100f057816003193601126100f05760209060ff6101e461089a565b915191168152f35b9050346102cc5760203660031901126102cc5780359033156102b55733845283602052828420549082821061028a57508380838194829433845283602052038683205580600254036002558186518281527fddf252ad1be2c89b69c2b068fc378daa952ba7f163c4a11628f55a4df523b3ef60203392a3818115610281575b3390f115610277575080f35b51903d90823e3d90fd5b506108fc61026b565b835163391434e360e21b81523391810191825260208201929092526040810183905281906060010390fd5b8251634b637e8f60e11b8152908101849052602490fd5b8280fd5b9050823461010d57606036600319011261010d576102ec6105d5565b6102f46105f0565b916044359360018060a01b038316808352600160205286832033845260205286832054916000198310610330575b602088610139898989610745565b86831061039857811561038157331561036a5750825260016020908152868320338452815291869020908590039055829061013987610322565b8751634a1406b160e11b8152908101849052602490fd5b875163e602df0560e01b8152908101849052602490fd5b8751637dc7a0d960e11b8152339181019182526020820193909352604081018790528291506060010390fd5b5050346100f057816003193601126100f0576020906002549051908152f35b9050346102cc57816003193601126102cc576103fd6105d5565b602435903315610476576001600160a01b031691821561045f57508083602095338152600187528181208582528752205582519081527f8c5be1e5ebec7d5bd14f71427d1e84f3dd0314c0f7b2291e5b200ac8c7c3b925843392a35160018152f35b8351634a1406b160e11b8152908101859052602490fd5b835163e602df0560e01b8152808401869052602490fd5b92915034610588578360031936011261058857600354600181811c918690828116801561057e575b602095868610821461056b575084885290811561054957506001146104f0575b61016886866104e6828b0383610638565b519182918261058c565b929550600383527fc2575a0e9e593c00f959f8c92f12db2869c3395a3b0502d05e2516446f71f85b5b8284106105365750505082610168946104e69282010194386104d5565b8054868501880152928601928101610519565b60ff191687860152505050151560051b83010192506104e682610168386104d5565b634e487b7160e01b845260229052602483fd5b93607f16936104b5565b8380fd5b6020808252825181830181905290939260005b8281106105c157505060409293506000838284010152601f8019910116010190565b81810186015184820160400152850161059f565b600435906001600160a01b03821682036105eb57565b600080fd5b602435906001600160a01b03821682036105eb57565b6040810190811067ffffffffffffffff82111761062257604052565b634e487b7160e01b600052604160045260246000fd5b90601f8019910116810190811067ffffffffffffffff82111761062257604052565b60405190600060045490600182811c9080841693841561073b575b6020948584108114610727578388528794939291811561070757506001146106a8575b50506106a692500383610638565b565b9093915060046000527f8a35acfbc15ff81a39ae7d344fd709f28e8600b4aa8c65c6b64bfe7fe36bd19b936000915b8183106106ef5750506106a693508201013880610698565b855488840185015294850194879450918301916106d7565b9150506106a694925060ff191682840152151560051b8201013880610698565b634e487b7160e01b85526022600452602485fd5b91607f1691610675565b916001600160a01b0380841692831561080a57169283156107f157600090838252816020526040822054908382106107bf575091604082827fddf252ad1be2c89b69c2b068fc378daa952ba7f163c4a11628f55a4df523b3ef958760209652828652038282205586815220818154019055604051908152a3565b60405163391434e360e21b81526001600160a01b03919091166004820152602481019190915260448101839052606490fd5b60405163ec442f0560e01b815260006004820152602490fd5b604051634b637e8f60e11b815260006004820152602490fd5b6001600160a01b03169081156107f157600254908082018092116108845760207fddf252ad1be2c89b69c2b068fc378daa952ba7f163c4a11628f55a4df523b3ef9160009360025584845283825260408420818154019055604051908152a3565b634e487b7160e01b600052601160045260246000fd5b7fd6aca1be9729c13d677335161321649cccae6a591554772516700f986f942eaa6108c361065a565b60208151910120635553444360e01b60206040516108e081610606565b6004815201521480156108fc575b6108f757601290565b600690565b507fd3a0b6adba09a35b26d58527f6ab565847fe7b37bb07968fb5df7cba3cff9e8c61092661065a565b6020815191012064615553444360d81b602060405161094481610606565b600581520152146108ee56fea2646970667358221220bc066378eded5a3f15abd25fc84cca971d9626a7ddc5d3f8da209f20a6ec299464736f6c63430008140033",
  "linkReferences": {},
  "deployedLinkReferences": {}
}