{
  "_format": "hh-sol-artifact-1",
  "contractName": "StakingPool",
  "sourceName": "contracts/StakingPool.sol",
  "abi": [
    {
      "inputs": [
        {
          "internalType": "address",
          "name": "_aavePool",
          "type": "address"
        },
        {
          "internalType": "address",
          "name": "_usdc",
          "type": "address"
        },
        {
          "internalType": "address",
          "name": "_aUsdc",
          "type": "address"
        },
        {
          "internalType": "address",
          "name": "_beneficiary",
          "type": "address"
        },
        {
          "internalType": "address",
          "name": "_platformWallet",
          "type": "address"
        },
        {
          "internalType": "address",
          "name": "_factoryAddress",
          "type": "address"
        },
        {
          "internalType": "address",
          "name": "_owner",
          "type": "address"
        }
      ],
      "stateMutability": "nonpayable",
      "type": "constructor"
    },
    {
      "inputs": [
        {
          "internalType": "address",
          "name": "owner",
          "type": "address"
        }
      ],
      "name": "OwnableInvalidOwner",
      "type": "error"
    },
    {
      "inputs": [
        {
          "internalType": "address",
          "name": "account",
          "type": "address"
        }
      ],
      "name": "OwnableUnauthorizedAccount",
      "type": "error"
    },
    {
      "inputs": [],
      "name": "ReentrancyGuardReentrantCall",
      "type": "error"
    },
    {
      "inputs": [
        {
          "internalType": "address",
          "name": "token",
          "type": "address"
        }
      ],
      "name": "SafeERC20FailedOperation",
      "type": "error"
    },
    {
      "anonymous": false,
      "inputs": [
        {
          "indexed": true,
          "internalType": "address",
          "name": "previousOwner",
          "type": "address"
        },
        {
          "indexed": true,
          "internalType": "address",
          "name": "newOwner",
          "type": "address"
        }
      ],
      "name": "OwnershipTransferred",
      "type": "event"
    },
    {
      "anonymous": false,
      "inputs": [
        {
          "indexed": true,
          "internalType": "address",
          "name": "staker",
          "type": "address"
        },
        {
          "indexed": false,
          "internalType": "uint256",
          "name": "amount",
          "type": "uint256"
        }
      ],
      "name": "RewardsClaimed",
      "type": "event"
    },
    {
      "anonymous": false,
      "inputs": [
        {
          "indexed": true,
          "internalType": "address",
          "name": "staker",
          "type": "address"
        },
        {
          "indexed": false,
          "internalType": "uint256",
          "name": "usdcAmount",
          "type": "uint256"
        }
      ],
      "name": "Staked",
      "type": "event"
    },
    {
      "anonymous": false,
      "inputs": [
        {
          "indexed": true,
          "internalType": "address",
          "name": "staker",
          "type": "address"
        },
        {
          "indexed": false,
          "internalType": "uint256",
          "name": "usdcAmount",
          "type": "uint256"
        }
      ],
      "name": "Unstaked",
      "type": "event"
    },
    {
      "anonymous": false,
      "inputs": [
        {
          "indexed": false,
          "internalType": "uint256",
          "name": "totalYield",
          "type": "uint256"
        },
        {
          "indexed": false,
          "internalType": "uint256",
          "name": "stakerShare",
          "type": "uint256"
        }
      ],
      "name": "YieldHarvested",
      "type": "event"
    },
    {
      "inputs": [],
      "name": "AAVE_POOL",
      "outputs": [
        {
          "internalType": "contract IAavePool",
          "name": "",
          "type": "address"
        }
      ],
      "stateMutability": "view",
      "type": "function"
    },
    {
      "inputs": [],
      "name": "FUNDRAISER_SHARE",
      "outputs": [
        {
          "internalType": "uint256",
          "name": "",
          "type": "uint256"
        }
      ],
      "stateMutability": "view",
      "type": "function"
    },
    {
      "inputs": [],
      "name": "HARVEST_INTERVAL",
      "outputs": [
        {
          "internalType": "uint256",
          "name": "",
          "type": "uint256"
        }
      ],
      "stateMutability": "view",
      "type": "function"
    },
    {
      "inputs": [],
      "name": "PLATFORM_SHARE",
      "outputs": [
        {
          "internalType": "uint256",
          "name": "",
          "type": "uint256"
        }
      ],
      "stateMutability": "view",
      "type": "function"
    },
    {
      "inputs": [],
      "name": "STAKER_SHARE",
      "outputs": [
        {
          "internalType": "uint256",
          "name": "",
          "type": "uint256"
        }
      ],
      "stateMutability": "view",
      "type": "function"
    },
    {
      "inputs": [],
      "name": "TOTAL_BASIS",
      "outputs": [
        {
          "internalType": "uint256",
          "name": "",
          "type": "uint256"
        }
      ],
      "stateMutability": "view",
      "type": "function"
    },
    {
      "inputs": [],
      "name": "USDC",
      "outputs": [
        {
          "internalType": "contract IERC20",
          "name": "",
          "type": "address"
        }
      ],
      "stateMutability": "view",
      "type": "function"
    },
    {
      "inputs": [],
      "name": "aUSDC",
      "outputs": [
        {
          "internalType": "contract IERC20",
          "name": "",
          "type": "address"
        }
      ],
      "stateMutability": "view",
      "type": "function"
    },
    {
      "inputs": [],
      "name": "beneficiary",
      "outputs": [
        {
          "internalType": "address",
          "name": "",
          "type": "address"
        }
      ],
      "stateMutability": "view",
      "type": "function"
    },
    {
      "inputs": [
        {
          "internalType": "bytes",
          "name": "",
          "type": "bytes"
        }
      ],
      "name": "checkUpkeep",
      "outputs": [
        {
          "internalType": "bool",
          "name": "upkeepNeeded",
          "type": "bool"
        },
        {
          "internalType": "bytes",
          "name": "performData",
          "type": "bytes"
        }
      ],
      "stateMutability": "view",
      "type": "function"
    },
    {
      "inputs": [],
      "name": "claimStakerRewards",
      "outputs": [],
      "stateMutability": "nonpayable",
      "type": "function"
    },
    {
      "inputs": [
        {
          "internalType": "address",
          "name": "staker",
          "type": "address"
        }
      ],
      "name": "claimableRewards",
      "outputs": [
        {
          "internalType": "uint256",
          "name": "",
          "type": "uint256"
        }
      ],
      "stateMutability": "view",
      "type": "function"
    },
    {
      "inputs": [
        {
          "internalType": "address",
          "name": "staker",
          "type": "address"
        },
        {
          "internalType": "uint256",
          "name": "usdcAmount",
          "type": "uint256"
        }
      ],
      "name": "depositFor",
      "outputs": [],
      "stateMutability": "nonpayable",
      "type": "function"
    },
    {
      "inputs": [
        {
          "internalType": "address",
          "name": "staker",
          "type": "address"
        }
      ],
      "name": "earned",
      "outputs": [
        {
          "internalType": "uint256",
          "name": "",
          "type": "uint256"
        }
      ],
      "stateMutability": "view",
      "type": "function"
    },
    {
      "inputs": [],
      "name": "factoryAddress",
      "outputs": [
        {
          "internalType": "address",
          "name": "",
          "type": "address"
        }
      ],
      "stateMutability": "view",
      "type": "function"
    },
    {
      "inputs": [],
      "name": "harvestAndDistribute",
      "outputs": [],
      "stateMutability": "nonpayable",
      "type": "function"
    },
    {
      "inputs": [],
      "name": "lastHarvestTimestamp",
      "outputs": [
        {
          "internalType": "uint256",
          "name": "",
          "type": "uint256"
        }
      ],
      "stateMutability": "view",
      "type": "function"
    },
    {
      "inputs": [],
      "name": "owner",
      "outputs": [
        {
          "internalType": "address",
          "name": "",
          "type": "address"
        }
      ],
      "stateMutability": "view",
      "type": "function"
    },
    {
      "inputs": [
        {
          "internalType": "bytes",
          "name": "",
          "type": "bytes"
        }
      ],
      "name": "performUpkeep",
      "outputs": [],
      "stateMutability": "nonpayable",
      "type": "function"
    },
    {
      "inputs": [],
      "name": "platformWallet",
      "outputs": [
        {
          "internalType": "address",
          "name": "",
          "type": "address"
        }
      ],
      "stateMutability": "view",
      "type": "function"
    },
    {
      "inputs": [],
      "name": "renounceOwnership",
      "outputs": [],
      "stateMutability": "nonpayable",
      "type": "function"
    },
    {
      "inputs": [],
      "name": "rewardPerTokenStored",
      "outputs": [
        {
          "internalType": "uint256",
          "name": "",
          "type": "uint256"
        }
      ],
      "stateMutability": "view",
      "type": "function"
    },
    {
      "inputs": [
        {
          "internalType": "address",
          "name": "",
          "type": "address"
        }
      ],
      "name": "rewards",
      "outputs": [
        {
          "internalType": "uint256",
          "name": "",
          "type": "uint256"
        }
      ],
      "stateMutability": "view",
      "type": "function"
    },
    {
      "inputs": [
        {
          "internalType": "address",
          "name": "",
          "type": "address"
        }
      ],
      "name": "stakerPrincipal",
      "outputs": [
        {
          "internalType": "uint256",
          "name": "",
          "type": "uint256"
        }
      ],
      "stateMutability": "view",
      "type": "function"
    },
    {
      "inputs": [],
      "name": "totalStakedPrincipal",
      "outputs": [
        {
          "internalType": "uint256",
          "name": "",
          "type": "uint256"
        }
      ],
      "stateMutability": "view",
      "type": "function"
    },
    {
      "inputs": [
        {
          "internalType": "address",
          "name": "newOwner",
          "type": "address"
        }
      ],
      "name": "transferOwnership",
      "outputs": [],
      "stateMutability": "nonpayable",
      "type": "function"
    },
    {
      "inputs": [
        {
          "internalType": "uint256",
          "name": "usdcAmount",
          "type": "uint256"
        }
      ],
      "name": "unstake",
      "outputs": [],
      "stateMutability": "nonpayable",
      "type": "function"
    },
    {
      "inputs": [
        {
          "internalType": "address",
          "name": "",
          "type": "address"
        }
      ],
      "name": "userRewardPerTokenPaid",
      "outputs": [
        {
          "internalType": "uint256",
          "name": "",
          "type": "uint256"
        }
      ],
      "stateMutability": "view",
      "type": "function"
    }
  ],
  "bytecode": "0x61014060409080825234620002b95760e081620016168038038091620000268285620002be565b833981010312620002b9576200003c81620002f8565b9160206200004c818401620002f8565b906200005a838501620002f8565b6200006860608601620002f8565b956200007760808701620002f8565b966200009460c06200008c60a08a01620002f8565b9801620002f8565b60016000908155956001600160a01b03918216938415620002a157600180546001600160a01b03198116871790915589519584929183167f8be0079c531659141344cd1fd0a4f28419497f9722a3daafe3b4186f6b6457e08b80a3169384156200026b57508116938415620002385792859492604492889795836080528560a0521660c05260e052610100998a526101209889528751958693849263095ea7b360e01b8452600484015260001960248401525af180156200022e57620001ed575b505050519061130892836200030e84396080518381816108f901528181610b4501528181610c63015261105f015260a0518381816103bb015281816104990152818161088901528181610afe015261100c015260c0518381816105d8015281816107190152610fae015260e0518381816107bd01526110d8015251828181610169015261110101525181818161031601526108180152f35b81813d831162000226575b620002048183620002be565b81010312620002225751801515036200021f57808062000155565b80fd5b5080fd5b503d620001f8565b84513d85823e3d90fd5b875162461bcd60e51b815260048101879052600c60248201526b496e76616c6964205553444360a01b6044820152606490fd5b62461bcd60e51b8152600481018790526011602482015270125b9d985b1a590810585d9948141bdbdb607a1b6044820152606490fd5b8851631e4fbdf760e01b815260048101899052602490fd5b600080fd5b601f909101601f19168101906001600160401b03821190821017620002e257604052565b634e487b7160e01b600052604160045260246000fd5b51906001600160a01b0382168203620002b95756fe6040608081526004908136101561001557600080fd5b600091823560e01c9081628cc26214610ce757816303e8497514610cca5781630700037d14610c9257816308a0167514610c4e5781630d9a34a214610c305781632257a73814610c115781632e17de7814610a595781632f4f21e2146107ec57816338af3eed146107a85781634585e33b14610748578163559fda331461070457816366fab57c146106e85781636e04ff0d146105985781636e63c15914610560578163715018a6146105025781637306236d14610407578163891ccdc9146103ea57816389a30271146103a65781638b8763471461036e5781638da5cb5b14610345578163966dae0e14610301578163c0ca838a146102e2578163dc01f60d14610297578163df136d6514610279578163e4d873201461024e578163e7eeb04514610231578163f2fde38b1461019c575063fa2af9da1461015657600080fd5b34610198578160031936011261019857517f00000000000000000000000000000000000000000000000000000000000000006001600160a01b03168152602090f35b5080fd5b90503461022d57602036600319011261022d576101b7610d0d565b906101c0610d6d565b6001600160a01b03918216928315610217575050600154826bffffffffffffffffffffffff60a01b821617600155167f8be0079c531659141344cd1fd0a4f28419497f9722a3daafe3b4186f6b6457e0600080a380f35b51631e4fbdf760e01b8152908101849052602490fd5b8280fd5b505034610198578160031936011261019857602090516127108152f35b8334610276578060031936011261027657610267610f0a565b61026f610f7f565b6001815580f35b80fd5b90503461022d578260031936011261022d5760209250549051908152f35b505034610198576020366003190112610198576102db6020926102d5836102bc610d0d565b6001600160a01b03811684526006875292205491610df4565b90610e54565b9051908152f35b5050346101985781600319360112610198576020906002549051908152f35b505034610198578160031936011261019857517f00000000000000000000000000000000000000000000000000000000000000006001600160a01b03168152602090f35b50503461019857816003193601126101985760015490516001600160a01b039091168152602090f35b5050346101985760203660031901126101985760209181906001600160a01b03610396610d0d565b1681526005845220549051908152f35b505034610198578160031936011261019857517f00000000000000000000000000000000000000000000000000000000000000006001600160a01b03168152602090f35b50503461019857816003193601126101985760209051611edc8152f35b9190503461022d578260031936011261022d57610422610f0a565b61042b33610df4565b9033845260209160068352610444828620918254610e54565b90558254338552600583528185205560068252808420549283156104cb5750907ffc30cddea38e2bf4d6ea7d3f9ed3b6ad7f176419f4963bd81318067a4aee73fe913385526006825284818120556104bd84337f0000000000000000000000000000000000000000000000000000000000000000610f2d565b519283523392a26001815580f35b82606492519162461bcd60e51b835282015260136024820152724e6f207265776172647320746f20636c61696d60681b6044820152fd5b833461027657806003193601126102765761051b610d6d565b600180546001600160a01b031981169091556000906001600160a01b03167f8be0079c531659141344cd1fd0a4f28419497f9722a3daafe3b4186f6b6457e08280a380f35b5050346101985760203660031901126101985760209181906001600160a01b03610588610d0d565b1681526003845220549051908152f35b828434610276576105a836610d23565b5050620151806105ba60075442610d99565b83516370a0823160e01b8152308187015291109360209182816024817f00000000000000000000000000000000000000000000000000000000000000006001600160a01b03165afa9081156106de5784916106ac575b5060025410856106a4575b508351908282019082821067ffffffffffffffff83111761068f5750848487928252808452815194859315158452828185015284518093850152815b83811061067857505060608094508284010152601f80199101168101030190f35b808601820151878201606001528694508101610657565b604190634e487b7160e01b6000525260246000fd5b94508561061b565b90508281813d83116106d7575b6106c38183610dbc565b810103126106d2575186610610565b600080fd5b503d6106b9565b85513d86823e3d90fd5b5050346101985781600319360112610198576020905160c88152f35b505034610198578160031936011261019857517f00000000000000000000000000000000000000000000000000000000000000006001600160a01b03168152602090f35b9190503461022d5761075936610d23565b50506201518061076b60075442610d99565b111561077a5782610267610f0a565b906020606492519162461bcd60e51b835282015260086024820152672a37b79039b7b7b760c11b6044820152fd5b505034610198578160031936011261019857517f00000000000000000000000000000000000000000000000000000000000000006001600160a01b03168152602090f35b90503461022d578160031936011261022d57610806610d0d565b9160248035926001600160a01b0391907f0000000000000000000000000000000000000000000000000000000000000000831633819003610a1757610849610f0a565b8361085388610df4565b971696878952600660205261086c868a20918254610e54565b90558154878952600560205285892055610887861515610e61565b7f0000000000000000000000000000000000000000000000000000000000000000938551916323b872dd60e01b6020840152848301523060448301528660648301526064825260a082019167ffffffffffffffff9281811084821117610a05578a92916108f691895287610ea2565b807f00000000000000000000000000000000000000000000000000000000000000001695863b1561022d57608490838951988994859363617ba03760e01b855216888401528b898401523060448401528160648401525af180156109fb576109b2575b87877f9e71bc8eea02a63969f509818f2dafb9254532904319f9dbda79b67bd34a5f3d6020898984865260038352808620610995838254610e54565b90556109a382600254610e54565b60025551908152a26001815580f35b83979497116109ea5750508452928160207f9e71bc8eea02a63969f509818f2dafb9254532904319f9dbda79b67bd34a5f3d38610959565b634e487b7160e01b84526041905282fd5b85513d8a823e3d90fd5b634e487b7160e01b8b5260418552858bfd5b506019606492602086519362461bcd60e51b85528401528201527f5374616b696e67506f6f6c3a204f6e6c7920666163746f7279000000000000006044820152fd5b9190503461022d57602080600319360112610bc657823592610a79610f0a565b610a8233610df4565b33865260068352610a97848720918254610e54565b905580543386526005835283862055610ab1841515610e61565b33855260038252838386205410610bdb5733855260038252828520610ad7858254610d99565b9055610ae584600254610d99565b6002558251631a4ca37b60e21b81526001600160a01b037f000000000000000000000000000000000000000000000000000000000000000081169282019283526020830186905233604084015290918391839182908990829060600103927f0000000000000000000000000000000000000000000000000000000000000000165af18015610bd157610ba3575b507f0f5bb82176feb1b5e747e28471aa92156a04d9f3ab9f45f28e2d704232b93f7591519283523392a26001815580f35b8190813d8311610bca575b610bb88183610dbc565b81010312610bc65738610b72565b8380fd5b503d610bae565b83513d87823e3d90fd5b915162461bcd60e51b8152918201526012602482015271496e73756666696369656e74207374616b6560701b6044820152606490fd5b5050346101985781600319360112610198576020906007549051908152f35b50503461019857816003193601126101985760209051620151808152f35b505034610198578160031936011261019857517f00000000000000000000000000000000000000000000000000000000000000006001600160a01b03168152602090f35b5050346101985760203660031901126101985760209181906001600160a01b03610cba610d0d565b1681526006845220549051908152f35b5050346101985781600319360112610198576020905161076c8152f35b505034610198576020366003190112610198576020906102db610d08610d0d565b610df4565b600435906001600160a01b03821682036106d257565b9060206003198301126106d25760043567ffffffffffffffff928382116106d257806023830112156106d25781600401359384116106d257602484830101116106d2576024019190565b6001546001600160a01b03163303610d8157565b60405163118cdaa760e01b8152336004820152602490fd5b91908203918211610da657565b634e487b7160e01b600052601160045260246000fd5b90601f8019910116810190811067ffffffffffffffff821117610dde57604052565b634e487b7160e01b600052604160045260246000fd5b600454670de0b6b3a76400009182820291808304841490151715610da65760018060a01b03166000526003602052610e3f604060002054916005602052836040600020549104610d99565b90818102918183041490151715610da6570490565b91908201809211610da657565b15610e6857565b60405162461bcd60e51b81526020600482015260126024820152710416d6f756e74206d757374206265203e20360741b6044820152606490fd5b906000602091828151910182855af115610efe576000513d610ef557506001600160a01b0381163b155b610ed35750565b604051635274afe760e01b81526001600160a01b039091166004820152602490fd5b60011415610ecc565b6040513d6000823e3d90fd5b600260005414610f1b576002600055565b604051633ee5aeb560e01b8152600490fd5b60405163a9059cbb60e01b60208201526001600160a01b039092166024830152604480830193909352918152608081019167ffffffffffffffff831182841017610dde57610f7d92604052610ea2565b565b604080516370a0823160e01b81523060048083019190915260249392916001600160a01b0390602090818188817f000000000000000000000000000000000000000000000000000000000000000087165afa9081156112c75760009161129a575b5060025490818111156112905790610ff791610d99565b92831561125a578451631a4ca37b60e21b81527f00000000000000000000000000000000000000000000000000000000000000008481166001600160a01b031683830190815260208101879052306040820152909484918391908290600090829060600103927f0000000000000000000000000000000000000000000000000000000000000000165af1801561124f57908391611226575b5050611edc840292611edb19858504016112125761076c850261076b19868204016111fe576127108091049460c887029087820460c8036111ea57906110fd83611126959493047f000000000000000000000000000000000000000000000000000000000000000085610f2d565b04907f000000000000000000000000000000000000000000000000000000000000000090610f2d565b60025496871590811561116a575b5050507f3fb12fb590bb295327f3bfc48158ada0b1147f8f823e0c7a09b98b301d186774949550426007558351928352820152a1565b670de0b6b3a7640000918286029286840414861517156111d6576111c357507f3fb12fb590bb295327f3bfc48158ada0b1147f8f823e0c7a09b98b301d18677496976111b891048254610e54565b905585943880611134565b634e487b7160e01b600090815260128452fd5b50634e487b7160e01b600090815260118452fd5b8a601186634e487b7160e01b600052526000fd5b88601184634e487b7160e01b600052526000fd5b87601183634e487b7160e01b600052526000fd5b813d8311611248575b6112398183610dbc565b810103126106d257813861108f565b503d61122f565b86513d6000823e3d90fd5b60138760649387519362461bcd60e51b855284015282015272139bc81e5a595b19081d1bc81a185c9d995cdd606a1b6044820152fd5b5050505050509050565b908282813d83116112c0575b6112b08183610dbc565b8101031261027657505138610fe0565b503d6112a6565b85513d6000823e3d90fdfea264697066735822122073c429679e56c6983855bccd3739323be01acfb3340f36c5412f05233176c97e64736f6c63430008140033",
  "linkReferences": {},
  "deployedLinkReferences": {}
}