{
  "_format": "hh-sol-artifact-1",
  "contractName": "MorphoStakingPool",
  "sourceName": "contracts/MorphoStakingPool.sol",
  "abi": [
    {
      "inputs": [
        {
          "internalType": "address",
          "name": "_morphoVault",
          "type": "address"
        },
        {
          "internalType": "address",
          "name": "_usdt",
          "type": "address"
        },
        {
          "internalType": "address",
          "name": "_beneficiary",
          "type": "address"
        },
        {
          "internalType": "address",
          "name": "_platformWallet",
          "type": "address"
        },
        {
          "internalType": "address",
          "name": "_factoryAddress",
          "type": "address"
        },
        {
          "internalType": "address",
          "name": "_owner",
          "type": "address"
        }
      ],
      "stateMutability": "nonpayable",
      "type": "constructor"
    },
    {
      "inputs": [
        {
          "internalType": "address",
          "name": "owner",
          "type": "address"
        }
      ],
      "name": "OwnableInvalidOwner",
      "type": "error"
    },
    {
      "inputs": [
        {
          "internalType": "address",
          "name": "account",
          "type": "address"
        }
      ],
      "name": "OwnableUnauthorizedAccount",
      "type": "error"
    },
    {
      "inputs": [],
      "name": "ReentrancyGuardReentrantCall",
      "type": "error"
    },
    {
      "inputs": [
        {
          "internalType": "address",
          "name": "token",
          "type": "address"
        }
      ],
      "name": "SafeERC20FailedOperation",
      "type": "error"
    },
    {
      "anonymous": false,
      "inputs": [
        {
          "indexed": true,
          "internalType": "address",
          "name": "previousOwner",
          "type": "address"
        },
        {
          "indexed": true,
          "internalType": "address",
          "name": "newOwner",
          "type": "address"
        }
      ],
      "name": "OwnershipTransferred",
      "type": "event"
    },
    {
      "anonymous": false,
      "inputs": [
        {
          "indexed": true,
          "internalType": "address",
          "name": "staker",
          "type": "address"
        },
        {
          "indexed": false,
          "internalType": "uint256",
          "name": "amount",
          "type": "uint256"
        }
      ],
      "name": "RewardsClaimed",
      "type": "event"
    },
    {
      "anonymous": false,
      "inputs": [
        {
          "indexed": true,
          "internalType": "address",
          "name": "staker",
          "type": "address"
        },
        {
          "indexed": false,
          "internalType": "uint256",
          "name": "usdtAmount",
          "type": "uint256"
        }
      ],
      "name": "Staked",
      "type": "event"
    },
    {
      "anonymous": false,
      "inputs": [
        {
          "indexed": true,
          "internalType": "address",
          "name": "staker",
          "type": "address"
        },
        {
          "indexed": false,
          "internalType": "uint256",
          "name": "usdtAmount",
          "type": "uint256"
        }
      ],
      "name": "Unstaked",
      "type": "event"
    },
    {
      "anonymous": false,
      "inputs": [
        {
          "indexed": false,
          "internalType": "uint256",
          "name": "totalYield",
          "type": "uint256"
        },
        {
          "indexed": false,
          "internalType": "uint256",
          "name": "stakerShare",
          "type": "uint256"
        }
      ],
      "name": "YieldHarvested",
      "type": "event"
    },
    {
      "inputs": [],
      "name": "FUNDRAISER_SHARE",
      "outputs": [
        {
          "internalType": "uint256",
          "name": "",
          "type": "uint256"
        }
      ],
      "stateMutability": "view",
      "type": "function"
    },
    {
      "inputs": [],
      "name": "METAMORPHO_VAULT",
      "outputs": [
        {
          "internalType": "contract IMetaMorpho",
          "name": "",
          "type": "address"
        }
      ],
      "stateMutability": "view",
      "type": "function"
    },
    {
      "inputs": [],
      "name": "PLATFORM_SHARE",
      "outputs": [
        {
          "internalType": "uint256",
          "name": "",
          "type": "uint256"
        }
      ],
      "stateMutability": "view",
      "type": "function"
    },
    {
      "inputs": [],
      "name": "STAKER_SHARE",
      "outputs": [
        {
          "internalType": "uint256",
          "name": "",
          "type": "uint256"
        }
      ],
      "stateMutability": "view",
      "type": "function"
    },
    {
      "inputs": [],
      "name": "TOTAL_BASIS",
      "outputs": [
        {
          "internalType": "uint256",
          "name": "",
          "type": "uint256"
        }
      ],
      "stateMutability": "view",
      "type": "function"
    },
    {
      "inputs": [],
      "name": "USDT",
      "outputs": [
        {
          "internalType": "contract IERC20",
          "name": "",
          "type": "address"
        }
      ],
      "stateMutability": "view",
      "type": "function"
    },
    {
      "inputs": [],
      "name": "beneficiary",
      "outputs": [
        {
          "internalType": "address",
          "name": "",
          "type": "address"
        }
      ],
      "stateMutability": "view",
      "type": "function"
    },
    {
      "inputs": [],
      "name": "claimStakerRewards",
      "outputs": [],
      "stateMutability": "nonpayable",
      "type": "function"
    },
    {
      "inputs": [
        {
          "internalType": "address",
          "name": "staker",
          "type": "address"
        }
      ],
      "name": "claimableRewards",
      "outputs": [
        {
          "internalType": "uint256",
          "name": "",
          "type": "uint256"
        }
      ],
      "stateMutability": "view",
      "type": "function"
    },
    {
      "inputs": [
        {
          "internalType": "address",
          "name": "staker",
          "type": "address"
        },
        {
          "internalType": "uint256",
          "name": "usdtAmount",
          "type": "uint256"
        }
      ],
      "name": "depositFor",
      "outputs": [],
      "stateMutability": "nonpayable",
      "type": "function"
    },
    {
      "inputs": [
        {
          "internalType": "address",
          "name": "staker",
          "type": "address"
        }
      ],
      "name": "earned",
      "outputs": [
        {
          "internalType": "uint256",
          "name": "",
          "type": "uint256"
        }
      ],
      "stateMutability": "view",
      "type": "function"
    },
    {
      "inputs": [],
      "name": "factoryAddress",
      "outputs": [
        {
          "internalType": "address",
          "name": "",
          "type": "address"
        }
      ],
      "stateMutability": "view",
      "type": "function"
    },
    {
      "inputs": [],
      "name": "harvestAndDistribute",
      "outputs": [],
      "stateMutability": "nonpayable",
      "type": "function"
    },
    {
      "inputs": [],
      "name": "owner",
      "outputs": [
        {
          "internalType": "address",
          "name": "",
          "type": "address"
        }
      ],
      "stateMutability": "view",
      "type": "function"
    },
    {
      "inputs": [],
      "name": "platformWallet",
      "outputs": [
        {
          "internalType": "address",
          "name": "",
          "type": "address"
        }
      ],
      "stateMutability": "view",
      "type": "function"
    },
    {
      "inputs": [],
      "name": "renounceOwnership",
      "outputs": [],
      "stateMutability": "nonpayable",
      "type": "function"
    },
    {
      "inputs": [],
      "name": "rewardPerTokenStored",
      "outputs": [
        {
          "internalType": "uint256",
          "name": "",
          "type": "uint256"
        }
      ],
      "stateMutability": "view",
      "type": "function"
    },
    {
      "inputs": [
        {
          "internalType": "address",
          "name": "",
          "type": "address"
        }
      ],
      "name": "rewards",
      "outputs": [
        {
          "internalType": "uint256",
          "name": "",
          "type": "uint256"
        }
      ],
      "stateMutability": "view",
      "type": "function"
    },
    {
      "inputs": [
        {
          "internalType": "address",
          "name": "",
          "type": "address"
        }
      ],
      "name": "stakerPrincipal",
      "outputs": [
        {
          "internalType": "uint256",
          "name": "",
          "type": "uint256"
        }
      ],
      "stateMutability": "view",
      "type": "function"
    },
    {
      "inputs": [],
      "name": "totalStakedPrincipal",
      "outputs": [
        {
          "internalType": "uint256",
          "name": "",
          "type": "uint256"
        }
      ],
      "stateMutability": "view",
      "type": "function"
    },
    {
      "inputs": [
        {
          "internalType": "address",
          "name": "newOwner",
          "type": "address"
        }
      ],
      "name": "transferOwnership",
      "outputs": [],
      "stateMutability": "nonpayable",
      "type": "function"
    },
    {
      "inputs": [
        {
          "internalType": "uint256",
          "name": "usdtAmount",
          "type": "uint256"
        }
      ],
      "name": "unstake",
      "outputs": [],
      "stateMutability": "nonpayable",
      "type": "function"
    },
    {
      "inputs": [
        {
          "internalType": "address",
          "name": "",
          "type": "address"
        }
      ],
      "name": "userRewardPerTokenPaid",
      "outputs": [
        {
          "internalType": "uint256",
          "name": "",
          "type": "uint256"
        }
      ],
      "stateMutability": "view",
      "type": "function"
    }
  ],
  "bytecode": "0x6101206040818152346200020a5760c0826200124980380380916200002582856200020f565b8339810103126200020a576200003b8262000249565b620000496020840162000249565b906200005783850162000249565b620000656060860162000249565b916200008260a06200007a6080890162000249565b970162000249565b60016000908155946001600160a01b03918216949193918515620001f257604492859492889286602098600154968b60018060a01b03198916176001558d519b8c9a8b99167f8be0079c531659141344cd1fd0a4f28419497f9722a3daafe3b4186f6b6457e08980a316928360805216928360a05260c05260e0526101009a8b5263095ea7b360e01b8452600484015260001960248401525af18015620001e857620001a3575b505051610fea91826200025f833960805182818161024601528181610a2301528181610bf40152610cdd015260a05182818161034a015281816105ff015281816107a101526109e2015260c05182818161036d01526108d3015260e0518281816101320152610396015251818181610662015261092a0152f35b6020813d8211620001df575b81620001be602093836200020f565b81010312620001db575180151503620001d8578062000129565b80fd5b5080fd5b3d9150620001af565b83513d84823e3d90fd5b8751631e4fbdf760e01b815260048101889052602490fd5b600080fd5b601f909101601f19168101906001600160401b038211908210176200023357604052565b634e487b7160e01b600052604160045260246000fd5b51906001600160a01b03821682036200020a5756fe6040608081526004908136101561001557600080fd5b600091823560e01c9081628cc26214610d6157816303e8497514610d445781630700037d14610d0c5781631176e90b14610cc85781632e17de7814610b2f5781632f4f21e21461090257816338af3eed146108be57816366fab57c146108a25781636e63c1591461086a578163715018a61461080a5781637306236d1461070f578163891ccdc9146106f25781638b876347146106ba5781638da5cb5b14610691578163966dae0e1461064d578163c0ca838a1461062e578163c54e44eb146105ea578163dc01f60d1461059f578163df136d6514610581578163e4d8732014610216578163e7eeb045146101f9578163f2fde38b14610165575063fa2af9da1461011f57600080fd5b34610161578160031936011261016157517f00000000000000000000000000000000000000000000000000000000000000006001600160a01b03168152602090f35b5080fd5b9050346101f55760203660031901126101f557610180610d87565b90610189610da2565b6001600160a01b039182169283156101df575050600154826bffffffffffffffffffffffff60a01b821617600155167f8be0079c531659141344cd1fd0a4f28419497f9722a3daafe3b4186f6b6457e08380a380f35b51631e4fbdf760e01b8152908101849052602490fd5b8280fd5b505034610161578160031936011261016157602090516127108152f35b838334610161578160031936011261016157610230610f3f565b80516370a0823160e01b815230848201526024937f00000000000000000000000000000000000000000000000000000000000000006001600160a01b03169160209081818881875afa9081156104df578691610554575b5084519063266d6a8360e11b82528382015281818881875afa80156104df578690610521575b6102bb915060025490610dce565b9283156104e9578451632d182be560e21b8152838101858152306020820181905260408201529091839183919082908a90829060600103925af180156104df579082916104b2575b5050611edc830291611edb19848404016104a05761076c84029261076b198585040161048e576127108094049360c8860286810460c80361047c57906103bb9291610392827f000000000000000000000000000000000000000000000000000000000000000094047f000000000000000000000000000000000000000000000000000000000000000085610f62565b04907f000000000000000000000000000000000000000000000000000000000000000090610f62565b600254968715908115610400575b5050507f3fb12fb590bb295327f3bfc48158ada0b1147f8f823e0c7a09b98b301d1867749495508351928352820152a16001815580f35b670de0b6b3a76400009182860292868404148615171561046a5761045957507f3fb12fb590bb295327f3bfc48158ada0b1147f8f823e0c7a09b98b301d186774969761044e91048254610e51565b9055859487806103c9565b634e487b7160e01b88526012835287fd5b50634e487b7160e01b88526011835287fd5b634e487b7160e01b8952601184528989fd5b634e487b7160e01b8752601182528787fd5b634e487b7160e01b8652601190528585fd5b813d83116104d8575b6104c58183610e9f565b810103126104d4578087610303565b8480fd5b503d6104bb565b85513d88823e3d90fd5b845162461bcd60e51b815280840183905260138189015272139bc81e5a595b19081d1bc81a185c9d995cdd606a1b6044820152606490fd5b508181813d831161054d575b6105378183610e9f565b81010312610549576102bb90516102ad565b8580fd5b503d61052d565b90508181813d831161057a575b61056b8183610e9f565b81010312610549575187610287565b503d610561565b9050346101f557826003193601126101f55760209250549051908152f35b505034610161576020366003190112610161576105e36020926105dd836105c4610d87565b6001600160a01b03811684526006875292205491610df1565b90610e51565b9051908152f35b505034610161578160031936011261016157517f00000000000000000000000000000000000000000000000000000000000000006001600160a01b03168152602090f35b5050346101615781600319360112610161576020906002549051908152f35b505034610161578160031936011261016157517f00000000000000000000000000000000000000000000000000000000000000006001600160a01b03168152602090f35b50503461016157816003193601126101615760015490516001600160a01b039091168152602090f35b5050346101615760203660031901126101615760209181906001600160a01b036106e2610d87565b1681526005845220549051908152f35b50503461016157816003193601126101615760209051611edc8152f35b919050346101f557826003193601126101f55761072a610f3f565b61073333610df1565b903384526020916006835261074c828620918254610e51565b90558254338552600583528185205560068252808420549283156107d35750907ffc30cddea38e2bf4d6ea7d3f9ed3b6ad7f176419f4963bd81318067a4aee73fe913385526006825284818120556107c584337f0000000000000000000000000000000000000000000000000000000000000000610f62565b519283523392a26001815580f35b82606492519162461bcd60e51b835282015260136024820152724e6f207265776172647320746f20636c61696d60681b6044820152fd5b8334610867578060031936011261086757610823610da2565b600180546001600160a01b0319811690915581906001600160a01b03167f8be0079c531659141344cd1fd0a4f28419497f9722a3daafe3b4186f6b6457e08280a380f35b80fd5b5050346101615760203660031901126101615760209181906001600160a01b03610892610d87565b1681526003845220549051908152f35b5050346101615781600319360112610161576020905160c88152f35b505034610161578160031936011261016157517f00000000000000000000000000000000000000000000000000000000000000006001600160a01b03168152602090f35b919050346101f557806003193601126101f55761091d610d87565b60243560018060a01b03807f00000000000000000000000000000000000000000000000000000000000000001694853303610aec5761095a610f3f565b8161096485610df1565b9416958688526020946006865261097f878a20918254610e51565b905581548789526005865286892055610999841515610e5e565b8551906323b872dd60e01b8683015260248201523060448201528360648201526064815260a0810181811067ffffffffffffffff821117610ad9578592610a0686936044938a527f0000000000000000000000000000000000000000000000000000000000000000610ed7565b8988519586948593636e553f6560e01b85528401523060248401527f0000000000000000000000000000000000000000000000000000000000000000165af18015610acf57610aa5575b507f9e71bc8eea02a63969f509818f2dafb9254532904319f9dbda79b67bd34a5f3d9284865260038352808620610a88838254610e51565b9055610a9682600254610e51565b60025551908152a26001815580f35b8290813d8311610ac8575b610aba8183610e9f565b810103126104d45738610a50565b503d610ab0565b84513d88823e3d90fd5b634e487b7160e01b895260418352602489fd5b606490602086519162461bcd60e51b8352820152601960248201527f5374616b696e67506f6f6c3a204f6e6c7920666163746f7279000000000000006044820152fd5b919050346101f557602080600319360112610c7d57823592610b4f610f3f565b610b5833610df1565b33865260068352610b6d848720918254610e51565b905580543386526005835283862055610b87841515610e5e565b33855260038252838386205410610c925781610bef9133875260038252848720610bb2878254610dce565b9055610bc086600254610dce565b6002558451632d182be560e21b8152908101868152336020820152306040820152909283918291606090910190565b0381887f00000000000000000000000000000000000000000000000000000000000000006001600160a01b03165af18015610c8857610c5a575b507f0f5bb82176feb1b5e747e28471aa92156a04d9f3ab9f45f28e2d704232b93f7591519283523392a26001815580f35b8190813d8311610c81575b610c6f8183610e9f565b81010312610c7d5738610c29565b8380fd5b503d610c65565b83513d87823e3d90fd5b915162461bcd60e51b8152918201526012602482015271496e73756666696369656e74207374616b6560701b6044820152606490fd5b505034610161578160031936011261016157517f00000000000000000000000000000000000000000000000000000000000000006001600160a01b03168152602090f35b5050346101615760203660031901126101615760209181906001600160a01b03610d34610d87565b1681526006845220549051908152f35b5050346101615781600319360112610161576020905161076c8152f35b505034610161576020366003190112610161576020906105e3610d82610d87565b610df1565b600435906001600160a01b0382168203610d9d57565b600080fd5b6001546001600160a01b03163303610db657565b60405163118cdaa760e01b8152336004820152602490fd5b91908203918211610ddb57565b634e487b7160e01b600052601160045260246000fd5b600454670de0b6b3a76400009182820291808304841490151715610ddb5760018060a01b03166000526003602052610e3c604060002054916005602052836040600020549104610dce565b90818102918183041490151715610ddb570490565b91908201809211610ddb57565b15610e6557565b60405162461bcd60e51b81526020600482015260126024820152710416d6f756e74206d757374206265203e20360741b6044820152606490fd5b90601f8019910116810190811067ffffffffffffffff821117610ec157604052565b634e487b7160e01b600052604160045260246000fd5b906000602091828151910182855af115610f33576000513d610f2a57506001600160a01b0381163b155b610f085750565b604051635274afe760e01b81526001600160a01b039091166004820152602490fd5b60011415610f01565b6040513d6000823e3d90fd5b600260005414610f50576002600055565b604051633ee5aeb560e01b8152600490fd5b60405163a9059cbb60e01b60208201526001600160a01b039092166024830152604480830193909352918152608081019167ffffffffffffffff831182841017610ec157610fb292604052610ed7565b56fea26469706673582212200ecd6b9ee7f30336d16fb0a96715817ce3ba2a265d7fa816fe537ebffaf951bc64736f6c63430008140033",
  "linkReferences": {},
  "deployedLinkReferences": {}
}