{
  "_format": "hh-sol-artifact-1",
  "contractName": "CowSwapAdapter",
  "sourceName": "contracts/adapters/CowSwapAdapter.sol",
  "abi": [
    {
      "inputs": [
        {
          "internalType": "address",
          "name": "_cowBatcher",
          "type": "address"
        },
        {
          "internalType": "address",
          "name": "_usdc",
          "type": "address"
        },
        {
          "internalType": "address",
          "name": "_weth",
          "type": "address"
        },
        {
          "internalType": "address",
          "name": "_owner",
          "type": "address"
        }
      ],
      "stateMutability": "nonpayable",
      "type": "constructor"
    },
    {
      "inputs": [
        {
          "internalType": "address",
          "name": "owner",
          "type": "address"
        }
      ],
      "name": "OwnableInvalidOwner",
      "type": "error"
    },
    {
      "inputs": [
        {
          "internalType": "address",
          "name": "account",
          "type": "address"
        }
      ],
      "name": "OwnableUnauthorizedAccount",
      "type": "error"
    },
    {
      "inputs": [
        {
          "internalType": "address",
          "name": "token",
          "type": "address"
        }
      ],
      "name": "SafeERC20FailedOperation",
      "type": "error"
    },
    {
      "anonymous": false,
      "inputs": [
        {
          "indexed": true,
          "internalType": "address",
          "name": "previousOwner",
          "type": "address"
        },
        {
          "indexed": true,
          "internalType": "address",
          "name": "newOwner",
          "type": "address"
        }
      ],
      "name": "OwnershipTransferred",
      "type": "event"
    },
    {
      "inputs": [],
      "name": "DEFAULT_SLIPPAGE_BPS",
      "outputs": [
        {
          "internalType": "uint256",
          "name": "",
          "type": "uint256"
        }
      ],
      "stateMutability": "view",
      "type": "function"
    },
    {
      "inputs": [],
      "name": "ORDER_VALIDITY_SECONDS",
      "outputs": [
        {
          "internalType": "uint32",
          "name": "",
          "type": "uint32"
        }
      ],
      "stateMutability": "view",
      "type": "function"
    },
    {
      "inputs": [],
      "name": "USDC",
      "outputs": [
        {
          "internalType": "address",
          "name": "",
          "type": "address"
        }
      ],
      "stateMutability": "view",
      "type": "function"
    },
    {
      "inputs": [],
      "name": "WETH",
      "outputs": [
        {
          "internalType": "address",
          "name": "",
          "type": "address"
        }
      ],
      "stateMutability": "view",
      "type": "function"
    },
    {
      "inputs": [],
      "name": "cowBatcher",
      "outputs": [
        {
          "internalType": "contract ICowBatcher",
          "name": "",
          "type": "address"
        }
      ],
      "stateMutability": "view",
      "type": "function"
    },
    {
      "inputs": [],
      "name": "owner",
      "outputs": [
        {
          "internalType": "address",
          "name": "",
          "type": "address"
        }
      ],
      "stateMutability": "view",
      "type": "function"
    },
    {
      "inputs": [],
      "name": "renounceOwnership",
      "outputs": [],
      "stateMutability": "nonpayable",
      "type": "function"
    },
    {
      "inputs": [],
      "name": "swapNativeToUSDT",
      "outputs": [
        {
          "internalType": "uint256",
          "name": "usdcAmountOut",
          "type": "uint256"
        }
      ],
      "stateMutability": "payable",
      "type": "function"
    },
    {
      "inputs": [
        {
          "internalType": "address",
          "name": "tokenIn",
          "type": "address"
        },
        {
          "internalType": "uint256",
          "name": "amountIn",
          "type": "uint256"
        }
      ],
      "name": "swapToUSDT",
      "outputs": [
        {
          "internalType": "uint256",
          "name": "usdcAmountOut",
          "type": "uint256"
        }
      ],
      "stateMutability": "nonpayable",
      "type": "function"
    },
    {
      "inputs": [
        {
          "internalType": "address",
          "name": "newOwner",
          "type": "address"
        }
      ],
      "name": "transferOwnership",
      "outputs": [],
      "stateMutability": "nonpayable",
      "type": "function"
    }
  ],
  "bytecode": "0x60e034620001f357601f62000c5938819003918201601f191683019291906001600160401b03841183851017620001f8578160809284926040968752833981010312620001f35762000051816200022a565b9062000060602082016200022a565b906060620000708583016200022a565b916001600160a01b039182916200008891016200022a565b16928315620001db57600080546001600160a01b031981168617825587519196919584929183167f8be0079c531659141344cd1fd0a4f28419497f9722a3daafe3b4186f6b6457e08980a31692836080528160a05260c05216906020830160208563095ea7b360e01b9283815284602488015260001960448801526044875262000112876200020e565b86519082875af185513d82620001bc575b50501562000179575b85516109ad9081620002ac82396080518181816101890152818161059901526107d0015260a05181818161027601528181610605015261079a015260c05181818161013401526105550152f35b620001b194620001ab9287519260208401526024830152604482015260448152620001a4816200020e565b826200023f565b6200023f565b38808080806200012c565b909150620001d25750823b15155b388062000123565b600114620001ca565b8551631e4fbdf760e01b815260006004820152602490fd5b600080fd5b634e487b7160e01b600052604160045260246000fd5b608081019081106001600160401b03821117620001f857604052565b51906001600160a01b0382168203620001f357565b906000602091828151910182855af1156200029f576000513d6200029557506001600160a01b0381163b155b620002735750565b604051635274afe760e01b81526001600160a01b039091166004820152602490fd5b600114156200026b565b6040513d6000823e3d90fdfe6080604081815260048036101561001557600080fd5b600092833560e01c90816356f8ab1f146106ae575080636ffbf5b914610691578063715018a61461063457806389a30271146105f05780638da5cb5b146105c8578063943e032414610584578063ad5c464814610540578063b72df96614610510578063c91a2169146101245763f2fde38b1461009157600080fd5b34610120576020366003190112610120576100aa6106c9565b906100b36106df565b6001600160a01b0391821692831561010a575050600054826bffffffffffffffffffffffff60a01b821617600055167f8be0079c531659141344cd1fd0a4f28419497f9722a3daafe3b4186f6b6457e0600080a380f35b51631e4fbdf760e01b8152908101849052602490fd5b8280fd5b509190816003193601126103f8577f0000000000000000000000000000000000000000000000000000000000000000926001600160a01b0380851690813b1561050c578351630d0e30db60e41b81528581858134875af18015610502576104ef575b507f000000000000000000000000000000000000000000000000000000000000000016938351916020968784019363095ea7b360e01b9081865289856024978b89850152346044850152604484526101dd8461075a565b83519082885af185513d826104d3575b50501561049a575b50506107d0803402903482041434151715610487576377359400340290808204620f4240149015171561048757670de0b6b3a76400009004966126489788810298818a041490151715610473579088916127108563ffffffff6102574261070b565b8b5163082c860560e11b81526001600160a01b039687168c82019081527f0000000000000000000000000000000000000000000000000000000000000000909716602088015234604088015293909c046060860152909a1663ffffffff166080840152600060a0840181905260c0840152988992839190829060e00103925af195861561046957829661043a575b5084516370a0823160e01b815230858201529087828581845afa9182156103fc578392610406575b508161031d575b87878751908152f35b803b156101205782809185885180948193632e1a7d4d60e01b8352878b8401525af180156103fc579083916103e4575b5080808093335af1903d156103de573d9067ffffffffffffffff82116103cc57855191610383601f8201601f19168a0184610776565b8252873d92013e5b1561039857808080610314565b60119085606494519362461bcd60e51b855284015282015270115512081499599d5b990819985a5b1959607a1b6044820152fd5b634e487b7160e01b8152604185528390fd5b5061038b565b6103ed90610730565b6103f857813861034d565b5080fd5b86513d85823e3d90fd5b9091508781813d8311610433575b61041e8183610776565b8101031261042e5751903861030d565b600080fd5b503d610414565b9095508681813d8311610462575b6104528183610776565b8101031261042e575194386102e5565b503d610448565b85513d84823e3d90fd5b84601187634e487b7160e01b600052526000fd5b5050634e487b7160e01b82525060118352fd5b6104c66104cc928951908c8201528a88820152866044820152604481526104c08161075a565b8561091b565b8361091b565b38806101f5565b9091506104e75750833b15155b38806101ed565b6001146104e0565b6104fb90959195610730565b9338610186565b85513d88823e3d90fd5b8480fd5b5050346103f857806003193601126103f8576020906105396105306106c9565b60243590610798565b9051908152f35b5050346103f857816003193601126103f857517f00000000000000000000000000000000000000000000000000000000000000006001600160a01b03168152602090f35b5050346103f857816003193601126103f857517f00000000000000000000000000000000000000000000000000000000000000006001600160a01b03168152602090f35b5050346103f857816003193601126103f857905490516001600160a01b039091168152602090f35b5050346103f857816003193601126103f857517f00000000000000000000000000000000000000000000000000000000000000006001600160a01b03168152602090f35b833461068e578060031936011261068e5761064d6106df565b80546001600160a01b03198116825581906001600160a01b03167f8be0079c531659141344cd1fd0a4f28419497f9722a3daafe3b4186f6b6457e08280a380f35b80fd5b5050346103f857816003193601126103f8576020905161012c8152f35b8490346103f857816003193601126103f85780603260209252f35b600435906001600160a01b038216820361042e57565b6000546001600160a01b031633036106f357565b60405163118cdaa760e01b8152336004820152602490fd5b9061012c820180921161071a57565b634e487b7160e01b600052601160045260246000fd5b67ffffffffffffffff811161074457604052565b634e487b7160e01b600052604160045260246000fd5b6080810190811067ffffffffffffffff82111761074457604052565b90601f8019910116810190811067ffffffffffffffff82111761074457604052565b7f00000000000000000000000000000000000000000000000000000000000000006001600160a01b03828116908083168214610914577f000000000000000000000000000000000000000000000000000000000000000016906040516323b872dd60e01b60208201523360248201528260448201528560648201526064815260a081019181831067ffffffffffffffff8411176107445761083b9260405261091b565b6126de80850290858204148515171561071a576000612710916108c460209663ffffffff6108684261070b565b1690604051998a988997889663082c860560e11b885204926004870191959460009460c09463ffffffff9360e086019960018060a01b038092168752166020860152604085015260608401521660808201528260a08201520152565b03925af1908115610908576000916108da575090565b906020823d8211610900575b816108f360209383610776565b8101031261068e57505190565b3d91506108e6565b6040513d6000823e3d90fd5b5050505090565b906000602091828151910182855af115610908576000513d61096e57506001600160a01b0381163b155b61094c5750565b604051635274afe760e01b81526001600160a01b039091166004820152602490fd5b6001141561094556fea2646970667358221220f84956d6a8b4298af623c37f4e946c365121533720096c180e20ff5d2fe6d8b864736f6c63430008140033",
  "linkReferences": {},
  "deployedLinkReferences": {}
}