{
  "_format": "hh-sol-artifact-1",
  "contractName": "UniswapAdapter",
  "sourceName": "contracts/adapters/UniswapAdapter.sol",
  "abi": [
    {
      "inputs": [
        {
          "internalType": "address",
          "name": "_router",
          "type": "address"
        },
        {
          "internalType": "address",
          "name": "_usdt",
          "type": "address"
        },
        {
          "internalType": "address",
          "name": "_weth",
          "type": "address"
        }
      ],
      "stateMutability": "nonpayable",
      "type": "constructor"
    },
    {
      "inputs": [
        {
          "internalType": "address",
          "name": "token",
          "type": "address"
        }
      ],
      "name": "SafeERC20FailedOperation",
      "type": "error"
    },
    {
      "inputs": [],
      "name": "USDT",
      "outputs": [
        {
          "internalType": "address",
          "name": "",
          "type": "address"
        }
      ],
      "stateMutability": "view",
      "type": "function"
    },
    {
      "inputs": [],
      "name": "WETH",
      "outputs": [
        {
          "internalType": "address",
          "name": "",
          "type": "address"
        }
      ],
      "stateMutability": "view",
      "type": "function"
    },
    {
      "inputs": [],
      "name": "swapNativeToUSDT",
      "outputs": [
        {
          "internalType": "uint256",
          "name": "",
          "type": "uint256"
        }
      ],
      "stateMutability": "payable",
      "type": "function"
    },
    {
      "inputs": [
        {
          "internalType": "address",
          "name": "tokenIn",
          "type": "address"
        },
        {
          "internalType": "uint256",
          "name": "amountIn",
          "type": "uint256"
        }
      ],
      "name": "swapToUSDT",
      "outputs": [
        {
          "internalType": "uint256",
          "name": "",
          "type": "uint256"
        }
      ],
      "stateMutability": "nonpayable",
      "type": "function"
    },
    {
      "inputs": [],
      "name": "uniswapRouter",
      "outputs": [
        {
          "internalType": "contract IUniswapRouter",
          "name": "",
          "type": "address"
        }
      ],
      "stateMutability": "view",
      "type": "function"
    }
  ],
  "bytecode": "0x60e0346100bf57601f61077338819003918201601f19168301916001600160401b038311848410176100c4578084926060946040528339810103126100bf57610047816100da565b906100606040610059602084016100da565b92016100da565b6001600160a01b0390921660805260a05260c05260405161068490816100ef823960805181818161011d01528181610270015261048e015260a05181818160c1015281816101ab015261040f015260c0518181816091015261022d0152f35b600080fd5b634e487b7160e01b600052604160045260246000fd5b51906001600160a01b03821682036100bf5756fe60806040818152600436101561001457600080fd5b600091823560e01c908163735de9f71461025c57508063ad5c464814610219578063b72df966146101da578063c54e44eb146101975763c91a21691461005957600080fd5b816003193601126101935761010b8282516100738161029f565b60028152833660208301376100878161030f565b6001600160a01b037f000000000000000000000000000000000000000000000000000000000000000081169091526100be82610332565b817f000000000000000000000000000000000000000000000000000000000000000016905284518080958194637ff36ab560e01b83528660048401526080602484015260848301906103c3565b336044830152426064830152039134907f0000000000000000000000000000000000000000000000000000000000000000165af1908115610187579061015c918460209592610164575b5050610332565b519051908152f35b61018092503d8091833e61017881836102ed565b810190610342565b3880610155565b505051903d90823e3d90fd5b5080fd5b5034610193578160031936011261019357517f00000000000000000000000000000000000000000000000000000000000000006001600160a01b03168152602090f35b5034610193578060031936011261019357600435916001600160a01b0383168303610216575061020f60209260243590610400565b9051908152f35b80fd5b5034610193578160031936011261019357517f00000000000000000000000000000000000000000000000000000000000000006001600160a01b03168152602090f35b8390346101935781600319360112610193577f00000000000000000000000000000000000000000000000000000000000000006001600160a01b03168152602090f35b6060810190811067ffffffffffffffff8211176102bb57604052565b634e487b7160e01b600052604160045260246000fd5b6080810190811067ffffffffffffffff8211176102bb57604052565b90601f8019910116810190811067ffffffffffffffff8211176102bb57604052565b80511561031c5760200190565b634e487b7160e01b600052603260045260246000fd5b80516001101561031c5760400190565b9060209081838203126103be57825167ffffffffffffffff938482116103be570181601f820112156103be5780519384116102bb578360051b906040519461038c858401876102ed565b855283808601928201019283116103be578301905b8282106103af575050505090565b815181529083019083016103a1565b600080fd5b90815180825260208080930193019160005b8281106103e3575050505090565b83516001600160a01b0316855293810193928101926001016103d5565b6001600160a01b0392919083167f000000000000000000000000000000000000000000000000000000000000000084168181146105df576040928351906323b872dd60e01b6020830152336024830152604430818401528160648401526064835260a083019383851067ffffffffffffffff8611176102bb5760209861048c60a09588978a52876105e6565b7f000000000000000000000000000000000000000000000000000000000000000016928751918a83019263095ea7b360e01b9081855286602482015283868201528581526104d9816102d1565b60009c8d809a8197828551925af185513d826105c3575b50501561058a575b50508851976105068961029f565b60028952893660208b013761051a8961030f565b5261052488610332565b526105538851978896879586946338ed173960e01b8652600486015285602486015284015260a48301906103c3565b33606483015242608483015203925af191821561058157508361057d939492610164575050610332565b5190565b513d85823e3d90fd5b6105b66105bc928c5190602082015288602482015286888201528781526105b0816102d1565b8b6105e6565b896105e6565b38806104f8565b9091506105d75750893b15155b38806104f0565b6001146105d0565b5090925050565b906000602091828151910182855af115610642576000513d61063957506001600160a01b0381163b155b6106175750565b604051635274afe760e01b81526001600160a01b039091166004820152602490fd5b60011415610610565b6040513d6000823e3d90fdfea264697066735822122039e26c0968622ec78825c88146b69799936d9e802fc44ff8a95d8423410903d064736f6c63430008140033",
  "linkReferences": {},
  "deployedLinkReferences": {}
}